:1000000049C060C438C46BC06AC069C068C067C0FA
:1000100066C0E7C364C0A2C47CC461C060C05FC0E6
:100020005EC0CEC45CC0490D0A005400540D0A00E5
:1000300000000000370034003100510D0A000000BC
:100040000000360033003000570D0A0000000000A9
:1000500038003500320004040404040404040202DD
:100060000202020203030303030301020408102037
:100070004080010204081020010204081020000042
:100080000000000000000003040600000000000063
:100090000000040611241FBECFE5D4E0DEBFCDBFB3
:1000A00022E0AEE8B0E001C01D92A130B207E1F756
:1000B00010E0A0E6B0E0E2E0F0E102C005900D92B1
:1000C000AE38B107D9F710E0CAE4D0E003C02197F9
:1000D000FE0182D7C934D107D1F7CDD590C790CFD3
:1000E000843039F0863049F0833051F48FB58F7702
:1000F00002C08FB58F7D8FBD089585B58F7D85BD7D
:1001000008951F93CF93DF93282F30E0F901E25831
:10011000FF4F8491F901E659FF4FD491F901EA5A52
:10012000FF4FC491CC23B9F0162F8111D9DFEC2FEA
:10013000F0E0EE0FFF1FE45BFF4FA591B4919FB776
:10014000F894111104C08C91D095D82302C0EC9181
:10015000DE2BDC939FBFDF91CF911F9108953FB7B6
:10016000F8948091540190915501A0915601B0915D
:10017000570122B708B600FE05C02F3F19F00196BF
:10018000A11DB11D3FBFBA2FA92F982F8827820F1D
:10019000911DA11DB11DBC01CD0142E0660F771F6D
:1001A000881F991F4A95D1F708958F929F92AF9219
:1001B000BF92CF92DF92EF92FF926B017C01CFDF73
:1001C0004B015C01C114D104E104F104E9F0C7DF83
:1001D000DC01CB0188199909AA09BB09883E934023
:1001E000A105B10578F321E0C21AD108E108F108B0
:1001F00088EE880E83E0981EA11CB11CC114D104A6
:10020000E104F10421F7DECFFF90EF90DF90CF9073
:10021000BF90AF909F908F9008952FB7F894609102
:1002200050017091510180915201909153012FBF63
:10023000089586E080934E010895E0912201F091A7
:100240002301309729F010921D0110921C0109948E
:100250000895CF93DF93AC01E0912001F09121014B
:100260003097F1F090911F0180911E019817C0F016
:1002700090E0292F30E02617370754F4D901A25710
:10028000BF4FEA01C20FD31F28812C939F5FF1CF8C
:1002900010921F0160931E01CB01DF91CF91099451
:1002A000DF91CF9108950895CF92DF92EF92FF9260
:1002B0000F931F93CF93DF936C017A018B01C0E002
:1002C000D0E0CE15DF0581F0D8016D918D01D6010A
:1002D000ED91FC910190F081E02DC6010995892BEB
:1002E00011F02196EECF7E01C701DF91CF911F91D2
:1002F0000F91FF90EF90DF90CF900895FC01538D08
:10030000448D252F30E0842F90E0821B930B5417EF
:1003100010F0CF96089501970895FC01918D828D7C
:10032000981761F0828DDF01A80FB11D5D968C9149
:10033000928D9F5F9F73928F90E008958FEF9FEF54
:100340000895FC01918D828D981731F0828DE80F10
:10035000F11D858D90E008958FEF9FEF0895FC01CA
:10036000918D228D892F90E0805C9F4F821B910997
:100370008F739927089588E591E0F1DF21E0892BBB
:1003800009F420E0822F0895FC01848DDF01A80F7D
:10039000B11DA35ABF4F2C91848D90E001968F73AD
:1003A0009927848FA689B7892C93A089B1898C91CC
:1003B00082748C93938D848D981306C00288F38980
:1003C000E02D80818F7D80830895EF92FF920F93BF
:1003D0001F93CF93DF93EC0181E0888F9B8D8C8DF1
:1003E000981305C0E889F989808185FD25C0F62E1E
:1003F0000B8D10E00F5F1F4F0F731127E02E8C8DB8
:10040000E8120BC00FB607FCFACFE889F9898081A2
:1004100085FFF5CFCE01B8DFF2CF8B8DFE01E80F5F
:10042000F11DE35AFF4FF0829FB7F8940B8FEA89D2
:10043000FB898081806209C09FB7F894EE89FF89AB
:100440006083E889F9898081827480839FBF81E01D
:1004500090E0DF91CF911F910F91FF90EF90089561
:100460000F931F93CF93DF938C01C0E0D0E0F8018E
:10047000EC0FFD1F6491662339F088E591E0A5DF5C
:10048000892B11F02196F3CFCE01DF91CF911F91EF
:100490000F910895CF93DF93EC01888D8823C1F0ED
:1004A000EA89FB89808185FD05C0A889B9898C917D
:1004B00086FD0EC00FB607FCF5CF808185FFF2CF19
:1004C000A889B9898C9185FFEDCFCE015DDFE8CF9A
:1004D000DF91CF91089585ED86BF06B604FCFDCF70
:1004E00010921B0108954091CE00262F30E0240F7A
:1004F000311D21323105DCF420911B012430C9F477
:10050000FC0180E090E0861758F43091CE002191F4
:10051000DC01A255BF4FA30FB11D2C930196F3CF61
:100520008091CE00680F6093CE0080E0089581E056
:10053000089582E008950895E0911F0180911E01C1
:10054000E81730F4F0E0E257FF4F808190E0089523
:100550008FEF9FEF089590911F0180911E019817D2
:1005600050F4E92FF0E0E257FF4F208130E09F5F29
:1005700090931F0102C02FEF3FEFC90108958091B2
:100580001E0190E020911F01821B91090895CF93D5
:10059000DF93CB01EA01642FA6DFCE01DF91CF917B
:1005A0000895CF93DF931F92CDB7DEB7698361E0E3
:1005B000CE01019698DF81E090E00F90DF91CF911E
:1005C0000895089580E090E008958F929F92AF92F1
:1005D000BF92CF92DF92EF92FF920F931F93CF9330
:1005E000DF9380914E01863141F0803821F4C0E3E1
:1005F000D1E00FE005C00EE103C0C5E2D1E00AE0A2
:10060000002E000C110B6E01E12CF12C06DE609324
:10061000600170936101809362019093630188E5AA
:1006200091E07BDE97FF1DC0F8DD80906001909027
:100630006101A0906201B0906301DC01CB018819D7
:100640009909AA09BB0980905C0190905D01A09076
:100650005E01B0905F0188159905AA05BB05F8F207
:100660000CC08A30910549F0F60181936F01FFEFCC
:10067000EF1AFF0AE016F10648F2CE0DD11DE7FC95
:10068000DA95188281E080934801DF91CF911F9124
:100690000F91FF90EF90DF90CF90BF90AF909F9021
:1006A0008F90089568DE811190CF0895009761F0D2
:1006B000FC0101900020E9F73197AF01481B590B6D
:1006C000BC0185EF91E063CF80E090E008958091D8
:1006D0004E018631C1F040F4803101F56091240172
:1006E00085EF91E05EDF17C0803241F08038B1F4D1
:1006F0001092480180E391E0D9DF0AC088E890E0D9
:10070000D5DF81E406C085E291E0D0DF1092480198
:1007100085E48093240110924E01089560E085EFF6
:1007200091E03FCF0F931F93CF93C0911E01209173
:100730001F01C21709F450C08C0185EF91E00BDF57
:10074000803569F13CF4873469F0893409F044C09C
:1007500080E226C0813539F18435F1F58AE290E0F6
:100760007FDE0BC089E48093240186E290E078DE8E
:1007700088E591E08FDE80E813C080911F01C817E3
:1007800041F085EF91E0E7DE682F88E591E01DDE1E
:10079000F4CF88E591E0CF911F910F917BCE80E15E
:1007A00080934E010CC086E180934E018CE290E074
:1007B00057DE88E591E06EDE84E580932401C1E098
:1007C0008C2F0C2E000C990B801791072CF485EFC1
:1007D00091E0C1DECF5FF4CFCF911F910F910895CB
:1007E00001D41F920F920FB60F9211242F933F93B3
:1007F0008F939F93AF93BF9380915001909151013C
:10080000A0915201B091530130914F0123E0230F89
:100810002D3720F40196A11DB11D05C026E8230F38
:100820000296A11DB11D20934F018093500190931A
:100830005101A0935201B0935301809154019091C2
:100840005501A0915601B09157010196A11DB11D0E
:100850008093540190935501A0935601B093570192
:10086000BF91AF919F918F913F912F910F900FBEAC
:100870000F901F9018951F920F920FB60F92112490
:100880002F933F934F935F936F937F938F939F9398
:10089000AF93BF93EF93FF93E0916200F0916300F9
:1008A0000995FF91EF91BF91AF919F918F917F91AA
:1008B0006F915F914F913F912F910F900FBE0F90CD
:1008C0001F9018951F920F920FB60F9211242F931D
:1008D0003F934F935F936F937F938F939F93AF93C8
:1008E000BF93EF93FF93E0916000F0916100099551
:1008F000FF91EF91BF91AF919F918F917F916F91F8
:100900005F914F913F912F910F900FBE0F901F90CD
:1009100018951F920F920FB60F9211242F933F93A9
:100920004F935F936F937F938F939F93AF93BF93F7
:10093000EF93FF9388E591E027DDFF91EF91BF9161
:10094000AF919F918F917F916F915F914F913F9167
:100950002F910F900FBE0F901F9018951F920F921E
:100960000FB60F9211242F938F939F93EF93FF93C2
:10097000E0916801F09169018081E0916E01F09150
:100980006F0182FD12C09081809171018F5F8F7322
:1009900020917201821751F0E0917101F0E0E85A64
:1009A000FE4F958F8093710101C08081FF91EF917F
:1009B0009F918F912F910F900FBE0F901F901895C0
:1009C0001F920F920FB60F9211242F933F934F93C4
:1009D0005F936F937F938F939F93AF93BF93EF93A7
:1009E000FF9381B1887F803609F499C068F5883219
:1009F00009F45BC090F4803109F454C038F48823C2
:100A000009F4EEC0883009F44DC0EDC0883109F416
:100A10004CC0803209F45CC0E6C0803409F466C082
:100A200048F4803309F454C0883309F0DCC0809363
:100A3000F100D1C0803509F44EC0883509F45BC09F
:100A4000883409F0D0C0CEC0883909F4C1C0A8F4F8
:100A5000883709F464C038F4883609F460C08037F8
:100A600009F45DC0C0C0883809F4B2C0803909F407
:100A70005CC0803809F0B7C058C0803B09F481C021
:100A800038F4803A09F462C0883A09F47AC0ABC0FD
:100A9000803C09F4A0C0883C09F49DC0883B09F45F
:100AA00085C0A1C08091140110C090911301809164
:100AB0001201981758F5E091130181E08E0F809391
:100AC0001301F0E0EE50FF4F808183B985EC81C0C7
:100AD0008093F10087C0E091130181E08E0F809335
:100AE000130183B1F0E0EE50FF4F8083909113012A
:100AF000809112016AC0E091130181E08E0F809312
:100B0000130183B1F0E0EE50FF4F808380911A0112
:100B1000811168C081E08093190184EA5DC083E09F
:100B200080931B011092F000D1CF8091F0008032B1
:100B300008F04EC0E091F00081E08E0F8093F0004D
:100B400083B1F0E0E053FF4F8083C0CF85EC86BFD8
:100B500010921B018091F000803230F4E091F0009F
:100B6000F0E0E053FF4F10826091F00070E0E09100
:100B70001501F091160180ED90E009951092F000BA
:100B800032C084E080931B011092CF001092CE00FF
:100B9000E0911701F091180109958091CE00811123
:100BA00005C081E08093CE001092AE00E091CF00AE
:100BB00081E08E0F8093CF00F0E0E255FF4F8081FF
:100BC00083B99091CF008091CE00981708F47ECF22
:100BD00085E886BF08C085EC86BF10921B0103C064
:100BE0001092F10078DCFF91EF91BF91AF919F914E
:100BF0008F917F916F915F914F913F912F910F90C6
:100C00000FBE0F901F901895E8E5F1E01382128255
:100C100088EE93E0A0E0B0E084839583A683B78359
:100C200028E630E03183208320E430E035872487D4
:100C300049E250E0578746874BE250E0518B408BAA
:100C40004AE250E0538B428B358B248B2CE230E010
:100C5000378B268B118E128E138E148EE5EFF1E0FA
:100C60001382128284839583A683B7838AE790E0F8
:100C7000918380830895789483B7826083BF83B71C
:100C8000816083BF89B7816089BF1EBC8EB58260D9
:100C90008EBD8EB581608EBD8FB581608FBD85B5EF
:100CA000846085BD85B5806485BD329A319A309A5D
:100CB000379A1AB810921F0110921E0110921D014E
:100CC00010921C0110921B0181E080931A01109276
:100CD000190161E082E115DA61E083E112DA089836
:100CE000099888E480B985E486BF8DE191E090930E
:100CF00018018093170189E291E090931601809387
:100D0000150180E382B9E2E7F0E02491EEE5F0E03E
:100D10008491882399F090E0880F991FFC01E05D91
:100D2000FF4FA591B491FC01E45BFF4F8591949135
:100D30008FB7F894EC91E22BEC938FBFCDE6D0E027
:100D4000FE01449109E510E0F80184918823C9F07F
:100D500090E0880F991FFC01E05DFF4F25913491D1
:100D6000FC01E45BFF4FA591B4915FB7F894F901E2
:100D70009081842F8095982390838C91842B8C93E1
:100D80005FBF61E088E0BDD982E993E090932101E3
:100D90008093200187E693E09093230180932201C2
:100DA00089E191E0909363008093620085B7837F2F
:100DB000886085BF8BB780688BBFE0916801F09138
:100DC000690182E08083E0916401F0916501108205
:100DD000E0916601F091670180E1808310927001DB
:100DE000E0916C01F0916D0186E88083E0916A01E9
:100DF000F0916B01808180618083E0916A01F091C4
:100E00006B01808188608083E0916A01F0916B01C1
:100E1000808180688083E0916A01F0916B0180811C
:100E20008F7D808368E873E180E090E0BED9109206
:100E30004E018AE390E014DB88E591E02BDB63E070
:100E400070E080E090E0B1D9E8D94B015C01F12C71
:100E500088E591E084DA892B09F0B3C0FF2009F41A
:100E6000A0C084E080934E0188E1E0E3F1E0DF017F
:100E70001D928A95E9F78BE0E5E2F1E0DF011D9232
:100E80008A95E9F785E4809324011092480160E097
:100E900088E037D991E8E92E90E0F92EBED920916B
:100EA0004E01243009F46BC0C8F4213009F077C03A
:100EB00088E490E0D5DA88E591E0ECDAAED9609389
:100EC0004A0170934B0180934C0190934D0161E076
:100ED00088E017D91092490188E078C0263019F0CF
:100EE0002830F1F05CC060ED77E080E090E05DD903
:100EF000F7018491FE01B490F801D490DD2009F44B
:100F000064C08111EDD8ED2DF0E0EE0FFF1FE25C23
:100F1000FF4FA591B4918C918B2109F456C059C013
:100F200080904A0190904B01A0904C01B0904D01EF
:100F30009B01AC01281939094A095B0949015A0189
:100F400080914801882361F06BE870E080E391E0D4
:100F50004DD0892B29F481E08093490110924801FA
:100F600080914901811107C031E3831635E793066B
:100F7000A104B104A0F060E088E0C3D82AC061E019
:100F800088E0BFD866E970E080E090E00ED960E0CC
:100F900088E0B7D866E970E080E090E006D982DBAF
:100FA0007DCF3BD9DC01CB0188199909AA09BB097E
:100FB000FF24F394803D9740A105B10508F448CF84
:100FC00046CFFF2009F450CF4CCF81E080934E01F3
:100FD000E6CF10924E01E3CFEE0FFF1F0590F49184
:100FE000E02D099481E090E0F89409C0FB01DC0158
:100FF0008D91019080190110D9F3990B0895F894FF
:02100000FFCF20
:101002005301530100000000E50154017E014A0230
:10101200AF018D01A10100000000D102C702E2026E
:0E1022009B02BF02AB029C02494E494F4B009D
:00000001FF
