:100000000C947E000C94A6000C94A6000C94A60000
:100010000C94A6000C94A6000C94A6000C94210F3E
:100020000C94A6000C94A6000C94A6000C94A600B8
:100030000C94A6000C94A6000C94A6000C94A600A8
:100040000C947D0F0C94A6000C94170B0C94490B88
:100050000C94A6000C94A6000C94A6000C94A60088
:100060000C94741D0C94A600E218F918F918F618EF
:10007000F918E018F918F918F918D418F918F91836
:10008000E918F418F218F918F918F918F01802001C
:100090000000080002010000030407000000000047
:1000A0000000000102040810204080010204081032
:1000B00020010204081020040404040404040402BF
:1000C00002020202020303030303030000000023F1
:1000D000002600290000000000250028002B000059
:1000E000000000240027002A001F1C1F1E1F1E1FC7
:1000F0001F1E1F1E1F009909790B711C11241FBEA2
:10010000CFEFD8E0DEBFCDBF12E0A0E0B1E0EEE37C
:10011000F5E402C005900D92A835B107D9F724E0A7
:10012000A8E5B2E001C01D92A032B207E1F710E0ED
:10013000CEE7D0E004C02197FE010E94EE1ECB372F
:10014000D107C9F70E94A70B0C949D220C940000C4
:10015000FB019C012C5F3F4FDC015D91CD01419182
:10016000541305C0A217B307B9F781E0089580E0E2
:1001700008955F926F927F928F929F92AF92BF92FB
:10018000CF92DF92EF92FF920F931F93CF93DF9363
:1001900000D000D01F92CDB7DEB75C01512C00E03B
:1001A00010E0CE0101966C013E0196E0690E711CD3
:1001B000760148018C189D08C4018E0D9F1D0E9478
:1001C0005022F70181937F01E615F705A9F7B601E3
:1001D000C5010E94A800882319F05D8081E001C05C
:1001E00080E0093EF3E01F0720F0811102C0512C8E
:1001F00081E00B5F1F4F8823D9F2852D0F900F9060
:100200000F900F900F90DF91CF911F910F91FF9062
:10021000EF90DF90CF90BF90AF909F908F907F90A6
:100220006F905F900895CF92DF92EF92FF920F93BD
:100230001F93CF93DF9300D000D01F92CDB7DEB7CE
:1002400049835A836B837C838D83283CD0F485E07B
:10025000289F80011124FE0131966F01E12CF12CC1
:10026000F60161916F01C8018E0D9F1D0E945822F9
:10027000FFEFEF1AFF0A85E0E816F10489F781E045
:1002800001C080E00F900F900F900F900F90DF91C2
:10029000CF911F910F91FF90EF90DF90CF90089535
:1002A0000F931F93CF93DF93893CA8F495E0899F28
:1002B000E00111248E010B5F1F4F6FEFCE010E94F2
:1002C000582265E070E080E090E00E94F80F2196EF
:1002D000C017D10791F7DF91CF911F910F9108952A
:1002E000CF93DF93EC0130E04217D0F4DE01A40F8E
:1002F000B11D9C91E92FF0E09A3308F0F797E29551
:10030000E07F11969C919A3310F0975301C090535F
:10031000DB01A30FB11D9E0F9C933F5F4E5FE4CFA7
:10032000DF91CF910895DF92EF92FF920F931F9389
:10033000CF93DF93CDB7DEB72C970FB6F894DEBF1F
:100340000FBECDBF8C01F62EE42ED22E0E943711A7
:10035000CE0101960E9437118B819C81F801938315
:1003600082838D8184838E8185838F818683888536
:100370008783898580878A8581878B8582878C851D
:1003800083872D2D4E2D6F2DC8010E9450122C9663
:100390000FB6F894DEBF0FBECDBFDF91CF911F9196
:1003A0000F91FF90EF90DF90089520E00C94EC11F6
:1003B0001F93CF93DF93EC01162F0E94A2111430EC
:1003C00029F0153051F01230A1F40CC069E071E051
:1003D000CE010E94E00BD2E021C063E171E0CE01CA
:1003E0000E94E00B6DE171E0CE010E94E00BD4E0D1
:1003F00015C067E271E0CE010E94E00B2CE231E013
:1004000040E050E068E775E083E00E946A0C68EC29
:1004100070E080E090E00E94F80F13C0C0E02CE292
:1004200031E040E050E068E775E083E00E946A0C4C
:1004300068EC70E080E090E00E94F80FCF5FDC1382
:10044000EECF64EF71E080E090E0DF91CF911F91FB
:100450000C94F80F0F931F93CF93DF93EC018B0154
:1004600040E060E00E94B011B801CE010E94040C8F
:1004700041E060E0CE010E94B01161E371E0CE0185
:10048000DF91CF911F910F910C94E00BAF92BF922F
:10049000CF92DF92EF92FF920F931F93CF93DF9350
:1004A000CDB7DEB761970FB6F894DEBF0FBECDBFF4
:1004B0008C016B010E94A211C8010E945C110E9474
:1004C000C70FF8016487758786879787F6010190C3
:1004D0000020E9F731977F01EC18FD08F0E1FE15E7
:1004E00040F540E060E0C8010E94B0112FE030E02C
:1004F00040E050E0CE0101965C01BC01C6010E94C3
:10050000BA09B501C8010E94040C81E1F5011192FC
:100510008A95E9F741E060E0C8010E94B0119701B7
:10052000332740E150E0B501C6010E94BA09B50188
:1005300001C0B601C8010E94040C61960FB6F89480
:10054000DEBF0FBECDBFDF91CF911F910F91FF9006
:10055000EF90DF90CF90BF90AF900895CF92DF9251
:10056000EF92FF920F931F93CF93DF93CDB7DEB738
:10057000A0970FB6F894DEBF0FBECDBF7C016B0114
:100580008E010F5F1F4F80E2F80111928A95E9F703
:100590006EE371E0C8010E944A1FB601C8010E94C3
:1005A0004A1FB801C7010E94460264EC79E080E06E
:1005B00090E00E94F80FC7010E94A211A0960FB60A
:1005C000F894DEBF0FBECDBFDF91CF911F910F9189
:1005D000FF90EF90DF90CF9008950F931F93CF93EC
:1005E000DF93FC01448555856685778514161506CD
:1005F00016061706CCF4EC010E94C70F0C851D856A
:100600002E853F85DC01CB01801B910BA20BB30B28
:10061000813A9F40A105B10538F0CE010E945711E3
:100620001C861D861E861F86DF91CF911F910F911C
:100630000895CF93DF93EC010E945C110E94C70FD5
:100640006C877D878E879F87DF91CF910895611595
:10065000710579F0FB0101900020E9F73197AF01B6
:10066000461B570BDC01ED91FC910280F381E02DDC
:10067000099480E090E00895FC01118208958DE9CD
:1006800092E00E94D209892B29F08DE992E00E9424
:10069000EC09F5CF08950F931F93CF93DF93CDB758
:1006A000DEB764970FB6F894DEBF0FBECDBF8C01E6
:1006B0000E943F036FE471E08DE992E00E942703FE
:1006C0008DE992E00E948C0A25E030E0AE014F5F98
:1006D0005F4F6DE08DE992E00E94360CC8010E94E8
:1006E0003F031E8261E571E0CE0101960E94551F15
:1006F000892B19F084E6F801818361E070E080E0E5
:1007000090E00E94F80FC8010E943F0381E0F801C9
:100710009181911180E064960FB6F894DEBF0FBE10
:10072000CDBFDF91CF911F910F910895CF93DF93AC
:10073000EB010E943F0367E571E08DE992E00E94C2
:1007400027038DE992E00E948C0A2FE030E0AE0191
:100750006DE08DE992E00E94360CC80FD11D188221
:10076000DF91CF910895EF92FF920F931F93CF9354
:10077000DF937C01EB01042F10E0A80160E070E042
:10078000CE010E94431F69E571E08DE992E00E946D
:1007900027038DE992E00E948C0A61E070E080E01E
:1007A00090E00E94F80F9801AE016DE08DE992E0B3
:1007B0000E94360C182FC7010E943F03C10FD11DA4
:1007C0001882DF91CF911F910F91FF90EF900895C4
:1007D000CF930E943F036BE571E08DE992E00E94A8
:1007E00027038DE992E00E948C0AC0E08DE992E037
:1007F0000E94D209892B11F4C150C1F78DE992E012
:100800000E94EC09CF910895DF92EF92FF920F932F
:100810001F93CF93DF93CDB7DEB7A0970FB6F894B1
:10082000DEBF0FBECDBFFB0101900020E9F731977D
:10083000E61BF70BDE2ECE0101967C0180E2D7018C
:100840001D928A95E9F78EE48983AF015527CE0181
:1008500002960E943A1F8701802F8E198D1540F451
:10086000F80161918F018DE992E00E943F0AF4CF77
:100870006DE571E08DE992E00E9427038DE992E039
:100880000E948C0AA0960FB6F894DEBF0FBECDBFB3
:10089000DF91CF911F910F91FF90EF90DF9008951E
:1008A000EF92FF920F931F93CF93DF937B0160E64C
:1008B00071E08DE992E00E942703F701019000208A
:1008C000E9F731971E2F1E190E2DCE2DDF2D8C2FFF
:1008D000801B811730F469918DE992E00E943F0AF4
:1008E000F6CF6DE571E08DE992E00E9427038DE976
:1008F00092E00E948C0A80E0DF91CF911F910F91CE
:10090000FF90EF9008950F931F93CF93DF93CDB790
:10091000DEB760970FB6F894DEBF0FBECDBF8C0177
:100920000E94ED12F801709684E0DF011D928A9515
:10093000E9F749E06AE0CE0101960E94F7128CE0E7
:10094000FE013396D801129601900D928A95E1F737
:100950008F85F80186878889878760960FB6F89417
:10096000DEBF0FBECDBFDF91CF911F910F910895D4
:10097000CF93DF93EC010E941B1460E7CE01DF915F
:10098000CF910C948414CF93DF93EC010E946B17EA
:10099000811102C080E011C0CE010E94561288234E
:1009A000C9F38B81888B8C81898B8D818A8B8E8119
:1009B0008B8BCE010E949D1781E0DF91CF9108952E
:1009C00008950F931F93CF93DF9300D000D000D0F2
:1009D000CDB7DEB78C010E948719882391F0C8013A
:1009E0000E94C81A882391F042E651E06BE671E05C
:1009F000CE0101960E94AB18CE0101960E94341AD6
:100A000005C0C8010E9487198111E9CF26960FB64B
:100A1000F894DEBF0FBECDBFDF91CF911F910F9134
:100A20000895CF93DF93EC010E948D19CE01DF91E1
:100A3000CF9108958F929F92AF92BF92CF92EF92F3
:100A4000FF920F931F93CF93DF9300D0CDB7DEB704
:100A50005C01CA012DE230E03A832983BE016F5F59
:100A60007F4F0E94351F0E940E1F4C01BE016F5F19
:100A70007F4F80E090E00E94351F0E940E1F182FCC
:100A8000BE016F5F7F4F80E090E00E94351F0E94A3
:100A90000E1FF82EBE016F5F7F4F80E090E00E9436
:100AA000351F0E940E1F082FBE016F5F7F4F80E031
:100AB00090E00E94351F0E940E1FE82EBE016F5F5E
:100AC0007F4F80E090E00E94351F0E940E1FC82ECD
:100AD0002F2D412FB401C5010E949718C5010F9019
:100AE0000F90DF91CF911F910F91FF90EF90CF90DA
:100AF000BF90AF909F908F900895EF92FF920F93C9
:100B00001F93CF93DF93CDB7DEB7C054D1090FB693
:100B1000F894DEBF0FBECDBF7C0140E050E0BA01CB
:100B2000CE01CB960E941F188E010F5F1F4F80E2EF
:100B3000D8011D928A95E9F7FE01B1968BE0DF019D
:100B40001D928A95E9F73B9689E0DF011D928A950F
:100B5000E9F76DE48DE992E00E943F0A8DE992E0A9
:100B60000E948C0A61E070E080E090E00E94F80F43
:100B700020E230E0A8016DE08DE992E00E94360CA1
:100B80008B3098F0A801B701CE01C5960E941A05D6
:100B900086E0FE01F596DE01DB9601900D928A95C6
:100BA000E1F7CE01CB960E94341A8DE992E00E94C3
:100BB000D209892B29F08DE992E00E94EC09F5CF4A
:100BC000C05CDF4F0FB6F894DEBF0FBECDBFDF9124
:100BD000CF911F910F91FF90EF9008950F931F9366
:100BE000CF93DF93CDB7DEB76E970FB6F894DEBF25
:100BF0000FBECDBF8E010F5F1F4F8EE1F801119226
:100C00008A95E9F760E085E00E94A31061E086E044
:100C10000E94A31061E084E00E94A31061E083E0E1
:100C20000E94A31061E08AE00E94A31061E089E0C5
:100C30000E94A31060E084E00E94DF1060E083E087
:100C40000E94DF108CE593E00E94D31B0E94CF1A14
:100C500042E060E181E792E00E94D5018EE692E0F9
:100C60000E94E1048AE592E00E94B80481E080934A
:100C70009C021092850210928602109287021092B6
:100C800088021092810210928202109283021092C6
:100C9000840268E273E280E090E00E94F80F26E0B0
:100CA00040E052EC61E070E08DE992E00E94AE0A13
:100CB0008FE692E00E944B03882359F0B8018FE63B
:100CC00092E00E949603B80181E792E00E94AE0292
:100CD00003C082E080939C026E960FB6F894DEBF4C
:100CE0000FBECDBFDF91CF911F910F910895CF938C
:100CF0008AE692E00E94B900C82F882311F180E1B2
:100D000080939C0224E630E040E050E060E273E033
:100D100083E00E946A0C64E670E080E090E00E944C
:100D2000F80F24E630E040E050E060E273E083E05A
:100D30000E946A0C64E670E080E090E00E94F80F88
:100D400003C089E880939C0281E0C11101C080E06A
:100D5000CF91089561E084E00E94DF1060E47FE1BC
:100D600080E090E00E94F80F60E084E00C94DF10D7
:100D7000CF93DF93CDB7DEB72A970FB6F894DEBFD7
:100D80000FBECDBF6EE672E0CE0101960E94110546
:100D900049E852E0BE016F5F7F4FCE0107960E9487
:100DA000631981E04F81588569857A854A305105FC
:100DB000610571050CF480E02A960FB6F894DEBF49
:100DC0000FBECDBFDF91CF910895EF92FF920F93A9
:100DD0001F93CF93DF93CDB7DEB7C554D1090FB6BC
:100DE000F894DEBF0FBECDBF8E010F5F1F4F80E3B3
:100DF000F80111928A95E9F77E01F1E3EF0EF11CFB
:100E000085E1F70111928A95E9F7EAE5F2E0838935
:100E10001F928F9382891F928F9381891F928F9344
:100E200080891F928F9387E791E09F938F931F9301
:100E30000F930E949D1FEFE8F2E085811F928F9330
:100E400084811F928F9383811F928F9382811F923F
:100E50008F9381811F928F93808190E08053984F70
:100E60009F938F9389E891E09F938F93FF92EF92E6
:100E70000E949D1FB701C8010E944A1F67E871E0E8
:100E8000C8010E944A1F46E050E065E972E0C801CF
:100E90000E945E1FB8018FE692E00E9450040FB6D8
:100EA000F894DEBF0FBECDBFCB5BDF4F0FB6F8941B
:100EB000DEBF0FBECDBFDF91CF911F910F91FF908D
:100EC000EF900895EF92FF920F931F93CF93DF93CC
:100ED000CDB7DEB7CB54D1090FB6F894DEBF0FBE45
:100EE000CDBF6EE672E0CE018A5B9F4F0E94110576
:100EF000EAE5F2E083891F928F9382891F928F9394
:100F000081891F928F9380891F928F9387EA91E046
:100F10009F938F938E010F5F1F4F1F930F930E941C
:100F20009D1F67E871E0C8010E944A1F2C968FAD93
:100F30002C971F928F932B968FAD2B971F928F9389
:100F40002A968FAD2A971F928F9329968FAD299756
:100F50001F928F9328968FAD28971F928F93279675
:100F60008FAD279790E08053984F9F938F9389E898
:100F700091E09F938F937E0181E3E80EF11CFF9235
:100F8000EF920E949D1FB701C8010E944A1FB8013D
:100F90008FE692E00E9404040FB6F894DEBF0FBE05
:100FA000CDBFC55BDF4F0FB6F894DEBF0FBECDBF20
:100FB000DF91CF911F910F91FF90EF900895CF9304
:100FC00068EB71E081E792E00E9446020E946207AE
:100FD000C3E028EC30E040E050E06CED75E083E0E9
:100FE0000E946A0C66E970E080E090E00E94F80FD1
:100FF000C15079F7CF9108950F931F930E94C70FA7
:10100000009181021091820220918302309184022A
:10101000DC01CB01801B910BA20BB30B893E9340EB
:10102000A105B105B8F08FE692E00E94E803823591
:1010300021F0843529F48BEA01C081EC80939C0275
:101040000E94C70F60938102709382028093830293
:10105000909384021F910F910895AF92BF92CF9207
:10106000DF92EF92FF920F931F93CF93DF9300D005
:1010700000D0CDB7DEB78C015B016A01CE010196CD
:101080007C0184E0F70111928A95E9F728E040E0BD
:10109000B701C8010E94700189819A81AB81BC812E
:1010A000F50180839183A283B3832AE048E0B701EE
:1010B000C8010E9470018981F8019285F601908330
:1010C0000F900F900F900F90DF91CF911F910F9184
:1010D000FF90EF90DF90CF90BF90AF9008950F9367
:1010E0001F93CF93DF93CDB7DEB765970FB6F89414
:1010F000DEBF0FBECDBF8E010F5F1F4F8BE0F8012B
:1011000011928A95E9F74BE0B8018FE692E00E94D0
:10111000B303AE014B5E5F4FBE016F5E7F4FC801F0
:101120000E942D08182F89899A89AB89BC898C87E0
:101130009D87AE87BF87188B8D898033A1F460E9C6
:1011400071E080E090E00E94F80F212F4C855D85D2
:101150006E857F8588890E941301811107C087E011
:1011600080939C0203C0812F0E94500165960FB6A8
:10117000F894DEBF0FBECDBFDF91CF911F910F91CD
:1011800008950F931F93CF93DF93CDB7DEB76C977E
:101190000FB6F894DEBF0FBECDBF40E050E0BA01FD
:1011A000CE0147960E941F1881E792E00E94ED024F
:1011B00060919C02603109F46AC088F4663038F4AA
:1011C000643070F5613089F1623051F1A7C0673049
:1011D00039F1683009F0A2C00E9477069FC06938D3
:1011E00009F492C088F4603409F481C0603809F4CD
:1011F00065C0603209F092C060E072E081E792E081
:101200000E94460280E888C0613C09F480C06A3FC1
:1012100009F467C06B3A09F081C00E946F087BC077
:1012200081E792E00E94D80179C08B8D1F928F9345
:101230008A8D1F928F938F8990E08053984F9F9350
:101240008F93888D1F928F93898D1F928F9386ED38
:1012500091E09F938F938E010F5F1F4F1F930F930A
:101260000E949D1FB80181E792E00E942A028AE550
:1012700092E00E94C3040FB6F894DEBF0FBECDBF4C
:10128000882311F088E048C00E94FC0747C06FEE39
:1012900071E081E792E00E9446026EE672E0CE01C4
:1012A00001960E94110586E0FE013196AFE8B2E09A
:1012B00001900D928A95E1F780E22EC00E94E5062A
:1012C0006EE672E0CE0101960E94110586E0FE01F5
:1012D0003196A9E8B2E001900D928A95E1F78AEF84
:1012E0001BC00E94B8068823C9F080E415C064E1E1
:1012F00072E081E792E00E9446020E94AA0681E71E
:1013000092E00E94190307C00E94DF0704C08EE626
:1013100092E00E947D0581E080939C026C960FB65E
:10132000F894DEBF0FBECDBFDF91CF911F910F911B
:10133000089540E050E0BA018FE892E00E941F1843
:1013400040E050E0BA0189E892E00E941F1822E0D4
:1013500040E167E281E792E00E9493018FE692E02C
:101360000E943C038EE692E00E94E0048AE592E04F
:101370000C94830441505109FC01E40FF51FDB017B
:10138000AD01461B570B421753071CF441914D9377
:10139000F7CF37FF02C020E030E0FC01E20FF31F7F
:1013A00010820895FC01918D228D892F90E0805C40
:1013B0009F4F821B91098F7399270895FC01918D8E
:1013C000828D981731F0828DE80FF11D858D90E0A8
:1013D00008958FEF9FEF0895FC01918D828D9817EE
:1013E00061F0828DDF01A80FB11D5D968C91928D09
:1013F0009F5F9F73928F90E008958FEF9FEF089506
:10140000FC01538D448D252F30E0842F90E0821B0A
:10141000930B541710F0CF960895019708958FE617
:101420009BE0892B49F080E090E0892B29F00E9415
:101430006F0B81110C9400000895FC01848DDF0175
:10144000A80FB11DA35ABF4F2C91848D90E0019637
:101450008F739927848FA689B7892C93A089B18926
:101460008C91837080648C93938D848D981306C0C7
:101470000288F389E02D80818F7D80830895EF922B
:10148000FF920F931F93CF93DF93EC0181E0888F3E
:101490009B8D8C8D981305C0E889F989808185FD25
:1014A00026C0F62E0B8D10E00F5F1F4F0F73112714
:1014B000E02E8C8DE8120CC00FB607FCFACFE8893D
:1014C000F989808185FFF5CFCE010E941D0AF1CFF9
:1014D0008B8DFE01E80FF11DE35AFF4FF0829FB79D
:1014E000F8940B8FEA89FB89808180620AC09FB7DC
:1014F000F894EE89FF896083E889F9898081837097
:10150000806480839FBF81E090E0DF91CF911F9145
:101510000F91FF90EF900895CF93DF93EC01888DAA
:101520008823C9F0EA89FB89808185FD05C0A889E7
:10153000B9898C9186FD0FC00FB607FCF5CF80816D
:1015400085FFF2CFA889B9898C9185FFEDCFCE01B7
:101550000E941D0AE7CFDF91CF910895CF92DF92CD
:10156000EF92FF921F93CF93DF93EC016A017B010F
:10157000122FE889F98982E080834115514E610577
:101580007105B1F060E079E08DE390E0A70196018C
:101590000E94AD1EDA01C9010197A109B109B695F2
:1015A000A795979587959C01211580E13807A8F0AC
:1015B000E889F989108260E874E88EE190E0A7017B
:1015C00096010E94AD1EDA01C9010197A109B10976
:1015D000B695A795979587959C01EC85FD853083F9
:1015E000EE85FF852083188EEC89FD891083EA89BA
:1015F000FB89808180618083EA89FB8980818860A2
:101600008083EA89FB89808180688083EA89FB89FD
:1016100080818F7D8083DF91CF911F91FF90EF902C
:10162000DF90CF90089580E090E0089508951F9294
:101630000F920FB60F9211242F938F939F93EF93D6
:10164000FF93E091AD02F091AE028081E091B30290
:10165000F091B40282FD12C090818091B6028F5F3A
:101660008F732091B702821751F0E091B602F0E03B
:10167000E356FD4F958F8093B60201C08081FF91A4
:10168000EF919F918F912F910F900FBE0F901F9010
:1016900018951F920F920FB60F9211242F933F931C
:1016A0004F935F936F937F938F939F93AF93BF936A
:1016B000EF93FF938DE992E00E941D0AFF91EF9155
:1016C000BF91AF919F918F917F916F915F914F915A
:1016D0003F912F910F900FBE0F901F9018958DE99D
:1016E00092E00E94D20921E0892B09F420E0822FA8
:1016F0000895EDE9F2E01382128288EE93E0A0E013
:10170000B0E084839583A683B78382E292E09183DD
:10171000808385EC90E09587848784EC90E09787C0
:10172000868780EC90E0918B808B81EC90E0938BAE
:10173000828B82EC90E0958B848B86EC90E0978B8B
:10174000868B118E128E138E148E089508950E942A
:101750003F100E94A60B0E94EE05CFE0DAE00E9447
:10176000C1082097E1F30E940F0AF9CFCF92DF92D0
:10177000EF92FF920F931F93CF93DF936C017A0147
:101780008B01C0E0D0E0CE15DF0581F0D8016D916E
:101790008D01D601ED91FC910190F081E02DC60103
:1017A0000995892B11F02196EECF7E01C701DF91BB
:1017B000CF911F910F91FF90EF90DF90CF90089500
:1017C000EF92FF920F931F93CF93DF938C017B01D6
:1017D000C0E0D0E0F701EC0FFD1F6491662361F0DB
:1017E000D801ED91FC910190F081E02DC80109959F
:1017F000892B11F02196EECFCE01DF91CF911F9171
:101800000F91FF90EF9008950C9427030F931F936F
:10181000CF93DF93EC010E94C70F688779878A878F
:101820009B87E881F9810284F385E02DCE0109953B
:1018300097FF17C00E94C70F088519852A853B8529
:10184000DC01CB01801B910BA20BB30B0C811D8122
:101850002E813F8180179107A207B30710F38FEF06
:101860009FEFDF91CF911F910F910895AF92BF929B
:10187000CF92DF92EF92FF920F931F93CF93DF935C
:1018800021153105C1F089015C016A01C0E0D0E099
:10189000E62EF12CC5010E94060C97FD0FC08E1597
:1018A0009F0561F0F60181936F0121960C171D07CA
:1018B00089F7C80104C080E090E001C0CE01DF914B
:1018C000CF911F910F91FF90EF90DF90CF90BF903D
:1018D000AF9008954F925F926F927F928F929F92F6
:1018E000AF92BF92CF92DF92EF92FF920F931F932E
:1018F000CF93DF9300D000D01F92CDB7DEB78B011E
:1019000029013A0190910001891721F09F3F09F0C8
:101910004DC205C0EEE8F0E024912D8384C0809391
:101920000001EEE8F0E094919D839F3F09F43EC2F0
:10193000913009F44DC058F1923009F074C0109202
:10194000B0001092B1009091B00092609093B000FE
:101950009091B10091609093B100282F30E0F9018F
:10196000E954FF4FE491F0E0EE0FFF1FEB52FF4F01
:101970004591549150933C0340933B03F901ED553D
:10198000FF4FE491E0933A0392E09D830BC214BCB5
:1019900015BC94B5926094BD95B5916095BD282F06
:1019A00030E0F901E954FF4FE491F0E0EE0FFF1F42
:1019B000EB52FF4F4591549150934A034093490392
:1019C000F901ED55FF4FE491E09348031D82EAC110
:1019D0001092800010928100909181009860909305
:1019E000810090918100916090938100282F30E0D8
:1019F000F901E954FF4FE491F0E0EE0FFF1FEB52C5
:101A0000FF4F459154915093430340934203F90192
:101A1000ED55FF4FE491E093410361E00E94A31074
:101A200021E02D8389C02D8127FDC0C161E00E9486
:101A3000A3108D818D7F09F07FC04801A12CB12CAE
:101A400060E072E18AE790E0A50194010E94CF1E58
:101A500029833A834B835C8369017A0181E0C81A48
:101A6000D108E108F1089FEFC916D104E104F1049F
:101A700009F008F44EC060E472E48FE090E0A50144
:101A800094010E94CF1E69017A0181E0C81AD10831
:101A9000E108F1089D81923009F52FEFC216D104BB
:101AA000E104F10409F008F444C160E970ED83E059
:101AB00090E0A50194010E94CF1E69017A0181E0A6
:101AC000C81AD108E108F1089FEFC916D104E10452
:101AD000F10411F008F0BAC083E027C02FEFC2165E
:101AE000D104E104F104B9F0B0F068E478EE81E0EB
:101AF00090E0A50194010E94CF1E69017A0181E066
:101B0000C81AD108E108F1089D81992309F413C18D
:101B1000DCC081E001C082E09D81911106C095B5D5
:101B2000987F892B85BD44C085E09091B100987F56
:101B3000892B8093B1003CC04801A12CB12C60E0FE
:101B400072E18AE790E0A50194010E94CF1E69012D
:101B50007A0181E0C81AD108E108F108C114D10462
:101B600091E0E906F10488F068E478EE81E090E025
:101B7000A50194010E94CF1E69017A0181E0C81A73
:101B8000D108E108F10883E001C081E09D81913036
:101B900079F490918100987F892B80938100411482
:101BA00051046104710449F42FEF3FEFA9012CC0E7
:101BB000411451046104710471F0D801AA0FBB1FD4
:101BC000A30192010E94031F28EE33E040E050E0A1
:101BD0000E94AD1E03C02FEF3FEFA9018D81813020
:101BE00099F0823019F18111E1C0C7BC20934B03F9
:101BF00030934C0340934D0350934E0380916E00FD
:101C0000826080936E00D2C0D0928900C09288001A
:101C10002093440330934503409346035093470376
:101C200080916F00826080936F00C0C0C092B3004B
:101C300020933D0330933E0340933F035093400372
:101C400080917000826080937000B0C068E478EE8C
:101C500081E090E0A50194010E94CF1E69017A0104
:101C600091E0C91AD108E108F1082FEFC216D1049A
:101C7000E104F10441F138F164E274EF80E090E0B6
:101C8000A50194010E94CF1E69017A0181E0C81A62
:101C9000D108E108F1089FEFC916D104E104F1046D
:101CA00009F008F441CF62E17AE780E090E0A50115
:101CB00094010E94CF1E69017A0181E0C81AD108FF
:101CC000E108F10819C084E030CF2FEFC216D1042B
:101CD000E104F10409F008F463C062E17AE780E00E
:101CE00090E0A50194010E94CF1E69017A0191E064
:101CF000C91AD108E108F1088FEFC816D104E10430
:101D0000F104A9F0A0F089819A81AB81BC812AE01D
:101D1000B595A795979587952A95D1F76C017D0183
:101D200021E0C21AD108E108F10887E0FECE86E082
:101D3000FCCE82E0FACE8FEFC816D104E104F104A4
:101D400069F160F162E17AE780E090E0A501940139
:101D50000E94CF1E69017A0191E0C91AD108E108F9
:101D6000F1082FEFC216D104E104F104A9F0A0F0AC
:101D700089819A81AB81BC813AE0B595A795979509
:101D800087953A95D1F76C017D0121E0C21AD108FF
:101D9000E108F10885E0C3CE84E0C1CE83E0BFCE88
:101DA00084E0BACE61E00E94A31047CE0F900F905E
:101DB0000F900F900F90DF91CF911F910F91FF9097
:101DC000EF90DF90CF90BF90AF909F908F907F90DB
:101DD0006F905F904F900895813039F018F0823005
:101DE00051F0089510926E00089580916F008D7FDC
:101DF00080936F000895809170008D7F80937000B4
:101E000081E08093B0008091B100887F84608093EE
:101E1000B1001092B3000895CF93C82F80910001B4
:101E2000C81307C0EEE8F0E084919FEF90930001A3
:101E300001C08FEF0E94EC0E60E08C2FCF910C94CC
:101E4000DF101F920F920FB60F9211242F933F9322
:101E50004F935F936F937F938F939F93AF93BF93B2
:101E6000EF93FF9380913D0390913E03A0913F0338
:101E7000B0914003892B8A2B8B2B51F190913A031F
:101E8000E0913B03F0913C0380818927808380911E
:101E90003D0390913E03A0913F03B091400318167B
:101EA00019061A061B06C4F480913D0390913E0367
:101EB000A0913F03B09140030197A109B10980931C
:101EC0003D0390933E03A0933F03B093400304C0AF
:101ED000809100010E940C0FFF91EF91BF91AF9193
:101EE0009F918F917F916F915F914F913F912F9132
:101EF0000F900FBE0F901F9018951F920F920FB664
:101F00000F9211242F933F938F939F93AF93BF937F
:101F10008091500390915103A0915203B0915303CB
:101F200030914F0323E0230F2D3720F40196A11D9C
:101F3000B11D05C026E8230F0296A11DB11D2093F7
:101F40004F038093500390935103A0935203B09397
:101F500053038091540390915503A0915603B0917F
:101F600057030196A11DB11D80935403909355030F
:101F7000A0935603B0935703BF91AF919F918F9158
:101F80003F912F910F900FBE0F901F9018952FB774
:101F9000F894609150037091510380915203909195
:101FA00053032FBF08953FB7F89480915403909145
:101FB0005503A0915603B091570326B5A89B05C0C1
:101FC0002F3F19F00196A11DB11D3FBFBA2FA92FB8
:101FD000982F8827820F911DA11DB11DBC01CD0135
:101FE00042E0660F771F881F991F4A95D1F7089521
:101FF0008F929F92AF92BF92CF92DF92EF92FF9219
:102000006B017C010E94D30F4B015C01C114D10410
:10201000E104F10401F10E94751C0E94D30FDC0160
:10202000CB0188199909AA09BB09883E9340A105EB
:10203000B10560F321E0C21AD108E108F10888EE89
:10204000880E83E0981EA11CB11CC114D104E104C8
:10205000F10419F7DBCFFF90EF90DF90CF90BF90A6
:10206000AF909F908F9008958230910538F0880F3F
:10207000991F880F991F05970197F1F70895789494
:1020800084B5826084BD84B5816084BD85B582607D
:1020900085BD85B5816085BDEEE6F0E0808181601B
:1020A0008083E1E8F0E0108280818260808380811B
:1020B00081608083E0E8F0E0808181608083E1EBF3
:1020C000F0E0808184608083E0EBF0E080818160DB
:1020D0008083EAE7F0E08081846080838081826091
:1020E000808380818160808380818068808310927A
:1020F000C1000895833081F028F4813099F0823056
:10210000A1F008958730A9F08830B9F08430D1F477
:10211000809180008F7D03C0809180008F778093B5
:102120008000089584B58F7702C084B58F7D84BD0B
:1021300008958091B0008F7703C08091B0008F7DAB
:102140008093B0000895CF93DF9390E0FC01ED55AC
:10215000FF4F2491FC01E954FF4F8491882361F1E2
:1021600090E0880F991FFC01E152FF4FC591D49177
:10217000FC01EB52FF4FA591B491611109C09FB7CB
:10218000F8948881209582238883EC912E230BC0BC
:10219000623061F49FB7F8948881322F30958323A1
:1021A0008883EC912E2B2C939FBF06C08FB7F89499
:1021B000E8812E2B28838FBFDF91CF9108951F9345
:1021C000CF93DF93282F30E0F901E157FF4F84913F
:1021D000F901ED55FF4FD491F901E954FF4FC49136
:1021E000CC23C1F0162F81110E947A10EC2FF0E061
:1021F000EE0FFF1FEB52FF4FA591B4919FB7F894DC
:10220000111104C08C91D095D82302C0EC91DE2B23
:10221000DC939FBFDF91CF911F910895CF93DF9300
:10222000282F30E0F901E157FF4F8491F901ED5576
:10223000FF4FD491F901E954FF4FC491CC2391F0A1
:1022400081110E947A10EC2FF0E0EE0FFF1FE55392
:10225000FF4FA591B491EC91ED2381E090E021F442
:1022600080E002C080E090E0DF91CF910895FC0112
:102270001382128284E392E091838083138608950F
:102280001F93CF93DF93EC01162F6C818CE593E0C5
:102290000E94E51B6B85612B8CE593E00E94941BEB
:1022A0008CE593E0DF91CF911F910C946E1CFC01A3
:1022B000138660E00C94401128E0FC01238760E065
:1022C0000C9440110F931F93CF938C01C62F646021
:1022D0000E94401181E090E00E9434106C2F6B7FCF
:1022E000C8010E94401182E390E0CF911F910F91AD
:1022F0000C9434101F93CF93DF93EC01162F0E94A0
:102300004011612FCE01DF91CF911F910C9462118A
:102310000F931F93CF93DF938C01C62FD42F607F31
:10232000642B0E947A1180E1C89FB00111246D2BAB
:10233000C801DF91CF911F910F910C947A1140E069
:102340000C94881161E00E949F1180ED97E00C943D
:10235000341062E00E949F1180ED97E00C943410DD
:10236000CF93DF93CDB7DEB728970FB6F894DEBFD3
:102370000FBECDBF9C0188E0E1E0F1E0DE011196E7
:1023800001900D928A95E1F7F9018085841710F488
:102390004FEF480FFE013196E40FF11DE40FF11DE0
:1023A0009081690F6068C90128960FB6F894DEBF66
:1023B0000FBECDBFDF91CF910C949F11FC016681C0
:1023C000262F246026836C600C949F1141E00E94AC
:1023D000881181E090E00895CF93DF93EC014230C3
:1023E00018F08D8188608D834887222329F0413041
:1023F00019F48D8184608D8362E370E080E090E069
:102400000E94F80F6B85CE010E94401168EE73E0C8
:1024100080E090E00E94F80F60E3CE010E947A1104
:1024200084E991E10E94341060E3CE010E947A11A8
:1024300084E991E10E94341060E3CE010E947A1198
:1024400086E990E00E94341060E2CE010E947A1189
:102450006D816062CE010E949F1184E08E83CE0167
:102460000E94DE11CE010E94A21182E08F8366E0FD
:10247000CE010E949F11CE01DF91CF910C94A91142
:10248000CF93DF93EC018CE593E00E94D31B1D8278
:1024900020E04A856985CE01DF91CF910C94EC1143
:1024A000FC016483418722870C944012BC016E5F5B
:1024B0007F4FDC01ED91FC910190F081E02D40E037
:1024C000099591E0811190E0892F089520915A0398
:1024D000222399F04FB7F89420915A03213059F4F0
:1024E0002DB3209358033DB3209159032095232306
:1024F0002DBB4FBF02C0409358038CBD9DBD0895B6
:102500008EBD00000DB407FEFDCF8EB508958091FD
:102510005A03882361F09FB7F89420915A03809161
:102520005803213019F48DBB9FBF08958FBF0895C4
:10253000AF92BF92CF92DF92EF92FF920F931F93D1
:10254000CF93DF936C01A42E79016068B62E83E5EA
:1025500090E00E94661260E0F60186850E94DF101E
:10256000AA948B2D0E9480120023A1F0CFEFD0E01F
:1025700001C0CC0F0A95EAF78B2D0E9480122C2FF8
:102580002095F701908192238C23892BF70180837A
:1025900011E001C010E0812F90E0E701C80FD91FC2
:1025A0001A1530F48B2D0E94801288831F5FF3CFA1
:1025B00080E00E948012888361E0F60186850E9497
:1025C000DF10DF91CF911F910F91FF90EF90DF907F
:1025D000CF90BF90AF900C948712FC0180E492E002
:1025E000918380838AE086878FEF87870895FC0137
:1025F00080E492E0918380836687478708950F93F4
:102600001F93CF93DF93EC01062F142F83E590E007
:102610000E94661260E08E850E94DF10802F0E946B
:102620008012812F0E94801261E08E850E94DF104F
:10263000DF91CF911F910F910C948712DF92EF924F
:10264000FF920F931F93CF93DF938C01C62FF42E2D
:10265000D22EE32E83E590E00E94661260E0F8013E
:1026600086850E94DF108C2F0E948012CD2DDE2DDA
:10267000CE018F0D911D7C01EC16FD0621F0899194
:102680000E948012F9CF61E0F80186850E94DF1078
:10269000DF91CF911F910F91FF90EF90DF900C94FD
:1026A00087121F93CF93DF93EC01162F83E590E001
:1026B0000E94661260E08E850E94DF10812F806884
:1026C0000E94801280E00E948012182F61E08E85A7
:1026D0000E94DF100E948712812FDF91CF911F91FE
:1026E00008950F9341110E9498120F9108950F932E
:1026F0001F93CF93DF938C01D62FC42F0E945113C9
:10270000482F4C2B6D2FC801DF91CF911F910F9156
:102710000C94FF120F931F93CF93DF938C01D62F4E
:10272000C42F0E945113C0954C2F48236D2FC80110
:10273000DF91CF911F910F910C94FF12CF92DF92F6
:10274000EF92FF920F931F93CF93DF93EC016B01F6
:10275000142F790140E062E00E94FF1244E06AE039
:10276000CE010E94FF1240E864E1CE010E94FF12F8
:102770009601412F62E1CE010E941E1343E062E008
:10278000CE010E94FF1208E813E16AE0CE010E9428
:10279000511382FF13C040E062E0CE010E94FF129D
:1027A00064E4CE010E945113F701808362E4CE01FC
:1027B0000E945113F701818380E004C00150110988
:1027C00021F783E0DF91CF911F910F91FF90EF9060
:1027D000DF90CF9008950F931F93CF938C014FE01C
:1027E00062E00E94FF12C3E062E370E080E090E0EC
:1027F0000E94F80F62E0C8010E94511384FF02C0DA
:10280000C15091F7CF911F910F910895CF93DF930E
:10281000EC0168E20E945113982F9370933041F0BD
:10282000482F436068E2CE01DF91CF910C94FF12F4
:10283000DF91CF910895CF93DF93EC0161E08E8516
:102840000E94A31061E08E850E94DF108F858F3F6C
:1028500009F451C060E00E94A3108F850E940E1100
:10286000892B09F048C061E08F850E94A31060E0C9
:102870008F850E94DF1082E090E00E94341061E0BA
:102880008F850E94DF1062E370E080E090E00E949C
:10289000F80F40E064E2CE010E94FF1240E066E2E1
:1028A000CE010E94FF1246E268E4CE010E94FF12B0
:1028B00040E864E5CE010E94FF1249EA66E5CE01D8
:1028C0000E94FF1243E068E5CE010E94FF1248EE2D
:1028D0006AE5CE010E94FF1240E46AE2CE010E9446
:1028E000FF124DE362E2CE010E94FF12CE01DF91A2
:1028F000CF910C940614CE010E94EB13CACF6CE466
:102900000E945113807708950F931F93CF938C01EA
:10291000C62F0E947F148C1771F040E76CE4C80149
:102920000E948A134C2F40776CE4C801CF911F910D
:102930000F910C947713CF911F910F9108953F92AF
:102940004F925F926F927F928F929F92AF92BF92BF
:10295000CF92DF92EF92FF920F931F93CF93DF936B
:1029600000D0CDB7DEB73C01162F942E2901A1145B
:10297000B10419F0F501408101C040E0342EF0E1CE
:102980008F9E300C112440E062E0C3010E94FF12D0
:102990004FE768E0C3010E94FF1240E864E1C30111
:1029A0000E94FF129201402F62E1C3010E941E1398
:1029B000432D6AE1C3010E94FF12412F62E0C3016F
:1029C0000E94FF121C3029F440E86AE1C3010E9412
:1029D000771300ED17E068E0C3010E945113982FB0
:1029E000992139F480FD03C001501109A1F783E05A
:1029F00065C06CE0C3010E945113182F837109F068
:102A00005AC0E114F104F9F0C114D104E1F064E119
:102A1000C3010E945113F6019081981708F445C034
:102A20008083082D9701482F62E1C3010E94711332
:102A300068E1C3010E9451138770A114B10421F011
:102A4000F501808301C080E013FD31C0E114F10481
:102A500081F1C114D10469F19E89992351F1F601E4
:102A60004081413021F4843041F58FEF27C042305E
:102A700020F1811122C042509E012F5F3F4FB701CC
:102A8000C3010E949E13811119C0F6018081E80ED6
:102A9000F11CF70132979081898198130EC031960D
:102AA00090818A81981309C004C084E007C082E045
:102AB00005C080E003C081E001C087E00F900F9067
:102AC000DF91CF911F910F91FF90EF90DF90CF900A
:102AD000BF90AF909F908F907F906F905F904F903E
:102AE0003F9008958F92AF92BF92CF92DF92EF9274
:102AF000FF920F931F93AF928C2C570168017901BD
:102B0000042F9B0140E36CE00E949F140F901F91E3
:102B10000F91FF90EF90DF90CF90BF90AF908F908C
:102B200008952F923F924F925F926F927F928F9271
:102B30009F92AF92BF92CF92DF92EF92FF920F934C
:102B40001F93CF93DF93CDB7DEB72C970FB6F894D2
:102B5000DEBF0FBECDBF413508F005C1342E3B01AD
:102B60004C0140E86CE10E948A132224239432E055
:102B7000231691F083E02816E1F091E02912F7C0C6
:102B800083E989833320D1F081E0F301908195308E
:102B900008F480E0B12C17C0F5E9F983332081F007
:102BA00081E0F3019081983008F480E043E0B42E96
:102BB0000AC087E9898336E0B32E04C0B12C02C075
:102BC00023E0B22E80E0D32CF8E0BF9ED018112471
:102BD000D7FCD12C882321F098E89B8333E001C0F7
:102BE00032E021E09D2D977009F420E09D2D959510
:102BF00095959595290F31F4882309F491C038E013
:102C0000D30E8EC0811102C094E001C093E0291759
:102C100008F4922FEB2DF0E03196E60DF71D232FEF
:102C20004191A1E0B0E0AC0FBD1FA20FB11D4C93CC
:102C30002F5F422F431B491798F3DECF8111DDC070
:102C40009FE19D150CF495C080E2D82E90E79A8301
:102C50009B818C8189279D8189279E8189278F83EC
:102C60009E01285F3F4F47E0BE016F5F7F4FC40169
:102C70000E949E138111C1C01B86E3E0EA87CE014A
:102C800007962C0199E09C87CB844C2D4295407F80
:102C90004C0D6AE1C4010E94FF12A12CCE010B96DB
:102CA0007C018E01065F1F4F92014C85BE016F5F54
:102CB0007F4FC4010E947215823009F0BFCF6CE1D2
:102CC000C4010E94511385FD50C08F7109F480E248
:102CD000282F30E04D2DDD0C550B421753070CF01B
:102CE00046C0D82E85958595859591E0980F422F01
:102CF000477081E009F480E0890FE1E0F0E0EC0F3B
:102D0000FD1FE80FF11D215031092770332781E0A5
:102D100090E001C0880F2A95EAF79081892B808383
:102D20008FE18D150CF492CF9D2D97709B878D2D83
:102D30008595859585958E5F292FE0E18E9F200DE5
:102D400011242A8321E0911101C020E0280F2C8753
:102D500044244394512C4C0E5D1E480E511CF9E046
:102D6000F81BFA8791CF86E048C082E046C085E034
:102D700044C08B818838F1F182E094E0EB2DF0E0E3
:102D80003196E60DF71D980FA1E0B0E0AC0FBD1F26
:102D9000A80FB11D2C9121938F5F9813F5CF8A85D1
:102DA000833021F58B85811121C09E012D5F3F4F1E
:102DB00041E0B201C4010E949E1381111EC09B819B
:102DC000F2018181981314C09C818281981310C0F4
:102DD000808182FF02C02394CACEF3018387822DB3
:102DE000880F820D8F5F808380E007C081E005C07F
:102DF00087E003C083E093E0C1CF2C960FB6F89430
:102E0000DEBF0FBECDBFDF91CF911F910F91FF901D
:102E1000EF90DF90CF90BF90AF909F908F907F907A
:102E20006F905F904F903F902F9008954F925F92D8
:102E30006F927F928F929F92AF92CF92EF92FF927A
:102E40000F931F93CF93DF9300D0CDB7DEB76A8384
:102E50004115510539F1F9016081623018F14901DC
:102E60002A013C0140E86CE10E948A1387E08983D3
:102E7000A12CC12CCE0101967C018401920141E07C
:102E8000BE016E5F7F4FC3010E94721581110DC09C
:102E9000F4018081823041F481E09981911105C073
:102EA00080E003C084E001C081E00F900F90DF91CB
:102EB000CF911F910F91FF90EF90CF90AF909F9087
:102EC0008F907F906F905F904F9008959A01AB0123
:102ED00066E20C9416170F931F93CF93DF9300D0E5
:102EE0001F92CDB7DEB78C0182E08B8340E064E2B5
:102EF000C8010E94FF1240E066E2C8010E94FF1272
:102F000046E268E4C8010E94FF12AE014D5F5F4FC8
:102F1000BE016F5F7F4FC8010E946617982F81E046
:102F2000992319F0923009F080E00F900F900F90E4
:102F3000DF91CF911F910F9108958F929F92AF9241
:102F4000CF92EF92FF920F931F93CF93DF9300D016
:102F500000D0CDB7DEB74C0180E589831A829E018F
:102F60002D5F3F4F42E0BE016F5F7F4FC4010E9463
:102F70009E13811116C0A12CC12CE12CF12C00E074
:102F800010E020E030E044E0BE016F5F7F4FC401FD
:102F90000E947215833021F0811103C081E001C0CD
:102FA00080E00F900F900F900F90DF91CF911F91C5
:102FB0000F91FF90EF90CF90AF909F908F900895DA
:102FC000803D27E0920710F0805D974050E0E9EEE9
:102FD000F0E021E0261730F43491430F511D2F5FAC
:102FE0003196F8CF633038F09C0123703327232BC0
:102FF00011F44F5F5F4FBC016D5F7F4F7695679512
:1030000076956795EDE6F1E08E9F90018F9F300DEC
:103010009E9F300D1124C9010197860F971F840FC1
:10302000951F0895FC01908190539A3008F090E02C
:10303000818180532AE0929F800D112408958F9200
:103040009F92AF92BF92CF92DF92EF92FF92CF9377
:10305000DF93EC016A017B0180E8C81A83E4D80A97
:103060008DE6E80A88E3F80A8CE3882E912CA12CDF
:10307000B12CC701B601A50194010E94AD1E6D835C
:10308000CA01B901A50194010E94AD1E6C83C7015C
:10309000B60120E13EE040E050E00E94AD1ECA01D2
:1030A000B90128E130E040E050E00E94AD1E6B83A2
:1030B000C701B60120E831E541E050E00E94AD1EB5
:1030C00018824881542F537081E009F080E090E02D
:1030D000BC0163597E4F2617370738F0281B390B80
:1030E0002D5631404F5F4883ECCF81E08983898141
:1030F000E82FF0E0E851FF4FE491511103C0823016
:1031000009F4EF5FF0E02E173F0720F02E1B3F0B76
:103110008F5FECCF2F5F2A83DF91CF91FF90EF90ED
:10312000DF90CF90BF90AF909F908F900895CF92F7
:10313000EF920F93FC01603D87E0780710F0605D2F
:1031400077406083418322830383E482C5820F91A9
:10315000EF90CF900895EF92FF920F931F93CF932C
:10316000DF93CDB7DEB72B970FB6F894DEBF0FBE57
:10317000CDBF8C017A014BE050E0CE0101960E9458
:103180002C1FCE010A960E941218F8018083E98153
:103190008E2F90E0FC01E154F109E331F10548F58F
:1031A000EC5CFF4F0C94EE1E8A81813639F08B81E6
:1031B0008E3611F087E01BC086E019C081E017C091
:1031C00082E015C08B81823711F088E010C084E066
:1031D0000EC08B81823711F085E009C083E007C003
:1031E00089E005C08AE003C08BE001C08CE0F801F3
:1031F0008183CE0105960E941218F801828348E06F
:1032000050E0B701CE0101960E942C1FCE0101961D
:103210000E941218F8018383CE0104960E941218AE
:10322000F8018483CE0107960E941218F801858365
:103230002B960FB6F894DEBF0FBECDBFDF91CF91B6
:103240001F910F91FF90EF900895EF92FF920F93CF
:103250001F93CF93DF93EC0188814A81698190E0CD
:103260000E94E0179C01A8E1B0E00E94F41E2B81AF
:103270007B018C01E20EF11C011D111DA8019701BB
:10328000ACE3B0E00E94031F2C817B018C01E20EB5
:10329000F11C011D111DA80197010E94031F2D8122
:1032A000DC01CB01820F911DA11DB11DBC01CD011F
:1032B00060587C4B8249974CDF91CF911F910F91C1
:1032C000FF90EF900895CF92DF92EF92FF920F93CD
:1032D0001F93CF93DF93EC01CB018A010E94251944
:1032E0006B017C01C8010E942519C61AD70AE80A99
:1032F000F90AC882D982EA82FB82CE01DF91CF919E
:103300001F910F91FF90EF90DF90CF9008958CE583
:1033100093E00E94D31B81E00895CF92DF92EF9259
:10332000FF920F931F93CF93DF93EC0168E670E059
:103330008CE593E00E94EF1B60E08CE593E00E9437
:10334000941B8CE593E00E946E1C47E050E068E619
:1033500070E08CE593E00E946B1C8CE593E00E948A
:103360000D1B8F77982F92959F701AEF082F919FC2
:10337000000D11248CE593E00E940D1B9C01332766
:1033800094E0359527959A95E1F7F82E129FF00C69
:1033900011248CE593E00E940D1B9C01332744E02F
:1033A000359527954A95E1F7E82E129FE00C1124F8
:1033B0008CE593E00E940D1B8CE593E00E940D1BB1
:1033C0009C01332754E0359527955A95E1F7D82E7F
:1033D000129FD00C11248CE593E00E940D1B9C01E0
:1033E000332764E0359527956A95E1F7C82E129F3B
:1033F000C00C11248CE593E00E940D1B9C01332727
:1034000074E0359527957A95E1F7129F800D112488
:103410008883C982DA82EB82FC820D83CE01DF9140
:10342000CF911F910F91FF90EF90DF90CF90089573
:10343000CF93C82F68E68CE593E00E94E51B6C2FC4
:103440008CE593E00E94941B8CE593E00E946E1C37
:1034500041E068E68CE593E00E94681C8CE593E00F
:103460000E940D1BCF9108950F931F93CF938C0152
:1034700068E670E08CE593E00E94EF1B60E08CE56D
:1034800093E00E94941BF8012581CAE0822F6C2FE3
:103490000E94A11E682F660F860F880F682F620F8B
:1034A0008CE593E00E94941BF8012481822F6C2FFD
:1034B0000E94A11E682F660F860F880F682F620F6B
:1034C0008CE593E00E94941BF8012381822F6C2FDE
:1034D0000E94A11E682F660F860F880F682F620F4B
:1034E0008CE593E00E94941B60E08CE593E00E94E1
:1034F000941BF8012281822F6C2F0E94A11E682F3D
:10350000660F860F880F682F620F8CE593E00E948C
:10351000941BF8012181822F6C2F0E94A11E682F1D
:10352000660F860F880F682F620F8CE593E00E946C
:10353000941BF8012081822F6C2F0E94A11E682FFE
:10354000660F860F880F682F620F8CE593E00E944C
:10355000941B8CE593E00E946E1C8FE00E94181A69
:10356000C82F68E68CE593E00E94E51B6FE08CE5D0
:1035700093E00E94941B6C2F6F778CE593E00E9480
:10358000941B8CE593E0CF911F910F910C946E1CCE
:103590008FE00E94181A87FB882780F90895CF933F
:1035A000CFB7F89480915B03811127C0E1ECF0E084
:1035B0008491EDEAF0E09491E82FF0E0EE0FFF1F28
:1035C000E152FF4FA591B491EC91E92321F461E020
:1035D0008AE00E94DF1061E08AE00E94A3108CB5AF
:1035E00080618CBD8CB580648CBD61E08DE00E94F3
:1035F000A31061E08BE00E94A31080915B038F5FBA
:1036000080935B03CFBFCF9108958091900390E0AA
:1036100020919103821B91090895909191038091CB
:103620009003981750F4E92FF0E0EE56FC4F2081FC
:1036300030E09F5F9093910302C02FEF3FEFC901ED
:103640000895E091910380919003E81730F4F0E041
:10365000EE56FC4F808190E008958FEF9FEF089524
:103660000895CF93DF93EC01E0916803F091690333
:103670003097F1F090919103809190039817C0F0EA
:1036800090E0292F30E02617370754F4DE01A20F0F
:10369000B31F4C91D901AE56BC4F4C939F5FF1CFF5
:1036A0001092910360939003CB01DF91CF91099425
:1036B000DF91CF910895E0916A03F0916B03309709
:1036C00029F010926E0310926D0309940895CF9221
:1036D000DF92EF92FF920F931F93CF93DF937C01C2
:1036E000CB018A0120916C03222389F0EB016B014D
:1036F000C40ED51ECC15DD0569F06991D701ED9199
:10370000FC910190F081E02DC7010995F3CF642F62
:103710000E94321DC801DF91CF911F910F91FF9040
:10372000EF90DF90CF900895CF93DF931F92CDB7A6
:10373000DEB7698320916C032223D1F020916D03C1
:10374000203240F021E030E0FC013383228380E02E
:1037500090E015C080916E03E82FF0E0E159FC4F36
:10376000998190838F5F80936E0380936D0305C072
:1037700061E0CE0101960E94321D81E090E00F9041
:10378000DF91CF910895FC011382128288EE93E0BD
:10379000A0E0B0E084839583A683B7838AE492E0B7
:1037A0009183808308951092910310929003109258
:1037B0006E0310926D030E94761C8BE59BE10E94C4
:1037C0005F1D81E39BE10C945A1D81E080936C03A3
:1037D00060938F0310926E0310926D0308950C9402
:1037E000E51B0F93062F21E040916D036FE673E018
:1037F00080918F030E94DC1C10926E0310926D0367
:1038000010926C030F9108954F925F926F927F9286
:10381000AF92BF92CF92EF92FF920F931F93CF93ED
:10382000DF935C01F62ED42F28013901EE2021F11F
:103830000E94E51BCE2DC43008F0C3E0C150C0F09B
:1038400028E0C29FC0011124A301920104C0569533
:103850004795379527958A95D2F7CA01B901D501C1
:10386000ED91FC910190F081E02DC5010995E6CF25
:1038700060E0C5010E94F11B4D2FD13208F040E2FB
:103880002C2D62E973E08F2D0E94941C10929103FD
:1038900080939003DF91CF911F910F91FF90EF9054
:1038A000CF90BF90AF907F906F905F904F900895B2
:1038B000CF92EF920F931F93C22EE12C00E010E005
:1038C00098010E94041C1F910F91EF90CF900895D2
:1038D00021E00C94581C21E00C94581C61E00C94DD
:1038E000F11B8CE593E00C94C31B089510921F0408
:1038F00081E080931D0410921C0461E082E10E942B
:10390000DF1061E083E10E94DF10E9EBF0E08081ED
:103910008E7F808380818D7F808388E48093B80050
:1039200085E48093BC000895413208F043C0909133
:103930001F049111FCCF91E090931F0420931D046C
:103940002FEF2093B2031092F703240F2093F60376
:1039500090931E0490911E04880F892B80931E045F
:1039600080911C04813061F410921C0480911E042B
:103970008093BB008091BC0083FDF8CF85EC01C033
:1039800085EE8093BC0080911F048130E1F380912B
:10399000F703841710F44091F703A8EFB3E0962FD4
:1039A000FB018E2F891B841718F48D918193F9CF19
:1039B000842F089580E008950F93413208F04AC0A3
:1039C00090911F049111FCCF32E030931F040093BB
:1039D0001D043FEF3093B2031092F7034093F603B8
:1039E000562FA8EFB3E0FB013E2F351B341718F418
:1039F00031913D93F9CF10921E0430911E04880F2F
:103A0000832B80931E0480911C04813061F41092FA
:103A10001C0480911E048093BB008091BC0083FD38
:103A2000F8CF85EC01C085EE8093BC00222321F005
:103A300080911F048230D1F38091B2038F3F79F0DF
:103A40008091B203803241F08091B203803331F033
:103A500094E005C091E003C092E001C093E0892F9B
:103A60000F9108954091D403262F30E0240F311D8B
:103A700021323105DCF420911F042430C9F4FC010B
:103A800080E090E0861758F43091D4032191DC0156
:103A9000AA52BC4FA30FB11D2C930196F3CF809176
:103AA000D403680F6093D40380E0089581E0089503
:103AB00082E00895909319048093180408959093D8
:103AC0001B0480931A04089585ED8093BC008091B7
:103AD000BC0084FDFCCF10921F04089585EC8093F8
:103AE000BC0010921F0408951F920F920FB60F9200
:103AF00011242F933F934F935F936F937F938F93F3
:103B00009F93AF93BF93EF93FF938091B900887F0A
:103B1000803609F49EC078F5883209F45DC090F4CF
:103B2000803109F456C038F4882309F4F5C0883090
:103B300009F44FC0F5C0883109F44EC0803209F451
:103B40005FC0EEC0803409F46AC058F4803309F4D1
:103B500057C0883309F0E4C08093B2030E946E1D01
:103B6000DFC0803509F44FC0883509F45DC0883462
:103B700009F0D6C0D3C0883909F4C4C0A8F4883786
:103B800009F467C038F4883609F463C0803709F453
:103B900060C0C6C0883809F4B5C0803909F45FC078
:103BA000803809F0BDC05BC0803B09F483C038F4A5
:103BB000803A09F466C0883A09F47CC0B1C0803C00
:103BC00009F4A4C0883C09F4A1C0883B09F487C06B
:103BD000A7C080911E0410C09091F7038091F60356
:103BE000981770F5E091F70381E08E0F8093F7034B
:103BF000F0E0E850FC4F80818093BB0085EC83C0EF
:103C00008093B2038BC0E091F70381E08E0F809325
:103C1000F7038091BB00F0E0E850FC4F8083909167
:103C2000F7038091F6036BC0E091F70381E08E0FFC
:103C30008093F7038091BB00F0E0E850FC4F808355
:103C400080911D0481116AC081E080931C0484EA84
:103C50005EC083E080931F041092B303CFCF8091A6
:103C6000B303803208F04EC0E091B30381E08E0FC1
:103C70008093B3038091BB00F0E0EC54FC4F808351
:103C8000BDCF0E946E1D8091B303803230F4E0916D
:103C9000B303F0E0EC54FC4F10826091B30370E08A
:103CA000E0911804F091190484EB93E009951092C7
:103CB000B30336C084E080931F041092D5031092A2
:103CC000D403E0911A04F0911B0409958091D40368
:103CD000811105C081E08093D4031092D603E09156
:103CE000D50381E08E0F8093D503F0E0EA52FC4FBC
:103CF00080818093BB009091D5038091D403981765
:103D000008F47CCF85E88093BC000AC085EC8093E2
:103D1000BC0010921F0404C01092B2030E94641DE4
:103D2000FF91EF91BF91AF919F918F917F916F9193
:103D30005F914F913F912F910F900FBE0F901F9069
:103D40001895991B79E004C0991F961708F0961BE7
:103D5000881F7A95C9F780950895A1E21A2EAA1BAB
:103D6000BB1BFD010DC0AA1FBB1FEE1FFF1FA2172B
:103D7000B307E407F50720F0A21BB30BE40BF50B28
:103D8000661F771F881F991F1A9469F760957095B1
:103D9000809590959B01AC01BD01CF010895052E42
:103DA00097FB1EF400940E94E61E57FD07D00E9468
:103DB000AD1E07FC03D04EF40C94E61E50954095C2
:103DC000309521953F4F4F4F5F4F089590958095C7
:103DD000709561957F4F8F4F9F4F0895EE0FFF1F96
:103DE0000590F491E02D0994A29FB001B39FC0010A
:103DF000A39F700D811D1124911DB29F700D811D17
:103E00001124911D08950E94F41EA59F900DB49F4A
:103E1000900DA49F800D911D11240895FC01882709
:103E20009927E89421912032E9F3293010F02E30BF
:103E3000C8F32B3241F02D3239F4689404C00E944B
:103E4000951F820F911D219120532A30C0F31EF43B
:103E5000909581959F4F0895FB01DC0102C005906C
:103E60000D9241505040D8F7089548E552E00E9425
:103E70006E1F0895FB01DC0102C001900D924150BC
:103E80005040D8F70895DC0101C06D934150504077
:103E9000E0F70895FB01DC010D900020E9F7119790
:103EA00001900D920020E1F70895FB01DC018D9156
:103EB000019080190110D9F3990B0895FB01DC01E1
:103EC0000D900020E9F711974150504028F00190E3
:103ED00000200D92C9F708951C920895FA01A1914E
:103EE000B081009719F41097E1F0CD01DC01CD010C
:103EF0000D90002011F4C00113C0FB012191222379
:103F000019F02015D9F7F3CFFB012191201519F4F1
:103F10001E92119606C02223C1F70D900020A1F732
:103F2000D001FA01A193B08308957AE0979F902D74
:103F3000879F802D910D11240895AEE0B0E0E3EA53
:103F4000FFE10C9474220D891E8986E08C831A830C
:103F500009838FEF9FE79E838D83AE01475E5F4F9E
:103F60006F89788DCE0101960E94BF1FEF81F88581
:103F7000E00FF11F10822E96E4E00C949022ABE04B
:103F8000B0E0E5ECFFE10C9466226C017B018A0154
:103F9000FC0117821682838181FFCCC1CE0101967C
:103FA0003C01F6019381F70193FD859193FF819187
:103FB0007F01882309F4BAC1853239F493FD8591D4
:103FC00093FF81917F01853229F4B60190E00E9430
:103FD000B621E7CF912C212C312CFFE1F315D8F03D
:103FE0008B3279F038F4803279F08332A1F4232DCA
:103FF00020611DC08D3261F0803369F4232D216072
:1040000016C0832D8260382EE32DE4603E2E2AC038
:10401000F32DF8601DC037FC2DC020ED280F2A308D
:1040200040F08E32B9F436FC81C1232D2064322E4B
:1040300019C036FE06C08AE0989E200D1124922EEB
:1040400011C0EAE02E9E200D1124222EF32DF062E5
:104050003F2E08C08C3621F4832D8068382E02C094
:10406000883641F4F70193FD859193FF81917F019B
:104070008111B3CF982F9F7D9554933028F40C5F16
:104080001F4F9FE399830DC0833631F0833771F062
:10409000833509F059C021C0F801808189830E5F02
:1040A0001F4F88248394912C530113C02801F2E000
:1040B0004F0E511CF801A080B18036FE03C0692D5F
:1040C00070E002C06FEF7FEFC5010E94AB214C0191
:1040D0008201F32DFF773F2E16C0280122E0420E09
:1040E000511CF801A080B18036FE03C0692D70E03C
:1040F00002C06FEF7FEFC5010E94A0214C01F32D9C
:10410000F0683F2E820133FC1BC0822D90E08816A0
:104110009906B0F4B60180E290E00E94B6212A949C
:10412000F4CFF50137FC859137FE81915F01B6012F
:1041300090E00E94B62121102A9421E0821A910871
:104140008114910471F7E8C0843611F0893641F585
:10415000F80137FE07C060817181828193810C5F15
:104160001F4F08C060817181072E000C880B990BCE
:104170000E5F1F4FF32DFF763F2E97FF09C09095DE
:104180008095709561957F4F8F4F9F4FF0683F2EC0
:104190002AE030E0A3010E94F221882E861845C053
:1041A000853731F4232D2F7EB22E2AE030E025C052
:1041B000932D997FB92E8F36C1F018F4883579F098
:1041C000B5C0803719F0883721F0B0C0E92FE06121
:1041D000BE2EB4FE0DC0FB2DF460BF2E09C034FE10
:1041E0000AC0292F2660B22E06C028E030E005C0A4
:1041F00020E130E002C020E132E0F801B7FE07C064
:1042000060817181828193810C5F1F4F06C0608144
:10421000718180E090E00E5F1F4FA3010E94F221A8
:10422000882E8618FB2DFF773F2E36FE0DC0232DDE
:104230002E7FA22E891458F434FE0BC032FC09C024
:10424000832D8E7EA82E05C0B82CA32C03C0B82CBD
:1042500001C0B92CA4FE0FC0FE01E80DF11D808144
:10426000803321F49A2D997EA92E09C0A2FE06C0A2
:10427000B394B39404C08A2D867809F0B394A3FC58
:1042800011C0A0FE06C0B21488F4280C922C9B1812
:104290000EC0B21460F4B60180E290E00E94B62134
:1042A000B394F7CFB21418F42B1802C0982C212C19
:1042B000A4FE10C0B60180E390E00E94B621A2FEE9
:1042C00017C0A1FC03C088E790E002C088E590E039
:1042D000B6010CC08A2D867859F0A1FE02C08BE28F
:1042E00001C080E2A7FC8DE2B60190E00E94B621F9
:1042F000891438F4B60180E390E00E94B6219A94C4
:10430000F7CF8A94F301E80DF11D8081B60190E0AA
:104310000E94B6218110F5CF222009F442CEB601C9
:1043200080E290E00E94B6212A94F6CFF6018681C1
:10433000978102C08FEF9FEF2B96E2E10C948222CF
:10434000FC010590615070400110D8F78095909560
:104350008E0F9F1F0895FC01615070400190011065
:10436000D8F7809590958E0F9F1F08950F931F93F8
:10437000CF93DF93FB01238121FD03C08FEF9FEFDC
:104380002CC022FF16C046815781248135814217F7
:10439000530744F4A081B1819D012F5F3F4F3183CA
:1043A00020838C93268137812F5F3F4F378326836D
:1043B00014C08B01EC01FB010084F185E02D09950F
:1043C000892BE1F6D80116968D919C91179701964D
:1043D00017969C938E931697CE01DF91CF911F91E4
:1043E0000F910895FA01AA27283051F1203181F167
:1043F000E8946F936E7F6E5F7F4F8F4F9F4FAF4FED
:10440000B1E03ED0B4E03CD0670F781F891F9A1FFF
:10441000A11D680F791F8A1F911DA11D6A0F711DB3
:10442000811D911DA11D20D009F468943F912AE0BF
:10443000269F11243019305D3193DEF6CF010895A7
:10444000462F4770405D4193B3E00FD0C9F7F6CFD8
:10445000462F4F70405D4A3318F0495D31FD4052A0
:10446000419302D0A9F7EACFB4E0A6959795879536
:1044700077956795BA95C9F7009761057105089515
:104480009B01AC010A2E06945795479537952795C1
:10449000BA95C9F7620F731F841F951FA01D089559
:1044A000F999FECF92BD81BDF89A992780B50895FC
:1044B000262FF999FECF1FBA92BD81BD20BD0FB640
:1044C000F894FA9AF99A0FBE019608952F923F92A6
:1044D0004F925F926F927F928F929F92AF92BF9214
:1044E000CF92DF92EF92FF920F931F93CF93DF93C0
:1044F000CDB7DEB7CA1BDB0B0FB6F894DEBF0FBE1D
:10450000CDBF09942A88398848885F846E847D8469
:104510008C849B84AA84B984C884DF80EE80FD806B
:104520000C811B81AA81B981CE0FD11D0FB6F894E1
:0E453000DEBF0FBECDBFED010895F894FFCFA2
:10453E00FF00004000140054004572726F72203567
:10454E003032004572726F72203530310045727212
:10455E006F7220353033004572726F7220353030F5
:10456E00004573706572616E646F2E2E2E0053744B
:10457E006174696F6E2049502E2E2E2E2E2E0051F4
:10458E0000494E494F4B004900540050000D0A009F
:10459E00530032303A30383A3431004465632031BA
:1045AE0036203230313800253032782530327825B9
:1045BE00303278253032782A00253034642D25307B
:1045CE0032642D2530326420253032643A25303263
:1045DE00643A253032640025303278253032782521
:1045EE00303278253032780041636365736F206E08
:1045FE00656761646F2C2020496E666F726D616E07
:10460E00646F2E2E2E00253032642F253032642F0B
:10461E002530346420253032643A2530326400412E
:10462E00636365736F207065726D697469646F0082
:10463E0045737065726520706F72206661766F7259
:10464E002E2E2E004176616E63652E2E2E000000FA
:10465E0000003F0AB60B000A8C0AD209EC09DE09EB
:10466E0000000000E611B60B130B160B0000000045
:10467E0091156B17561200000000941B671B130B4D
:08468E00301B051B0D1B211B55
:00000001FF
