:100000003BC05FC05EC05DC05CC05BC05AC059C031
:1000100058C08AC256C0F7C2D1C253C052C051C0E4
:1000200050C023C34EC000000000000000000003C9
:10003000040600000000000000000000000038007E
:1000400035003200000000003700340031000404A5
:100050000404040404040202020202020303030370
:10006000030301020408102040800102040810204C
:10007000010204081020590411241FBECFE5D4E06A
:10008000DEBFCDBF10E0A0E6B0E0EEE0FBE002C0D6
:1000900005900D92A438B107D9F722E0A4E8B0E0AA
:1000A00001C01D92AE3CB207E1F710E0CCE3D0E016
:1000B00003C02197FE011FD5CB33D107D1F730D430
:1000C00024C59ECFE0911801F0911901309729F0D5
:1000D00010920F0110920E0109940895CF93DF93AF
:1000E000AC01E0911601F09117013097F1F0909179
:1000F0001101809110019817C0F090E0292F30E095
:100100002617370754F4D901AC57BF4FEA01C20F85
:10011000D31F88818C939F5FF1CF10921101609360
:100120001001CB01DF91CF910994DF91CF91089518
:10013000CF92DF92EF92FF920F931F93CF93DF93B3
:100140006C017A018B01C0E0D0E0CE15DF0589F0AB
:10015000D8016D918D01D601ED91FC910190F08156
:10016000E02DC6010995892B11F47E0102C021966C
:10017000ECCFC701DF91CF911F910F91FF90EF90CE
:10018000DF90CF900895FC01538D448D252F30E0F2
:10019000842F90E0821B930B541710F0CF96089594
:1001A00001970895FC01918D828D981761F0828DE1
:1001B000DF01A80FB11D5D968C91928D9F5F9F739B
:1001C000928F90E008958FEF9FEF0895FC01918D3D
:1001D000828D981731F0828DE80FF11D858D90E0AA
:1001E00008958FEF9FEF0895FC01918D228D892F47
:1001F00090E0805C9F4F821B91098F73992708952F
:1002000085E292E0F1DF21E0892B09F420E0822FE2
:100210000895FC01848DDF01A80FB11DA35ABF4FC3
:100220002C91848D90E001968F739927848FA689F5
:10023000B7892C93A089B1898C9180648C93938D1C
:10024000848D981306C00288F389E02D80818F7D0C
:1002500080830895EF92FF920F931F93CF93DF93C4
:10026000EC0181E0888F9B8D8C8D981305C0E88907
:10027000F989808185FD23C0F62E0B8D10E00F5F7C
:100280001F4F0F731127E02E8C8DE8120BC00FB695
:1002900007FCFACFE889F989808185FFF5CFCE0187
:1002A000B8DFF2CF8B8DFE01E80FF11DE35AFF4F4F
:1002B000F0820B8FEA89FB898081806207C0EE891A
:1002C000FF896083E889F98980818064808381E087
:1002D00090E0DF91CF911F910F91FF90EF900895E3
:1002E000CF93DF93EC01888D8823C1F0EA89FB89E5
:1002F000808185FD05C0A889B9898C9186FD0EC0D5
:100300000FB607FCF5CF808185FFF2CFA889B989A8
:100310008C9185FFEDCFCE017CDFE8CFDF91CF91CF
:10032000089580E090E0892B19F06ADF811168CE92
:10033000089590E0FC01EA5DFF4F3491FC01EE5915
:10034000FF4F2491FC01E25BFF4FE491EE2331F17A
:10035000332381F0343039F0363049F0333051F402
:100360008FB58F7702C08FB58F7D8FBD03C085B5E8
:100370008F7D85BDF0E0EE0FFF1FE65CFF4FA5917E
:10038000B4918FB7F894611105C09C91E22FE0956C
:10039000E92302C0EC91E22BEC938FBF089585ED29
:1003A00086BF06B604FCFDCF10920D010895409162
:1003B000C400262F30E0240F311D21323105DCF43A
:1003C00020910D012430C9F4FC0180E090E08617F3
:1003D00058F43091C4002191DC01AC55BF4FA30FFC
:1003E000B11D2C930196F3CF8091C400680F6093E8
:1003F000C40080E0089581E0089582E008950895A2
:10040000E091110180911001E81730F4F0E0EC5711
:10041000FF4F808190E008958FEF9FEF08959091B6
:10042000110180911001981750F4E92FF0E0EC577A
:10043000FF4F208130E09F5F9093110102C02FEFAA
:100440003FEFC90108958091100190E020911101C2
:10045000821B91090895CF93DF9300D0CDB7DEB70B
:10046000CB01642F49835A83A2DF4981842F5A81AB
:10047000952F0F900F90DF91CF910895CF93DF9339
:100480001F92CDB7DEB7698361E0CE0101968FDFA1
:1004900081E090E00F90DF91CF910895089580E082
:1004A00090E008959091100180911101981779F0D2
:1004B00082EC92E0B4DFE0912502F09126020190F7
:1004C000F081E02D682F85E292E00995EBCF089549
:1004D00018D31F93CF93DF93D0E2C0911A011091EC
:1004E0001B02C11768F4EC2FF0E0E55EFE4F60815F
:1004F00082EC92E0C3DFCF5FC0931A01D15069F75D
:1005000080911A01811760F080E091E0EBE1F1E069
:10051000DF019C011D9221503040E1F710921A0139
:10052000DF91CF911F9108951F920F920FB60F92F6
:1005300011242F933F938F939F93AF93BF938091F9
:10054000210290912202A0912302B09124023091C5
:10055000200223E0230F2D3720F40196A11DB11DA9
:1005600005C026E8230F0296A11DB11D209320028D
:100570008093210290932202A0932302B09324023D
:1005800080911C0290911D02A0911E02B0911F0249
:100590000196A11DB11D80931C0290931D02A09392
:1005A0001E02B0931F02BF91AF919F918F913F9117
:1005B0002F910F900FBE0F901F9018951F920F92C2
:1005C0000FB60F9211242F933F934F935F936F9326
:1005D0007F938F939F93AF93BF93EF93FF9385E2A6
:1005E00092E017DEFF91EF91BF91AF919F918F91B4
:1005F0007F916F915F914F913F912F910F900FBE1F
:100600000F901F9018951F920F920FB60F92112402
:100610002F938F939F93EF93FF93E0913502F09187
:1006200036028081E0913B02F0913C0282FD12C0D3
:10063000908180913E028F5F8F7320913F028217DD
:1006400051F0E0913E02F0E0EB5DFD4F958F80931D
:100650003E0201C08081FF91EF919F918F912F9178
:100660000F900FBE0F901F9018951F920F920FB60C
:100670000F9211242F933F934F935F936F937F9328
:100680008F939F93AF93BF93EF93FF9381B1887F35
:10069000803609F499C068F5883209F45BC090F49B
:1006A000803109F454C038F4882309F4EEC088304E
:1006B00009F44DC0EDC0883109F44CC0803209F412
:1006C0005CC0E6C0803409F466C048F4803309F4A5
:1006D00054C0883309F0DCC08093E700D1C0803576
:1006E00009F44EC0883509F45BC0883409F0D0C0E5
:1006F000CEC0883909F4C1C0A8F4883709F464C0B1
:1007000038F4883609F460C0803709F45DC0C0C091
:10071000883809F4B2C0803909F45CC0803809F027
:10072000B7C058C0803B09F481C038F4803A09F45E
:1007300062C0883A09F47AC0ABC0803C09F4A0C01A
:10074000883C09F49DC0883B09F485C0A1C0809114
:100750000A0110C09091090180910801981758F57D
:10076000E091090181E08E0F80930901F0E0E851EA
:10077000FF4F808183B985EC81C08093E70087C0FB
:10078000E091090181E08E0F8093090183B1F0E0CF
:10079000E851FF4F808390910901809108016AC060
:1007A000E091090181E08E0F8093090183B1F0E0AF
:1007B000E851FF4F808380910C01811168C081E076
:1007C00080930B0184EA5DC083E080930D01109259
:1007D000E600D1CF8091E600803208F04EC0E09173
:1007E000E60081E08E0F8093E60083B1F0E0EA53EB
:1007F000FF4F8083C0CF85EC86BF10920D018091A2
:10080000E600803230F4E091E600F0E0EA53FF4F7A
:1008100010826091E60070E0E0911201F091130106
:1008200086EC90E009951092E60032C084E0809357
:100830000D011092C5001092C400E0911401F091D6
:10084000150109958091C400811105C081E0809354
:10085000C4001092A400E091C50081E08E0F809347
:10086000C500F0E0EC55FF4F808183B99091C50041
:100870008091C400981708F47ECF85E886BF08C031
:1008800085EC86BF10920D0103C01092E70087DD52
:10089000FF91EF91BF91AF919F918F917F916F9158
:1008A0005F914F913F912F910F900FBE0F901F902E
:1008B0001895E5E2F2E01382128288EE93E0A0E060
:1008C000B0E084839583A683B78324E630E0318348
:1008D000208320E430E03587248749E250E05787C1
:1008E00046874BE250E0518B408B4AE250E0538BFD
:1008F000428B358B248B2CE230E0378B268B118E8C
:10090000128E138E148EE2ECF2E013821282848334
:100910009583A683B78386E790E0918380830895CB
:10092000789483B7826083BF83B7816083BF89B7C0
:10093000816089BF1EBC8EB582608EBD8EB5816020
:100940008EBD8FB581608FBD85B5846085BD85B551
:10095000806485BD329A319A309A379A1AB880E30A
:1009600082B982E690E090931501809314018EE69F
:1009700090E0909313018093120110921101109254
:10098000100110920F0110920E0110920D0181E0E2
:1009900080930C0110920B0161E082E1CADC61E0FE
:1009A00083E1C7DC0898099888E480B985E486BFAC
:1009B000EAE6F0E02491E6E5F0E08491882399F0FE
:1009C00090E0880F991FFC01EC5BFF4FA591B4915B
:1009D000FC01E65CFF4F859194918FB7F894EC9100
:1009E000E22BEC938FBFE5E6F0E02491E1E5F0E047
:1009F00084918823C1F090E0880F991FFC01EC5B83
:100A0000FF4FC591D491FC01E65CFF4FA591B491D5
:100A10009FB7F8943881822F809583238883EC9147
:100A2000E22BEC939FBF82E592E0909317018093B5
:100A3000160189E692E09093190180931801E091E4
:100A40003502F091360282E08083E0913102F0912C
:100A500032021082E0913302F091340280E180830F
:100A600010923D02E0913902F0913A0286E88083CB
:100A7000E0913702F0913802808180618083E091BB
:100A80003702F0913802808188608083E0913702DC
:100A9000F0913802808180688083E0913702F09184
:100AA000380280818F7D808361E088E042DC109293
:100AB0001B0210921A0185E292E096DB892BC9F0A5
:100AC00060E088E036DC85E292E08EDB892B71F015
:100AD000C0911B0285E292E065DBEC2FF0E0E55E61
:100AE000FE4F8083CF5FC0931B02EDCF61E088E0B3
:100AF00020DC17DCE0CFEE0FFF1F0590F491E02D16
:0E0B0000099481E090E0F89400C0F894FFCFD3
:100B0E00000000002A019800C3007001F400D2001A
:100B1E00E600000000003E022B024F02FF012302FE
:040B2E000F020002B0
:00000001FF
