S01B00007765696768746C6F676765725F6D61737465722E7372656316
S11300000C947E000C94A6000C94A6000C94A600FC
S11300100C94A6000C94A6000C94A6000C94E61173
S11300200C94A6000C94A6000C94A6000C94A600B4
S11300300C94A6000C94A6000C94A6000C94A600A4
S11300400C9442120C94A6000C94D70C0C94090D39
S11300500C94A6000C94A6000C94A6000C94A60084
S11300600C9439200C94A600A71BBE1BBE1BBB1B03
S1130070BE1BA51BBE1BBE1BBE1B991BBE1BBE1BF2
S1130080AE1BB91BB71BBE1BBE1BBE1BB51B0200A0
S11300900000080002010000030407000000000043
S11300A0000000010204081020408001020408102E
S11300B020010204081020040404040404040402BB
S11300C002020202020303030303030000000023ED
S11300D0002600290000000000250028002B000055
S11300E0000000240027002A001F1C1F1E1F1E1FC3
S11300F01F1E1F1E1F004609390D361F11241FBE67
S1130100CFEFD8E0DEBFCDBF12E0A0E0B1E0E8EC75
S1130110FAE402C005900D92AC38B107D9F724E097
S1130120ACE8B2E001C01D92A735B207E1F710E0D8
S1130130CEE7D0E004C02197FE010E94B321CB3763
S1130140D107C9F70E94670D0C9462250C94000036
S1130150AF92BF92CF92DF92EF92FF920F931F93D1
S1130160CF93DF93EC018B017C0184E0E80EF11C5A
S113017069E071E084ED92E00E94C40D5E01699132
S113018070E040E150E084ED92E00E94B20E6BE03A
S113019071E084ED92E00E94C40D6801F801619160
S11301A08F0170E040E150E084ED92E00E94B90ECE
S11301B0F5019081F6018081981305C0CE15DF0505
S11301C0B9F681E001C080E0DF91CF911F910F91DA
S11301D0FF90EF90DF90CF90BF90AF9008955F9223
S11301E06F927F928F929F92AF92BF92CF92DF9243
S11301F0EF92FF920F931F93CF93DF9300D000D021
S11302001F92CDB7DEB75C01512C00E010E0CE01A7
S113021001966C013E0196E0690E711C760148015D
S11302208C189D08C4018E0D9F1D0E941525F70191
S113023081937F01E615F705A9F7B601C5010E9470
S1130240A800882319F05D8081E001C080E0093EA8
S1130250F3E01F0720F0811102C0512C81E00B5FF5
S11302601F4F8823D9F2852D0F900F900F900F9078
S11302700F90DF91CF911F910F91FF90EF90DF903E
S1130280CF90BF90AF909F908F907F906F905F9032
S11302900895CF92DF92EF92FF920F931F93CF9323
S11302A0DF9300D000D01F92CDB7DEB749835A83C5
S11302B06B837C838D83283CD0F485E0289F800168
S11302C01124FE0131966F01E12CF12CF6016191AC
S11302D06F01C8018E0D9F1D0E941D25FFEFEF1AAF
S11302E0FF0A85E0E816F10489F781E001C080E0A7
S11302F00F900F900F900F900F90DF91CF911F915F
S11303000F91FF90EF90DF90CF9008950F931F937C
S1130310CF93DF93893CA8F495E0899FE0011124F1
S11303208E010B5F1F4F6FEFCE010E941D2565E00C
S113033070E080E090E00E94BD122196C017D107C2
S113034091F7DF91CF911F910F910895CF93DF9390
S1130350EC0130E04217D0F4DE01A40FB11D9C91F2
S1130360E92FF0E09A3308F0F797E295E07F1196D1
S11303709C919A3310F0975301C09053DB01A30F63
S1130380B11D9E0F9C933F5F4E5FE4CFDF91CF91F1
S11303900895DF92EF92FF920F931F93CF93DF9311
S11303A0CDB7DEB72C970FB6F894DEBF0FBECDBF26
S11303B08C01F62EE42ED22E0E94FC13CE0101965F
S11303C00E94FC138B819C81F801938382838D812D
S11303D084838E8185838F818683888587838985BD
S11303E080878A8581878B8582878C8583872D2D5D
S11303F04E2D6F2DC8010E9415152C960FB6F8943A
S1130400DEBF0FBECDBFDF91CF911F910F91FF9043
S1130410EF90DF90089520E00C94B1141F93CF93D4
S1130420DF93EC01162F0E946714143029F0153065
S113043051F01230A1F40CC06DE071E0CE010E94C5
S1130440A00DD2E021C067E171E0CE010E94A00DB1
S113045061E271E0CE010E94A00DD4E015C06BE210
S113046071E0CE010E94A00D2CE231E040E050E0AA
S113047068E775E083E00E942F0F68EC70E080E08D
S113048090E00E94BD1213C0C0E02CE231E040E0D5
S113049050E068E775E083E00E942F0F68EC70E09D
S11304A080E090E00E94BD12CF5FDC13EECF64EFDA
S11304B071E080E090E0DF91CF911F910C94BD1228
S11304C00F931F93CF93DF93EC018B0140E060E027
S11304D00E947514B801CE010E94C40D41E060E091
S11304E0CE010E94751465E371E0CE01DF91CF91D6
S11304F01F910F910C94A00DAF92BF92CF92DF92F7
S1130500EF92FF920F931F93CF93DF93CDB7DEB794
S113051061970FB6F894DEBF0FBECDBF8C016B019F
S11305200E946714C8010E9421140E948C12F801D1
S11305306487758786879787F60101900020E9F71D
S113054031977F01EC18FD08F0E1FE1540F540E01D
S113055060E0C8010E9475142FE030E040E050E0F4
S1130560CE0101965C01BC01C6010E947A0BB50163
S1130570C8010E94C40D81E1F50111928A95E9F741
S113058041E060E0C8010E9475149701332740E1FF
S113059050E0B501C6010E947A0BB50101C0B60155
S11305A0C8010E94C40D61960FB6F894DEBF0FBE59
S11305B0CDBFDF91CF911F910F91FF90EF90DF900E
S11305C0CF90BF90AF900895CF92DF92EF92FF92B9
S11305D00F931F93CF93DF93CDB7DEB7A0970FB6DA
S11305E0F894DEBF0FBECDBF7C016B018E010F5F9F
S11305F01F4F80E2F80111928A95E9F762E471E0F5
S1130600C8010E940F22B601C8010E940F22B8013E
S1130610C7010E947C0264EC79E080E090E00E94D3
S1130620BD12C7010E946714A0960FB6F894DEBFEE
S11306300FBECDBFDF91CF911F910F91FF90EF902F
S1130640DF90CF9008950F931F93CF93DF93FC0116
S1130650448555856685778514161506160617068E
S1130660CCF4EC010E948C120C851D852E853F85EF
S1130670DC01CB01801B910BA20BB30B813A9F4091
S1130680A105B10538F0CE010E941C141C861D86FC
S11306901E861F86DF91CF911F910F910895CF93EE
S11306A0DF93EC010E9421140E948C126C877D87D9
S11306B08E879F87DF91CF9108956115710579F039
S11306C0FB0101900020E9F73197AF01461B570B5E
S11306D0DC01ED91FC910280F381E02D099480E02E
S11306E090E00895FC011182089584ED92E00E9447
S11306F0920B892B29F084ED92E00E94AC0BF5CF8C
S113070008950F931F93CF93DF93CDB7DEB764970C
S11307100FB6F894DEBF0FBECDBF8C010E947503E7
S113072063E571E084ED92E00E945D0384ED92E064
S11307300E944C0C25E030E0AE014F5F5F4F6DE04E
S113074084ED92E00E94FB0EC8010E9475031E8294
S113075065E571E0CE0101960E941A22892B19F0F9
S113076084E6F801818361E070E080E090E00E941B
S1130770BD12C8010E94750381E0F80191819111B5
S113078080E064960FB6F894DEBF0FBECDBFDF9154
S1130790CF911F910F910895CF93DF93EB010E94A6
S11307A075036BE571E084ED92E00E945D0384EDD6
S11307B092E00E944C0C2FE030E0AE016DE084ED3D
S11307C092E00E94FB0EC80FD11D1882DF91CF91D9
S11307D00895EF92FF920F931F93CF93DF937C01C1
S11307E0EB01042F10E0A80160E070E0CE010E944C
S11307F008226DE571E084ED92E00E945D0384EDD2
S113080092E00E944C0C61E070E080E090E00E9475
S1130810BD129801AE016DE084ED92E00E94FB0EE2
S1130820182FC7010E947503C10FD11D1882DF91D3
S1130830CF911F910F91FF90EF900895CF930E9455
S113084075036FE571E084ED92E00E945D0384ED31
S113085092E00E944C0CC0E084ED92E00E94920B66
S1130860892B11F4C150C1F784ED92E00E94AC0BC6
S1130870CF910895DF92EF92FF920F931F93CF933E
S1130880DF93CDB7DEB7A0970FB6F894DEBF0FBEE7
S1130890CDBFFB0101900020E9F73197E61BF70B70
S11308A0DE2ECE0101967C0180E2D7011D928A954D
S11308B0E9F78EE48983AF015527CE0102960E94A1
S11308C0FF218701802F8E198D1540F4F801619165
S11308D08F0184ED92E00E94FF0BF4CF61E671E09A
S11308E084ED92E00E945D0384ED92E00E944C0C42
S11308F0A0960FB6F894DEBF0FBECDBFDF91CF91A7
S11309001F910F91FF90EF90DF900895EF92FF9267
S11309100F931F93CF93DF937B0164E671E084ED23
S113092092E00E945D03F70101900020E9F73197FE
S11309301E2F1E190E2DCE2DDF2D8C2F801B8117FF
S113094030F4699184ED92E00E94FF0BF6CF61E6EA
S113095071E084ED92E00E945D0384ED92E00E94D8
S11309604C0C80E0DF91CF911F910F91FF90EF909D
S113097008950F931F93CF93DF93CDB7DEB760979E
S11309800FB6F894DEBF0FBECDBF8C010E94B21526
S1130990F801709684E0DF011D928A95E9F749E039
S11309A06AE0CE0101960E94BC158CE0FE013396EC
S11309B0D801129601900D928A95E1F78F85F8017E
S11309C086878889878760960FB6F894DEBF0FBE46
S11309D0CDBFDF91CF911F910F910895CF93DF93F6
S11309E0EC010E94E01660E7CE01DF91CF910C94F8
S11309F04917EF92FF920F931F93CF93DF93EC016C
S1130A000E94301A811102C080E030C0CE010E94E1
S1130A101B158823C9F369E071E084ED92E00E941C
S1130A20C40D8E010D5F1F4F7E0187E0E80EF11C9F
S1130A30F80161918F01648770E040E150E084ED3A
S1130A4092E00E94B20E6BE071E084ED92E00E94AD
S1130A50C40D0E151F0561F760E971E084ED92E0A5
S1130A600E94D10DCE010E94621A81E0DF91CF91E4
S1130A701F910F91FF90EF90089508950F931F9386
S1130A80CF93DF9300D000D000D0CDB7DEB78C0178
S1130A900E944C1C882391F0C8010E948D1D88235C
S1130AA091F046E651E06FE671E0CE0101960E94B6
S1130AB0701BCE0101960E94F91C05C0C8010E945A
S1130AC04C1C8111E9CF26960FB6F894DEBF0FBEF9
S1130AD0CDBFDF91CF911F910F910895CF93DF93F5
S1130AE0EC010E94521CCE01DF91CF9108958F92A8
S1130AF09F92AF92BF92CF92EF92FF920F931F9368
S1130B00CF93DF9300D0CDB7DEB75C01CA012DE2ED
S1130B1030E03A832983BE016F5F7F4F0E94FA2140
S1130B200E94D3214C01BE016F5F7F4F80E090E0B3
S1130B300E94FA210E94D321182FBE016F5F7F4FBC
S1130B4080E090E00E94FA210E94D321F82EBE0199
S1130B506F5F7F4F80E090E00E94FA210E94D321D2
S1130B60082FBE016F5F7F4F80E090E00E94FA2162
S1130B700E94D321E82EBE016F5F7F4F80E090E09A
S1130B800E94FA210E94D321C82E69E071E084ED0D
S1130B9092E00E94C40D4AE050E0B40184ED92E07A
S1130BA00E94520E6BE071E084ED92E00E94C40D4D
S1130BB04AE050E0612F84ED92E00E94390E6BE030
S1130BC071E084ED92E00E94C40D4AE050E06F2D84
S1130BD084ED92E00E94390E69E071E084ED92E0C8
S1130BE00E94C40D4AE050E0602F84ED92E00E9420
S1130BF0390E6BE771E084ED92E00E94C40D4AE087
S1130C0050E06E2D84ED92E00E94390E6BE771E0A6
S1130C1084ED92E00E94C40D4AE050E06C2D84ED16
S1130C2092E00E94400E2F2D412FB401C5010E9475
S1130C305C1BC5010F900F90DF91CF911F910F9115
S1130C40FF90EF90CF90BF90AF909F908F900895BA
S1130C50EF92FF920F931F93CF93DF93CDB7DEB73D
S1130C60C054D1090FB6F894DEBF0FBECDBF7C01CE
S1130C7040E050E0BA01CE01CB960E94E41A8E0106
S1130C800F5F1F4F80E2D8011D928A95E9F7FE019C
S1130C90B1968BE0DF011D928A95E9F73B9689E0D6
S1130CA0DF011D928A95E9F76DE484ED92E00E94DC
S1130CB0FF0B84ED92E00E944C0C61E070E080E058
S1130CC090E00E94BD1220E230E0A8016DE084EDC6
S1130CD092E00E94FB0E8B3020F1A801B701CE01F7
S1130CE0C5960E94770586E0FE01F596DE01DB9647
S1130CF001900D928A95E1F763E284ED92E00E94FF
S1130D00FF0BCE01CB960E94EA1BAB01BC012AE08B
S1130D1030E084ED92E00E94580ECE01CB960E9402
S1130D20F91C84ED92E00E94920B892B29F084ED4A
S1130D3092E00E94AC0BF5CFC05CDF4F0FB6F89485
S1130D40DEBF0FBECDBFDF91CF911F910F91FF90FA
S1130D50EF900895FC01118212820895EF92FF92A0
S1130D600F931F93CF93DF93CDB7DEB728970FB6BA
S1130D70F894DEBF0FBECDBF8C017B01FC01628104
S1130D8083E993E00E94AA1E41E050E06DE771E020
S1130D9083E993E00E942C1E83E993E00E94331FB1
S1130DA047E0F801628183E993E00E942D1F10E07F
S1130DB083E993E00E94CA1D892B79F083E993E0CB
S1130DC00E94D21D8F3FA1F3E1E0F0E0EC0FFD1F84
S1130DD0E10FF11D80831F5FEBCF412F50E0FE0137
S1130DE0E40FF51F1282BE016F5F7F4FC7010E949F
S1130DF0FF2128960FB6F894DEBF0FBECDBFDF915A
S1130E00CF911F910F91FF90EF900895CF92DF92B1
S1130E10FF920F931F93CF93DF93CDB7DEB728973D
S1130E200FB6F894DEBF0FBECDBF8C01CE01019684
S1130E306C0188E0F60111928A95E9F7F801628362
S1130E4083E993E00E94AA1E41E050E06BE571E063
S1130E5083E993E00E942C1E83E993E00E94331FF0
S1130E6046E0F801628183E993E00E942D1FF12C92
S1130E7083E993E00E94CA1D892B61F083E993E022
S1130E800E94D21D8F3FA1F3F601EF0DF11D808367
S1130E90F394EECFFE01EF0DF11D12826FE771E0C6
S1130EA0C6010E941A22892B19F084E6F801818375
S1130EB081E0F8019181911180E028960FB6F894B1
S1130EC0DEBF0FBECDBFDF91CF911F910F91FF9079
S1130ED0DF90CF9008950F931F93CF93DF93CDB7F7
S1130EE0DEB76E970FB6F894DEBF0FBECDBF8E018E
S1130EF00F5F1F4F8EE1F80111928A95E9F760E0C8
S1130F0085E00E94681361E086E00E94681361E056
S1130F1084E00E94681361E083E00E94681361E04A
S1130F208AE00E94681361E089E00E94681360E02F
S1130F3084E00E94A41360E083E00E94A41362E4AE
S1130F408EE892E00E94060783E993E00E94981ECF
S1130F500E94941D42E060E188EA92E00E940B0244
S1130F6085EA92E00E943E0581E992E00E94EE0447
S1130F7081E08093D3021092BC021092BD021092C1
S1130F80BE021092BF021092B8021092B9021092DF
S1130F90BA021092BB0268E273E280E090E00E9421
S1130FA0BD1226E040E052EC61E070E084ED92E096
S1130FB00E946E0C86EA92E00E948103882359F015
S1130FC0B80186EA92E00E94CC03B80188EA92E074
S1130FD00E94E40203C082E08093D3026E960FB6AF
S1130FE0F894DEBF0FBECDBFDF91CF911F910F915B
S1130FF00895CF9381EA92E00E94EF00C82F8823DE
S113100011F180E18093D30224E630E040E050E027
S113101060E273E083E00E942F0F64E670E080E0FA
S113102090E00E94BD1224E630E040E050E060E22F
S113103073E083E00E942F0F64E670E080E090E0AC
S11310400E94BD1203C089E88093D30281E0C111DC
S113105001C080E0CF91089561E084E00E94A41370
S113106060E47FE180E090E00E94BD1260E084E0F3
S11310700C94A413CF93DF93CDB7DEB72A970FB6A2
S1131080F894DEBF0FBECDBF65EA72E0CE010196D3
S11310900E946E0540EC52E0BE016F5F7F4FCE01AF
S11310A007960E94281C81E04F81588569857A85BE
S11310B04A305105610571050CF480E02A960FB69B
S11310C0F894DEBF0FBECDBFDF91CF9108950F938B
S11310D01F930E948C120091B8021091B9022091C2
S11310E0BA023091BB02DC01CB01801B910BA20B35
S11310F0B30B893E9340A105B105B8F086EA92E0AE
S11311000E941E04823521F0843529F48BEA01C043
S113111081EC8093D3020E948C126093B802709386
S1131120B9028093BA029093BB021F910F91089564
S1131130AF92BF92CF92DF92EF92FF920F931F93E1
S1131140CF93DF9300D000D0CDB7DEB78C015B0125
S11311506A01CE0101967C0184E0F70111928A951F
S1131160E9F728E040E0B701C8010E94A60189819F
S11311709A81AB81BC81F50180839183A283B3837F
S11311802AE048E0B701C8010E94A6018981F8015C
S11311909285F60190830F900F900F900F90DF913E
S11311A0CF911F910F91FF90EF90DF90CF90BF9060
S11311B0AF9008950F931F93CF93DF93CDB7DEB70E
S11311C065970FB6F894DEBF0FBECDBF8E010F5FDB
S11311D01F4F8BE0F80111928A95E9F74BE0B801B3
S11311E086EA92E00E94E903AE014B5E5F4FBE01C6
S11311F06F5E7F4FC8010E949808182F89899A89C9
S1131200AB89BC898C879D87AE87BF87188B8D89F6
S1131210803309F566E871E084ED92E00E94C40D24
S11312204AE050E0612F84ED92E00E94400E60E9B4
S113123071E080E090E00E94BD12212F4C855D8515
S11312406E857F8588890E944901811114C087E0D9
S11312508093D30210C062E971E084ED92E00E94B1
S1131260D10D4AE050E0612F84ED92E00E94400EDF
S1131270812F0E94860165960FB6F894DEBF0FBEDB
S1131280CDBFDF91CF911F910F91089540E050E0C1
S1131290BA0186EC92E00E94E41A40E050E0BA0100
S11312A080EC92E00E94E41A22E040E167E288EADE
S11312B092E00E94C90186EA92E00E94720385EAE4
S11312C092E00E943D0581E992E00E94B9048EE813
S11312D092E00C94AA06EF92FF920F931F93CF9380
S11312E0DF93CDB7DEB7CB54D1090FB6F894DEBF88
S11312F00FBECDBF65EA72E0CE018A5B9F4F0E94AC
S11313006E05E1E9F2E083891F928F9382891F922F
S11313108F9381891F928F9380891F928F938EE977
S113132091E09F938F938E010F5F1F4F1F930F9335
S11313300E9462226BEF71E0C8010E940F222C967A
S11313408FAD2C971F928F932B968FAD2B971F9257
S11313508F932A968FAD2A971F928F9329968FADDC
S113136029971F928F9328968FAD28971F928F935A
S113137027968FAD279790E08053984F9F938F9334
S11313808FEA91E09F938F937E0181E3E80EF11C35
S1131390FF92EF920E946222B701C8010E940F22BD
S11313A041E050E069E071E084ED92E00E94760D46
S11313B0B80184ED92E00E94D10DB80186EA92E072
S11313C00E943A040FB6F894DEBF0FBECDBFC55BD2
S11313D0DF4F0FB6F894DEBF0FBECDBFDF91CF91C4
S11313E01F910F91FF90EF900895CF936DEC71E0F2
S11313F088EA92E00E947C020E946B09C3E028EC18
S113140030E040E050E06CED75E083E00E942F0F87
S113141066E970E080E090E00E94BD12C15079F767
S1131420CF910895EF92FF920F931F93CF93DF9381
S1131430CDB7DEB7C554D1090FB6F894DEBF0FBEE1
S1131440CDBF8E010F5F1F4F80E3F80111928A9583
S1131450E9F77E01F1E3EF0EF11C85E1F70111924A
S11314608A95E9F7E1E9F2E083891F928F938289F3
S11314701F928F9381891F928F9380891F928F93DC
S11314808BEE91E09F938F931F930F930E946222A0
S1131490E6ECF2E085811F928F9384811F928F93F3
S11314A083811F928F9382811F928F9381811F92D8
S11314B08F93808190E08053984F9F938F938FEA0E
S11314C091E09F938F93FF92EF920E946222B70163
S11314D0C8010E940F226BEF71E0C8010E940F2225
S11314E046E050E06CEC72E0C8010E94232241E027
S11314F050E069E071E084ED92E00E94760DB8015D
S113150084ED92E00E94D10DB80186EA92E00E9437
S113151086040FB6F894DEBF0FBECDBFCB5BDF4FA2
S11315200FB6F894DEBF0FBECDBFDF91CF911F91F0
S11315300F91FF90EF9008950F931F93CF93DF9334
S1131540CDB7DEB76C970FB6F894DEBF0FBECDBF34
S113155040E050E0BA01CE0147960E94E41A88EABE
S113156092E00E9423036091D302603109F470C0B9
S113157088F4663038F46430A0F56130B9F1623033
S113158081F1ADC0673069F1683009F0A8C00E94EC
S1131590F907A5C0693809F498C0B8F4603409F4AF
S11315A087C0603809F46BC0603209F098C067E204
S11315B072E088EA92E00E947C026CEC72E08EE8B1
S11315C092E00E94AE0680E888C0613C09F480C0C5
S11315D06A3F09F467C06B3A09F081C00E94DA08D7
S11315E07BC088EA92E00E940E0279C08B8D1F9224
S11315F08F938A8D1F928F938F8990E08053984F99
S11316009F938F93888D1F928F93898D1F928F93B1
S11316108DEF91E09F938F938E010F5F1F4F1F9368
S11316200F930E946222B80188EA92E00E9460024D
S113163081E992E00E94F9040FB6F894DEBF0FBE70
S1131640CDBF882311F088E048C00E94670847C0D6
S113165066E172E088EA92E00E947C0265EA72E048
S1131660CE0101960E946E0586E0FE013196A6EC3D
S1131670B2E001900D928A95E1F780E22EC00E94BB
S1131680120A65EA72E0CE0101960E946E0586E0B8
S1131690FE013196A0ECB2E001900D928A95E1F73B
S11316A08AEF1BC00E943A088823C9F080E415C061
S11316B06BE372E088EA92E00E947C020E942C08AC
S11316C088EA92E00E944F0307C00E94F50904C013
S11316D085EA92E00E94280681E08093D3026C960A
S11316E00FB6F894DEBF0FBECDBFDF91CF911F912F
S11316F00F91089541505109FC01E40FF51FDB01DE
S1131700AD01461B570B421753071CF441914D93EF
S1131710F7CF37FF02C020E030E0FC01E20FF31FF7
S113172010820895FC01918D228D892F90E0805CB8
S11317309F4F821B91098F7399270895FC01918D06
S1131740828D981731F0828DE80FF11D858D90E020
S113175008958FEF9FEF0895FC01918D828D981766
S113176061F0828DDF01A80FB11D5D968C91928D81
S11317709F5F9F73928F90E008958FEF9FEF08957E
S1131780FC01538D448D252F30E0842F90E0821B83
S1131790930B541710F0CF960895019708958FE294
S11317A09DE0892B49F080E090E0892B29F00E948C
S11317B02F0D81110C9400000895FC01848DDF012C
S11317C0A80FB11DA35ABF4F2C91848D90E00196B0
S11317D08F739927848FA689B7892C93A089B1899F
S11317E08C91837080648C93938D848D981306C040
S11317F00288F389E02D80818F7D80830895EF92A4
S1131800FF920F931F93CF93DF93EC0181E0888FB6
S11318109B8D8C8D981305C0E889F989808185FD9D
S113182026C0F62E0B8D10E00F5F1F4F0F7311278C
S1131830E02E8C8DE8120CC00FB607FCFACFE889B5
S1131840F989808185FFF5CFCE010E94DD0BF1CFB0
S11318508B8DFE01E80FF11DE35AFF4FF0829FB715
S1131860F8940B8FEA89FB89808180620AC09FB754
S1131870F894EE89FF896083E889F989808183700F
S1131880806480839FBF81E090E0DF91CF911F91BE
S11318900F91FF90EF900895CF93DF93EC01888D23
S11318A08823C9F0EA89FB89808185FD05C0A88960
S11318B0B9898C9186FD0FC00FB607FCF5CF8081E6
S11318C085FFF2CFA889B9898C9185FFEDCFCE0130
S11318D00E94DD0BE7CFDF91CF910895CF92DF9285
S11318E0EF92FF921F93CF93DF93EC016A017B0188
S11318F0122FE889F98982E080834115514E6105F0
S11319007105B1F060E079E08DE390E0A701960104
S11319100E947221DA01C9010197A109B109B695A2
S1131920A795979587959C01211580E13807A8F024
S1131930E889F989108260E874E88EE190E0A701F3
S113194096010E947221DA01C9010197A109B10926
S1131950B695A795979587959C01EC85FD85308371
S1131960EE85FF852083188EEC89FD891083EA8932
S1131970FB89808180618083EA89FB89808188601A
S11319808083EA89FB89808180688083EA89FB8976
S113199080818F7D8083DF91CF911F91FF90EF90A5
S11319A0DF90CF90089580E090E0089508951F920D
S11319B00F920FB60F9211242F938F939F93EF934F
S11319C0FF93E091E402F091E5028081E091EA0264
S11319D0F091EB0282FD12C090818091ED028F5F45
S11319E08F732091EE02821751F0E091ED02F0E046
S11319F0EC52FD4F958F8093ED0201C08081FF91E1
S1131A00EF919F918F912F910F900FBE0F901F9088
S1131A1018951F920F920FB60F9211242F933F9394
S1131A204F935F936F937F938F939F93AF93BF93E2
S1131A30EF93FF9384ED92E00E94DD0BFF91EF9111
S1131A40BF91AF919F918F917F916F915F914F91D2
S1131A503F912F910F900FBE0F901F90189584ED1A
S1131A6092E00E94920B21E0892B09F420E0822F5E
S1131A700895E4EDF2E01382128288EE93E0A0E090
S1131A80B0E084839583A683B78389E492E091834D
S1131A90808385EC90E09587848784EC90E0978739
S1131AA0868780EC90E0918B808B81EC90E0938B27
S1131AB0828B82EC90E0958B848B86EC90E0978B04
S1131AC0868B118E128E138E148E089508950E94A3
S1131AD004130E94660D0E946B07CFECDBE00E94AA
S1131AE09C0A2097E1F30E94CF0BF9CFCF92DF92AB
S1131AF0EF92FF920F931F93CF93DF936C017A01C0
S1131B008B01C0E0D0E0CE15DF0581F0D8016D91E6
S1131B108D01D601ED91FC910190F081E02DC6017B
S1131B200995892B11F02196EECF7E01C701DF9133
S1131B30CF911F910F91FF90EF90DF90CF90089578
S1131B40EF92FF920F931F93CF93DF938C017B014E
S1131B50C0E0D0E0F701EC0FFD1F6491662361F053
S1131B60D801ED91FC910190F081E02DC801099517
S1131B70892B11F02196EECFCE01DF91CF911F91E9
S1131B800F91FF90EF9008950C945D03DC01ED91AB
S1131B90FC910190F081E02D099461E671E00C94D0
S1131BA05D030F931F93CF93DF93EC010E945D03BA
S1131BB08C01CE010E94CD0D800F911FDF91CF913A
S1131BC01F910F9108958F929F92AF92BF92EF92BF
S1131BD0FF920F931F93CF93DF93CDB7DEB7A197F7
S1131BE00FB6F894DEBF0FBECDBF7C01FA01CB0166
S1131BF019A2223008F42AE08E010F5D1F4F822EB5
S1131C00912CA12CB12CBF01A50194010E94722139
S1131C10F901CA01015011096A3010F4605D01C074
S1131C20695CD8016C93232B242B252B61F7B80115
S1131C30C7010E945D03A1960FB6F894DEBF0FBEE4
S1131C40CDBFDF91CF911F910F91FF90EF90BF9087
S1131C50AF909F908F9008952115310541F4DC01D8
S1131C60ED91FC910190F081E02D642F09940C9486
S1131C70E30D9A01462F50E060E070E00C942C0EC6
S1131C800F931F93CF93DF93EC010E94390E8C01C5
S1131C90CE010E94CD0D800F911FDF91CF911F9136
S1131CA00F9108959A01AB0160E070E00C942C0E42
S1131CB00F931F93CF93DF93EC010E942C0E8C01A2
S1131CC0CE010E94CD0D800F911FDF91CF911F9106
S1131CD00F910895CF92DF92EF92FF920F931F938B
S1131CE0CF93DF932115310581F4DC01ED91FC9153
S1131CF00190F081E02D642FDF91CF911F910F911E
S1131D00FF90EF90DF90CF9009942A30310501F5D0
S1131D1077FF1DC06A017B01EC016DE20E94C60DD4
S1131D208C0144275527BA014C195D096E097F09B6
S1131D302AE0CE010E94E30D800F911FDF91CF9125
S1131D401F910F91FF90EF90DF90CF9008952AE0BC
S1131D50DF91CF911F910F91FF90EF90DF90CF9083
S1131D600C94E30D9A01AB01770F660B770B0C947F
S1131D706A0E0F931F93CF93DF93EC010E94B20E70
S1131D808C01CE010E94CD0D800F911FDF91CF9168
S1131D901F910F9108950F931F93CF93DF93EC013D
S1131DA00E948C12688779878A879B87E881F981EA
S1131DB00284F385E02DCE01099597FF17C00E9498
S1131DC08C12088519852A853B85DC01CB01801B93
S1131DD0910BA20BB30B0C811D812E813F818017C7
S1131DE09107A207B30710F38FEF9FEFDF91CF9115
S1131DF01F910F910895AF92BF92CF92DF92EF920D
S1131E00FF920F931F93CF93DF9321153105C1F0F8
S1131E1089015C016A01C0E0D0E0E62EF12CC50125
S1131E200E94CB0E97FD0FC08E159F0561F0F60141
S1131E3081936F0121960C171D0789F7C80104C00F
S1131E4080E090E001C0CE01DF91CF911F910F910E
S1131E50FF90EF90DF90CF90BF90AF9008954F9296
S1131E605F926F927F928F929F92AF92BF92CF9226
S1131E70DF92EF92FF920F931F93CF93DF9300D0E3
S1131E8000D01F92CDB7DEB78B0129013A019091A2
S1131E900001891721F09F3F09F04DC205C0EEE80B
S1131EA0F0E024912D8384C080930001EEE8F0E0FB
S1131EB094919D839F3F09F43EC2913009F44DC033
S1131EC058F1923009F074C01092B0001092B10031
S1131ED09091B00092609093B0009091B1009160A5
S1131EE09093B100282F30E0F901E954FF4FE491B9
S1131EF0F0E0EE0FFF1FEB52FF4F459154915093CA
S1131F00730340937203F901ED55FF4FE491E0939D
S1131F10710392E09D830BC214BC15BC94B592600E
S1131F2094BD95B5916095BD282F30E0F901E95431
S1131F30FF4FE491F0E0EE0FFF1FEB52FF4F45918E
S1131F4054915093810340938003F901ED55FF4F61
S1131F50E491E0937F031D82EAC110928000109205
S1131F60810090918100986090938100909181000C
S1131F70916090938100282F30E0F901E954FF4FDC
S1131F80E491F0E0EE0FFF1FEB52FF4F45915491A7
S1131F9050937A0340937903F901ED55FF4FE4918F
S1131FA0E093780361E00E94681321E02D8389C0E7
S1131FB02D8127FDC0C161E00E9468138D818D7F52
S1131FC009F07FC04801A12CB12C60E072E18AE7DE
S1131FD090E0A50194010E94942129833A834B83C4
S1131FE05C8369017A0181E0C81AD108E108F1082B
S1131FF09FEFC916D104E104F10409F008F44EC0BE
S113200060E472E48FE090E0A50194010E949421C1
S113201069017A0181E0C81AD108E108F1089D81BB
S1132020923009F52FEFC216D104E104F10409F04E
S113203008F444C160E970ED83E090E0A5019401E7
S11320400E94942169017A0181E0C81AD108E1084B
S1132050F1089FEFC916D104E104F10411F008F06E
S1132060BAC083E027C02FEFC216D104E104F10403
S1132070B9F0B0F068E478EE81E090E0A501940155
S11320800E94942169017A0181E0C81AD108E1080B
S1132090F1089D81992309F413C1DCC081E001C0DA
S11320A082E09D81911106C095B5987F892B85BDED
S11320B044C085E09091B100987F892B8093B10052
S11320C03CC04801A12CB12C60E072E18AE790E0A9
S11320D0A50194010E94942169017A0181E0C81A42
S11320E0D108E108F108C114D10491E0E906F10432
S11320F088F068E478EE81E090E0A50194010E9404
S1132100942169017A0181E0C81AD108E108F10833
S113211083E001C081E09D81913079F49091810048
S1132120987F892B809381004114510461047104C8
S113213049F42FEF3FEFA9012CC04114510461046D
S1132140710471F0D801AA0FBB1FA30192010E9470
S1132150C82128EE33E040E050E00E94722103C021
S11321602FEF3FEFA9018D81813099F0823019F171
S11321708111E1C0C7BC2093820330938303409351
S113218084035093850380916E00826080936E0077
S1132190D2C0D0928900C092880020937B033093F0
S11321A07C0340937D0350937E0380916F00826093
S11321B080936F00C0C0C092B30020937403309327
S11321C07503409376035093770380917000826087
S11321D080937000B0C068E478EE81E090E0A501DF
S11321E094010E94942169017A0191E0C91AD108ED
S11321F0E108F1082FEFC216D104E104F10441F122
S113220038F164E274EF80E090E0A50194010E944B
S1132210942169017A0181E0C81AD108E108F10822
S11322209FEFC916D104E104F10409F008F441CF89
S113223062E17AE780E090E0A50194010E94942194
S113224069017A0181E0C81AD108E108F10819C0CE
S113225084E030CF2FEFC216D104E104F10409F079
S113226008F463C062E17AE780E090E0A50194019C
S11322700E94942169017A0191E0C91AD108E10808
S1132280F1088FEFC816D104E104F104A9F0A0F01D
S113229089819A81AB81BC812AE0B595A7959795F0
S11322A087952A95D1F76C017D0121E0C21AD108E6
S11322B0E108F10887E0FECE86E0FCCE82E0FACEAB
S11322C08FEFC816D104E104F10469F160F162E111
S11322D07AE780E090E0A50194010E9494216901CD
S11322E07A0191E0C91AD108E108F1082FEFC2166A
S11322F0D104E104F104A9F0A0F089819A81AB81B1
S1132300BC813AE0B595A795979587953A95D1F70D
S11323106C017D0121E0C21AD108E108F10885E0D1
S1132320C3CE84E0C1CE83E0BFCE84E0BACE61E008
S11323300E94681347CE0F900F900F900F900F904C
S1132340DF91CF911F910F91FF90EF90DF90CF908D
S1132350BF90AF909F908F907F906F905F904F90C1
S11323600895813039F018F0823051F008951092B8
S11323706E00089580916F008D7F80936F000895A3
S1132380809170008D7F8093700081E08093B00015
S11323908091B100887F84608093B1001092B30073
S11323A00895CF93C82F80910001C81307C0EEE8A9
S11323B0F0E084919FEF9093000101C08FEF0E94A1
S11323C0B11160E08C2FCF910C94A4131F920F9243
S11323D00FB60F9211242F933F934F935F936F93F4
S11323E07F938F939F93AF93BF93EF93FF938091CA
S11323F0740390917503A0917603B0917703892BB0
S11324008A2B8B2B51F190917103E0917203F0911F
S1132410730380818927808380917403909175036D
S1132420A0917603B0917703181619061A061B06B5
S1132430C4F48091740390917503A0917603B091D4
S113244077030197A109B1098093740390937503ED
S1132450A0937603B093770304C0809100010E9497
S1132460D111FF91EF91BF91AF919F918F917F9186
S11324706F915F914F913F912F910F900FBE0F90ED
S11324801F9018951F920F920FB60F9211242F933D
S11324903F938F939F93AF93BF93809187039091C2
S11324A08803A0918903B0918A033091860323E0C5
S11324B0230F2D3720F40196A11DB11D05C026E878
S11324C0230F0296A11DB11D2093860380938703D9
S11324D090938803A0938903B0938A0380918B031C
S11324E090918C03A0918D03B0918E030196A11D50
S11324F0B11D80938B0390938C03A0938D03B093B1
S11325008E03BF91AF919F918F913F912F910F9027
S11325100FBE0F901F9018952FB7F8946091870302
S1132520709188038091890390918A032FBF089545
S11325303FB7F89480918B0390918C03A0918D0305
S1132540B0918E0326B5A89B05C02F3F19F00196C4
S1132550A11DB11D3FBFBA2FA92F982F8827820F25
S1132560911DA11DB11DBC01CD0142E0660F771F75
S1132570881F991F4A95D1F708958F929F92AF9221
S1132580BF92CF92DF92EF92FF926B017C010E9487
S113259098124B015C01C114D104E104F10401F16E
S11325A00E943A1F0E949812DC01CB0188199909F4
S11325B0AA09BB09883E9340A105B10560F321E057
S11325C0C21AD108E108F10888EE880E83E0981E4B
S11325D0A11CB11CC114D104E104F10419F7DBCF2F
S11325E0FF90EF90DF90CF90BF90AF909F908F902F
S11325F008958230910538F0880F991F880F991F2C
S113260005970197F1F70895789484B5826084BDA5
S113261084B5816084BD85B5826085BD85B58160E2
S113262085BDEEE6F0E0808181608083E1E8F0E042
S11326301082808182608083808181608083E0E871
S1132640F0E0808181608083E1EBF0E08081846050
S11326508083E0EBF0E0808181608083EAE7F0E052
S113266080818460808380818260808380818160B6
S113267080838081806880831092C10008958330B4
S113268081F028F4813099F08230A1F008958730E8
S1132690A9F08830B9F08430D1F4809180008F7D26
S11326A003C0809180008F7780938000089584B563
S11326B08F7702C084B58F7D84BD08958091B0006A
S11326C08F7703C08091B0008F7D8093B000089510
S11326D0CF93DF9390E0FC01ED55FF4F2491FC0173
S11326E0E954FF4F8491882361F190E0880F991F8A
S11326F0FC01E152FF4FC591D491FC01EB52FF4F15
S1132700A591B491611109C09FB7F894888120956F
S113271082238883EC912E230BC0623061F49FB72F
S1132720F8948881322F309583238883EC912E2B63
S11327302C939FBF06C08FB7F894E8812E2B288373
S11327408FBFDF91CF9108951F93CF93DF93282FED
S113275030E0F901E157FF4F8491F901ED55FF4F46
S1132760D491F901E954FF4FC491CC23C1F0162F41
S113277081110E943F13EC2FF0E0EE0FFF1FEB528C
S1132780FF4FA591B4919FB7F894111104C08C9197
S1132790D095D82302C0EC91DE2BDC939FBFDF9150
S11327A0CF911F910895CF93DF93282F30E0F90143
S11327B0E157FF4F8491F901ED55FF4FD491F90191
S11327C0E954FF4FC491CC2391F081110E943F132F
S11327D0EC2FF0E0EE0FFF1FE553FF4FA591B491EE
S11327E0EC91ED2381E090E021F480E002C080E0F0
S11327F090E0DF91CF910895FC011382128287E665
S113280092E091838083138608951F93CF93DF937F
S1132810EC01162F6C8183E993E00E94AA1E6B855C
S1132820612B83E993E00E94591E83E993E0DF91D1
S1132830CF911F910C94331FFC01138660E00C941C
S1132840051428E0FC01238760E00C9405140F9321
S11328501F93CF938C01C62F64600E94051481E0FE
S113286090E00E94F9126C2F6B7FC8010E9405143E
S113287082E390E0CF911F910F910C94F9121F9372
S1132880CF93DF93EC01162F0E940514612FCE0124
S1132890DF91CF911F910C9427140F931F93CF9323
S11328A0DF938C01C62FD42F607F642B0E943F14CA
S11328B080E1C89FB00111246D2BC801DF91CF9135
S11328C01F910F910C943F1440E00C944D1461E05F
S11328D00E94641480ED97E00C94F91262E00E9467
S11328E0641480ED97E00C94F912CF93DF93CDB785
S11328F0DEB728970FB6F894DEBF0FBECDBF9C019C
S113290088E0E1E0F1E0DE01119601900D928A95F4
S1132910E1F7F9018085841710F44FEF480FFE01A9
S11329203196E40FF11DE40FF11D9081690F606889
S1132930C90128960FB6F894DEBF0FBECDBFDF9154
S1132940CF910C946414FC016681262F24602683A5
S11329506C600C94641441E00E944D1481E090E09A
S11329600895CF93DF93EC01423018F08D81886095
S11329708D834887222329F0413019F48D818460A6
S11329808D8362E370E080E090E00E94BD126B856D
S1132990CE010E94051468EE73E080E090E00E948E
S11329A0BD1260E3CE010E943F1484E991E10E94CC
S11329B0F91260E3CE010E943F1484E991E10E9480
S11329C0F91260E3CE010E943F1486E990E00E9470
S11329D0F91260E2CE010E943F146D816062CE0163
S11329E00E94641484E08E83CE010E94A314CE015D
S11329F00E94671482E08F8366E0CE010E94641413
S1132A00CE01DF91CF910C946E14CF93DF93EC0140
S1132A1083E993E00E94981E1D8220E04A8569851F
S1132A20CE01DF91CF910C94B114FC0164834187F2
S1132A3022870C940515BC016E5F7F4FDC01ED917C
S1132A40FC910190F081E02D40E0099591E0811125
S1132A5090E0892F089520919103222399F04FB794
S1132A60F89420919103213059F42DB320938F03CE
S1132A703DB320919003209523232DBB4FBF02C06B
S1132A8040938F038CBD9DBD08958EBD00000DB491
S1132A9007FEFDCF8EB5089580919103882361F0E0
S1132AA09FB7F8942091910380918F03213019F4FA
S1132AB08DBB9FBF08958FBF0895AF92BF92CF92F1
S1132AC0DF92EF92FF920F931F93CF93DF936C01EA
S1132AD0A42E79016068B62E83E590E00E942B1540
S1132AE060E0F60186850E94A413AA948B2D0E94AF
S1132AF045150023A1F0CFEFD0E001C0CC0F0A951B
S1132B00EAF78B2D0E9445152C2F2095F701908113
S1132B1092238C23892BF701808311E001C010E0FC
S1132B20812F90E0E701C80FD91F1A1530F48B2DBF
S1132B300E94451588831F5FF3CF80E00E944515EE
S1132B40888361E0F60186850E94A413DF91CF910A
S1132B501F910F91FF90EF90DF90CF90BF90AF90B7
S1132B600C944C15FC0183E792E0918380838AE006
S1132B7086878FEF87870895FC0183E792E091832E
S1132B8080836687478708950F931F93CF93DF93BE
S1132B90EC01062F142F83E590E00E942B1560E0D2
S1132BA08E850E94A413802F0E944515812F0E94B8
S1132BB0451561E08E850E94A413DF91CF911F918A
S1132BC00F910C944C15DF92EF92FF920F931F9389
S1132BD0CF93DF938C01C62FF42ED22EE32E83E500
S1132BE090E00E942B1560E0F80186850E94A413F2
S1132BF08C2F0E944515CD2DDE2DCE018F0D911DFC
S1132C007C01EC16FD0621F089910E944515F9CF4F
S1132C1061E0F80186850E94A413DF91CF911F9192
S1132C200F91FF90EF90DF900C944C151F93CF936E
S1132C30DF93EC01162F83E590E00E942B1560E0F2
S1132C408E850E94A413812F80680E94451580E020
S1132C500E944515182F61E08E850E94A4130E94DE
S1132C604C15812FDF91CF911F9108950F9341113E
S1132C700E945D150F9108950F931F93CF93DF93D7
S1132C808C01D62FC42F0E941616482F4C2B6D2F63
S1132C90C801DF91CF911F910F910C94C4150F932C
S1132CA01F93CF93DF938C01D62FC42F0E94161647
S1132CB0C0954C2F48236D2FC801DF91CF911F91F0
S1132CC00F910C94C415CF92DF92EF92FF920F9361
S1132CD01F93CF93DF93EC016B01142F790140E034
S1132CE062E00E94C41544E06AE0CE010E94C4156B
S1132CF040E864E1CE010E94C4159601412F62E1CF
S1132D00CE010E94E31543E062E0CE010E94C415A7
S1132D1008E813E16AE0CE010E94161682FF13C090
S1132D2040E062E0CE010E94C41564E4CE010E943A
S1132D301616F701808362E4CE010E941616F7018D
S1132D40818380E004C00150110921F783E0DF9101
S1132D50CF911F910F91FF90EF90DF90CF90089546
S1132D600F931F93CF938C014FE062E00E94C41530
S1132D70C3E062E370E080E090E00E94BD1262E094
S1132D80C8010E94161684FF02C0C15091F7CF916A
S1132D901F910F910895CF93DF93EC0168E20E9495
S1132DA01616982F9370933041F0482F436068E2D1
S1132DB0CE01DF91CF910C94C415DF91CF9108958A
S1132DC0CF93DF93EC0161E08E850E94681361E08C
S1132DD08E850E94A4138F858F3F09F451C060E053
S1132DE00E9468138F850E94D313892B09F048C071
S1132DF061E08F850E94681360E08F850E94A413B0
S1132E0082E090E00E94F91261E08F850E94A41391
S1132E1062E370E080E090E00E94BD1240E064E272
S1132E20CE010E94C41540E066E2CE010E94C415A2
S1132E3046E268E4CE010E94C41540E864E5CE0190
S1132E400E94C41549EA66E5CE010E94C41543E018
S1132E5068E5CE010E94C41548EE6AE5CE010E94E1
S1132E60C41540E46AE2CE010E94C4154DE362E257
S1132E70CE010E94C415CE01DF91CF910C94CB16E4
S1132E80CE010E94B016CACF6CE40E941616807759
S1132E9008950F931F93CF938C01C62F0E9444175C
S1132EA08C1771F040E76CE4C8010E944F164C2F58
S1132EB040776CE4C801CF911F910F910C943C169C
S1132EC0CF911F910F9108953F924F925F926F920D
S1132ED07F928F929F92AF92BF92CF92DF92EF92A6
S1132EE0FF920F931F93CF93DF9300D0CDB7DEB73C
S1132EF03C01162F942E2901A114B10419F0F501F7
S1132F00408101C040E0342EF0E18F9E300C11244A
S1132F1040E062E0C3010E94C4154FE768E0C301CA
S1132F200E94C41540E864E1C3010E94C4159201E3
S1132F30402F62E1C3010E94E315432D6AE1C301FE
S1132F400E94C415412F62E0C3010E94C4151C30C5
S1132F5029F440E86AE1C3010E943C1600ED17E041
S1132F6068E0C3010E941616982F992139F480FD58
S1132F7003C001501109A1F783E065C06CE0C301EF
S1132F800E941616182F837109F05AC0E114F10437
S1132F90F9F0C114D104E1F064E1C3010E941616F2
S1132FA0F6019081981708F445C08083082D970195
S1132FB0482F62E1C3010E94361668E1C3010E94F2
S1132FC016168770A114B10421F0F501808301C0A5
S1132FD080E013FD31C0E114F10481F1C114D10486
S1132FE069F19E89992351F1F6014081413021F420
S1132FF0843041F58FEF27C0423020F1811122C087
S113300042509E012F5F3F4FB701C3010E946316D8
S1133010811119C0F6018081E80EF11CF701329785
S11330209081898198130EC0319690818A8198137A
S113303009C004C084E007C082E005C080E003C08A
S113304081E001C087E00F900F90DF91CF911F9135
S11330500F91FF90EF90DF90CF90BF90AF909F9033
S11330608F907F906F905F904F903F9008958F92D4
S1133070AF92BF92CF92DF92EF92FF920F931F9382
S1133080AF928C2C570168017901042F9B0140E316
S11330906CE00E9464170F901F910F91FF90EF90C6
S11330A0DF90CF90BF90AF908F9008952F923F9272
S11330B04F925F926F927F928F929F92AF92BF9244
S11330C0CF92DF92EF92FF920F931F93CF93DF93F0
S11330D0CDB7DEB72C970FB6F894DEBF0FBECDBFC9
S11330E0413508F005C1342E3B014C0140E86CE148
S11330F00E944F162224239432E0231691F083E099
S11331002816E1F091E02912F7C083E9898333207E
S1133110D1F081E0F3019081953008F480E0B12C86
S113312017C0F5E9F983332081F081E0F301908140
S1133130983008F480E043E0B42E0AC087E989831C
S113314036E0B32E04C0B12C02C023E0B22E80E0DE
S1133150D32CF8E0BF9ED0181124D7FCD12C88239F
S113316021F098E89B8333E001C032E021E09D2DFB
S1133170977009F420E09D2D959595959595290FC7
S113318031F4882309F491C038E0D30E8EC0811144
S113319002C094E001C093E0291708F4922FEB2DAC
S11331A0F0E03196E60DF71D232F4191A1E0B0E048
S11331B0AC0FBD1FA20FB11D4C932F5F422F431BB9
S11331C0491798F3DECF8111DDC09FE19D150CF402
S11331D095C080E2D82E90E79A839B818C818927C1
S11331E09D8189279E8189278F839E01285F3F4F78
S11331F047E0BE016F5F7F4FC4010E9463168111D7
S1133200C1C01B86E3E0EA87CE0107962C0199E052
S11332109C87CB844C2D4295407F4C0D6AE1C401C0
S11332200E94C415A12CCE010B967C018E01065F71
S11332301F4F92014C85BE016F5F7F4FC4010E94F6
S11332403718823009F0BFCF6CE1C4010E94161612
S113325085FD50C08F7109F480E2282F30E04D2D98
S1133260DD0C550B421753070CF046C0D82E85953C
S11332708595859591E0980F422F477081E009F478
S113328080E0890FE1E0F0E0EC0FFD1FE80FF11D95
S1133290215031092770332781E090E001C0880F65
S11332A02A95EAF79081892B80838FE18D150CF4A0
S11332B092CF9D2D97709B878D2D859585958595AE
S11332C08E5F292FE0E18E9F200D11242A8321E0B7
S11332D0911101C020E0280F2C8744244394512CE1
S11332E04C0E5D1E480E511CF9E0F81BFA8791CF75
S11332F086E048C082E046C085E044C08B818838BF
S1133300F1F182E094E0EB2DF0E03196E60DF71D4B
S1133310980FA1E0B0E0AC0FBD1FA80FB11D2C9118
S113332021938F5F9813F5CF8A85833021F58B85A0
S1133330811121C09E012D5F3F4F41E0B201C401C4
S11333400E94631681111EC09B81F2018181981332
S113335014C09C818281981310C0808182FF02C0B6
S11333602394CACEF3018387822D880F820D8F5F49
S1133370808380E007C081E005C087E003C083E06C
S113338093E0C1CF2C960FB6F894DEBF0FBECDBF2D
S1133390DF91CF911F910F91FF90EF90DF90CF902D
S11333A0BF90AF909F908F907F906F905F904F9061
S11333B03F902F9008954F925F926F927F928F92D9
S11333C09F92AF92CF92EF92FF920F931F93CF935E
S11333D0DF9300D0CDB7DEB76A834115510539F1CB
S11333E0F9016081623018F149012A013C0140E889
S11333F06CE10E944F1687E08983A12CC12CCE0179
S113340001967C018401920141E0BE016E5F7F4F11
S1133410C3010E94371881110DC0F40180818230EC
S113342041F481E09981911105C080E003C084E0FA
S113343001C081E00F900F90DF91CF911F910F9108
S1133440FF90EF90CF90AF909F908F907F906F9070
S11334505F904F9008959A01AB0166E20C94DB19DA
S11334600F931F93CF93DF9300D01F92CDB7DEB796
S11334708C0182E08B8340E064E2C8010E94C415A1
S113348040E066E2C8010E94C41546E268E4C8014F
S11334900E94C415AE014D5F5F4FBE016F5F7F4F49
S11334A0C8010E942B1A982F81E0992319F09230B9
S11334B009F080E00F900F900F90DF91CF911F9152
S11334C00F9108958F929F92AF92CF92EF92FF92B5
S11334D00F931F93CF93DF9300D000D0CDB7DEB707
S11334E04C0180E589831A829E012D5F3F4F42E0A3
S11334F0BE016F5F7F4FC4010E946316811116C025
S1133500A12CC12CE12CF12C00E010E020E030E0F3
S113351044E0BE016F5F7F4FC4010E9437188330BF
S113352021F0811103C081E001C080E00F900F9071
S11335300F900F90DF91CF911F910F91FF90EF901B
S1133540CF90AF909F908F900895803D27E0920791
S113355010F0805D974050E0E9EEF0E021E026179E
S113356030F43491430F511D2F5F3196F8CF6330FF
S113357038F09C0123703327232B11F44F5F5F4FE6
S1133580BC016D5F7F4F7695679576956795EDE6FF
S1133590F1E08E9F90018F9F300D9E9F300D11247E
S11335A0C9010197860F971F840F951F0895FC0189
S11335B0908190539A3008F090E0818180532AE002
S11335C0929F800D112408958F929F92AF92BF9283
S11335D0CF92DF92EF92FF92CF93DF93EC016A01D7
S11335E07B0180E8C81A83E4D80A8DE6E80A88E3F8
S11335F0F80A8CE3882E912CA12CB12CC701B601BA
S1133600A50194010E9472216D83CA01B901A5012B
S113361094010E9472216C83C701B60120E13EE04F
S113362040E050E00E947221CA01B90128E130E073
S113363040E050E00E9472216B83C701B60120E88C
S113364031E541E050E00E94722118824881542FF4
S1133650537081E009F080E090E0BC0163597E4F33
S11336602617370738F0281B390B2D5631404F5F8A
S11336704883ECCF81E089838981E82FF0E0E85129
S1133680FF4FE491511103C0823009F4EF5FF0E081
S11336902E173F0720F02E1B3F0B8F5FECCF2F5FC1
S11336A02A83DF91CF91FF90EF90DF90CF90BF906E
S11336B0AF909F908F900895CF92EF920F93FC015B
S11336C0603D87E0780710F0605D77406083418358
S11336D022830383E482C5820F91EF90CF900895F3
S11336E0EF92FF920F931F93CF93DF93CDB7DEB783
S11336F02B970FB6F894DEBF0FBECDBF8C017A01B5
S11337004BE050E0CE0101960E94F121CE010A96D1
S11337100E94D71AF8018083E9818E2F90E0FC0182
S1133720E154F109E331F10548F5EC5CFF4F0C94E9
S1133730B3218A81813639F08B818E3611F087E08E
S11337401BC086E019C081E017C082E015C08B81E0
S1133750823711F088E010C084E00EC08B8182377C
S113376011F085E009C083E007C089E005C08AE064
S113377003C08BE001C08CE0F8018183CE01059683
S11337800E94D71AF801828348E050E0B701CE01C5
S113379001960E94F121CE0101960E94D71AF801E8
S11337A08383CE0104960E94D71AF8018483CE0144
S11337B007960E94D71AF80185832B960FB6F894C2
S11337C0DEBF0FBECDBFDF91CF911F910F91FF9050
S11337D0EF900895EF92FF920F931F93CF93DF938F
S11337E0EC0188814A81698190E00E94A51A9C01BC
S11337F0A8E1B0E00E94B9212B817B018C01E20E8B
S1133800F11C011D111DA8019701ACE3B0E00E9459
S1133810C8212C817B018C01E20EF11C011D111DBC
S1133820A80197010E94C8212D81DC01CB01820FE0
S1133830911DA11DB11DBC01CD0160587C4B824975
S1133840974CDF91CF911F910F91FF90EF900895C6
S1133850CF92DF92EF92FF920F931F93CF93DF9358
S1133860EC01CB018A010E94EA1B6B017C01C801B7
S11338700E94EA1BC61AD70AE80AF90AC882D98242
S1133880EA82FB82CE01DF91CF911F910F91FF90CD
S1133890EF90DF90CF90089583E993E00E94981E03
S11338A081E00895CF92DF92EF92FF920F931F93DE
S11338B0CF93DF93EC0168E670E083E993E00E9424
S11338C0B41E60E083E993E00E94591E83E993E00B
S11338D00E94331F47E050E068E670E083E993E01C
S11338E00E94301F83E993E00E94D21D8F77982FA6
S11338F092959F701AEF082F919F000D112483E970
S113390093E00E94D21D9C01332794E035952795BE
S11339109A95E1F7F82E129FF00C112483E993E0B5
S11339200E94D21D9C01332744E0359527954A9582
S1133930E1F7E82E129FE00C112483E993E00E9442
S1133940D21D83E993E00E94D21D9C01332754E0E9
S1133950359527955A95E1F7D82E129FD00C11244E
S113396083E993E00E94D21D9C01332764E03595DE
S113397027956A95E1F7C82E129FC00C112483E99C
S113398093E00E94D21D9C01332774E0359527955E
S11339907A95E1F7129F800D11248883C982DA8217
S11339A0EB82FC820D83CE01DF91CF911F910F91A9
S11339B0FF90EF90DF90CF900895CF93C82F68E6E3
S11339C083E993E00E94AA1E6C2F83E993E00E948E
S11339D0591E83E993E00E94331F41E068E683E9BE
S11339E093E00E942D1F83E993E00E94D21DCF91A2
S11339F008950F931F93CF938C0168E670E083E9D9
S1133A0093E00E94B41E60E083E993E00E94591E93
S1133A10F8012581CAE0822F6C2F0E946621682F4D
S1133A20660F860F880F682F620F83E993E00E9468
S1133A30591EF8012481822F6C2F0E946621682F61
S1133A40660F860F880F682F620F83E993E00E9448
S1133A50591EF8012381822F6C2F0E946621682F42
S1133A60660F860F880F682F620F83E993E00E9428
S1133A70591E60E083E993E00E94591EF8012281F7
S1133A80822F6C2F0E946621682F660F860F880F85
S1133A90682F620F83E993E00E94591EF801218187
S1133AA0822F6C2F0E946621682F660F860F880F65
S1133AB0682F620F83E993E00E94591EF801208168
S1133AC0822F6C2F0E946621682F660F860F880F45
S1133AD0682F620F83E993E00E94591E83E993E003
S1133AE00E94331F8FE00E94DD1CC82F68E683E923
S1133AF093E00E94AA1E6FE083E993E00E94591E9E
S1133B006C2F6F7783E993E00E94591E83E993E059
S1133B10CF911F910F910C94331F8FE00E94DD1CF5
S1133B2087FB882780F90895CF93CFB7F8948091C5
S1133B309203811127C0E1ECF0E08491EDEAF0E01A
S1133B409491E82FF0E0EE0FFF1FE152FF4FA59193
S1133B50B491EC91E92321F461E08AE00E94A4137A
S1133B6061E08AE00E9468138CB580618CBD8CB5DD
S1133B7080648CBD61E08DE00E94681361E08BE09D
S1133B800E946813809192038F5F80939203CFBF4A
S1133B90CF9108958091C70390E02091C803821BC0
S1133BA0910908959091C8038091C703981750F420
S1133BB0E92FF0E0E753FC4F208130E09F5F9093C2
S1133BC0C80302C02FEF3FEFC9010895E091C80375
S1133BD08091C703E81730F4F0E0E753FC4F80818D
S1133BE090E008958FEF9FEF08950895CF93DF93AA
S1133BF0EC01E0919F03F091A0033097F1F09091D4
S1133C00C8038091C7039817C0F090E0292F30E0D3
S1133C102617370754F4DE01A20FB31F4C91D901C4
S1133C20A753BC4F4C939F5FF1CF1092C80360938E
S1133C30C703CB01DF91CF910994DF91CF91089510
S1133C40E091A103F091A203309729F01092A5030B
S1133C501092A40309940895CF92DF92EF92FF92F9
S1133C600F931F93CF93DF937C01CB018A012091A3
S1133C70A303222389F0EB016B01C40ED51ECC15DE
S1133C80DD0569F06991D701ED91FC910190F08116
S1133C90E02DC7010995F3CF642F0E94F71FC801D7
S1133CA0DF91CF911F910F91FF90EF90DF90CF9014
S1133CB00895CF93DF931F92CDB7DEB76983209128
S1133CC0A3032223D1F02091A403203240F021E069
S1133CD030E0FC013383228380E090E015C08091C2
S1133CE0A503E82FF0E0EA55FC4F998190838F5F9C
S1133CF08093A5038093A40305C061E0CE010196DF
S1133D000E94F71F81E090E00F90DF91CF9108951A
S1133D10FC011382128288EE93E0A0E0B0E0848379
S1133D209583A683B7838DE792E09183808308957A
S1133D301092C8031092C7031092A5031092A40313
S1133D400E943B1F80E29EE10E94242086EF9DE1B9
S1133D500C941F2081E08093A3036093C603109208
S1133D60A5031092A40308950C94AA1E0F93062F82
S1133D7021E04091A40366EA73E08091C6030E94A7
S1133D80A11F1092A5031092A4031092A3030F91F4
S1133D9008954F925F926F927F92AF92BF92CF92AB
S1133DA0EF92FF920F931F93CF93DF935C01F62E54
S1133DB0D42F28013901EE2021F10E94AA1ECE2D14
S1133DC0C43008F0C3E0C150C0F028E0C29FC00175
S1133DD01124A301920104C0569547953795279560
S1133DE08A95D2F7CA01B901D501ED91FC910190F0
S1133DF0F081E02DC5010995E6CF60E0C5010E9480
S1133E00B61E4D2FD13208F040E22C2D69EC73E040
S1133E108F2D0E94591F1092C8038093C703DF910E
S1133E20CF911F910F91FF90EF90CF90BF90AF90E3
S1133E307F906F905F904F900895CF92EF920F9381
S1133E401F93C22EE12C00E010E098010E94C91ECD
S1133E501F910F91EF90CF90089521E00C941D1FB6
S1133E6021E00C941D1F61E00C94B61E83E993E0DD
S1133E700C94881E08951092560481E08093540493
S1133E801092530461E082E10E94A41361E083E193
S1133E900E94A413E9EBF0E080818E7F808380810F
S1133EA08D7F808388E48093B80085E48093BC0090
S1133EB00895413208F043C0909156049111FCCF0B
S1133EC091E090935604209354042FEF2093E90338
S1133ED010922E04240F20932D0490935504909156
S1133EE05504880F892B80935504809153048130A5
S1133EF061F410925304809155048093BB00809127
S1133F00BC0083FDF8CF85EC01C085EE8093BC0036
S1133F10809156048130E1F380912E04841710F4CB
S1133F2040912E04AFE2B4E0962FFB018E2F891B43
S1133F30841718F48D918193F9CF842F089580E02C
S1133F4008950F93413208F04AC09091560491119C
S1133F50FCCF32E030935604009354043FEF309387
S1133F60E90310922E0440932D04562FAFE2B4E0DF
S1133F70FB013E2F351B341718F431913D93F9CFD3
S1133F801092550430915504880F832B8093550467
S1133F9080915304813061F410925304809155044C
S1133FA08093BB008091BC0083FDF8CF85EC01C0F9
S1133FB085EE8093BC00222321F080915604823048
S1133FC0D1F38091E9038F3F79F08091E903803246
S1133FD041F08091E903803331F094E005C091E031
S1133FE003C092E001C093E0892F0F91089540919E
S1133FF00B04262F30E0240F311D21323105DCF46F
S1134000209156042430C9F4FC0180E090E0861726
S113401058F430910B042191DC01A35FBB4FA30F33
S1134020B11D2C930196F3CF80910B04680F60931C
S11340300B0480E0089581E0089582E00895909350
S1134040500480934F040895909352048093510434
S1134050089585ED8093BC008091BC0084FDFCCF65
S113406010925604089585EC8093BC001092560477
S113407008951F920F920FB60F9211242F933F931E
S11340804F935F936F937F938F939F93AF93BF935C
S1134090EF93FF938091B900887F803609F49EC026
S11340A078F5883209F45DC090F4803109F456C083
S11340B038F4882309F4F5C0883009F44FC0F5C0FA
S11340C0883109F44EC0803209F45FC0EEC08034F8
S11340D009F46AC058F4803309F457C0883309F0EE
S11340E0E4C08093E9030E943320DFC0803509F4E3
S11340F04FC0883509F45DC0883409F0D6C0D3C0F8
S1134100883909F4C4C0A8F4883709F467C038F4BE
S1134110883609F463C0803709F460C0C6C08838A3
S113412009F4B5C0803909F45FC0803809F0BDC016
S11341305BC0803B09F483C038F4803A09F466C05C
S1134140883A09F47CC0B1C0803C09F4A4C0883C1E
S113415009F4A1C0883B09F487C0A7C08091550425
S113416010C090912E0480912D04981770F5E09161
S11341702E0481E08E0F80932E04F0E0E15DFB4F6E
S113418080818093BB0085EC83C08093E9038BC05E
S1134190E0912E0481E08E0F80932E048091BB0069
S11341A0F0E0E15DFB4F808390912E0480912D041B
S11341B06BC0E0912E0481E08E0F80932E048091D9
S11341C0BB00F0E0E15DFB4F8083809154048111DA
S11341D06AC081E08093530484EA5EC083E08093E4
S11341E056041092EA03CFCF8091EA03803208F09C
S11341F04EC0E091EA0381E08E0F8093EA03809140
S1134200BB00F0E0E551FC4F8083BDCF0E9433201A
S11342108091EA03803230F4E091EA03F0E0E55162
S1134220FC4F10826091EA0370E0E0914F04F0913A
S113423050048BEE93E009951092EA0336C084E0B3
S11342408093560410920C0410920B04E0915104D4
S1134250F0915204099580910B04811105C081E00D
S113426080930B0410920D04E0910C0481E08E0FF6
S113427080930C04F0E0E35FFB4F80818093BB00EC
S113428090910C0480910B04981708F47CCF85E876
S11342908093BC000AC085EC8093BC001092560445
S11342A004C01092E9030E942920FF91EF91BF916D
S11342B0AF919F918F917F916F915F914F913F91BA
S11342C02F910F900FBE0F901F901895991B79E0B6
S11342D004C0991F961708F0961B881F7A95C9F792
S11342E080950895A1E21A2EAA1BBB1BFD010DC0E7
S11342F0AA1FBB1FEE1FFF1FA217B307E407F50792
S113430020F0A21BB30BE40BF50B661F771F881F6D
S1134310991F1A9469F760957095809590959B0103
S1134320AC01BD01CF010895052E97FB1EF4009446
S11343300E94AB2157FD07D00E94722107FC03D0D5
S11343404EF40C94AB2150954095309521953F4FF8
S11343504F4F5F4F089590958095709561957F4F6D
S11343608F4F9F4F0895EE0FFF1F0590F491E02D9E
S11343700994A29FB001B39FC001A39F700D811D3A
S11343801124911DB29F700D811D1124911D08955A
S11343900E94B921A59F900DB49F900DA49F800DFC
S11343A0911D11240895FC0188279927E8942191EF
S11343B02032E9F3293010F02E30C8F32B3241F0CB
S11343C02D3239F4689404C00E945A22820F911D40
S11343D0219120532A30C0F31EF4909581959F4F6C
S11343E00895FB01DC0102C005900D92415050403C
S11343F0D8F708954CE852E00E9433220895FB0157
S1134400DC0102C001900D9241505040D8F708954C
S1134410DC0101C06D9341505040E0F70895FB0169
S1134420DC010D900020E9F7119701900D92002016
S1134430E1F70895FB01DC018D91019080190110D1
S1134440D9F3990B0895FB01DC010D900020E9F7E5
S113445011974150504028F0019000200D92C9F767
S113446008951C920895FA01A191B081009719F45E
S11344701097E1F0CD01DC01CD010D90002011F485
S1134480C00113C0FB012191222319F02015D9F793
S1134490F3CFFB012191201519F41E92119606C049
S11344A02223C1F70D900020A1F7D001FA01A193B6
S11344B0B08308957AE0979F902D879F802D910D6A
S11344C011240895AEE0B0E0E8E6F2E20C94392558
S11344D00D891E8986E08C831A8309838FEF9FE7F9
S11344E09E838D83AE01475E5F4F6F89788DCE01C9
S11344F001960E948422EF81F885E00FF11F10825B
S11345002E96E4E00C945525ABE0B0E0EAE8F2E244
S11345100C942B256C017B018A01FC011782168205
S1134520838181FFCCC1CE0101963C01F6019381C8
S1134530F70193FD859193FF81917F01882309F40D
S1134540BAC1853239F493FD859193FF81917F013E
S1134550853229F4B60190E00E947B24E7CF912CA8
S1134560212C312CFFE1F315D8F08B3279F038F49B
S1134570803279F08332A1F4232D20611DC08D3265
S113458061F0803369F4232D216016C0832D82608D
S1134590382EE32DE4603E2E2AC0F32DF8601DC0B2
S11345A037FC2DC020ED280F2A3040F08E32B9F4AC
S11345B036FC81C1232D2064322E19C036FE06C07C
S11345C08AE0989E200D1124922E11C0EAE02E9EBE
S11345D0200D1124222EF32DF0623F2E08C08C36BC
S11345E021F4832D8068382E02C0883641F4F70107
S11345F093FD859193FF81917F018111B3CF982F12
S11346009F7D9554933028F40C5F1F4F9FE399834B
S11346100DC0833631F0833771F0833509F059C00A
S113462021C0F801808189830E5F1F4F8824839401
S1134630912C530113C02801F2E04F0E511CF801D4
S1134640A080B18036FE03C0692D70E002C06FEF18
S11346507FEFC5010E9470244C018201F32DFF7786
S11346603F2E16C0280122E0420E511CF801A08002
S1134670B18036FE03C0692D70E002C06FEF7FEF9A
S1134680C5010E9465244C01F32DF0683F2E820180
S113469033FC1BC0822D90E088169906B0F4B60155
S11346A080E290E00E947B242A94F4CFF50137FC49
S11346B0859137FE81915F01B60190E00E947B24D1
S11346C021102A9421E0821A91088114910471F72F
S11346D0E8C0843611F0893641F5F80137FE07C089
S11346E060817181828193810C5F1F4F08C060815A
S11346F07181072E000C880B990B0E5F1F4FF32D51
S1134700FF763F2E97FF09C090958095709561952F
S11347107F4F8F4F9F4FF0683F2E2AE030E0A30178
S11347200E94B724882E861845C0853731F4232D7E
S11347302F7EB22E2AE030E025C0932D997FB92E2A
S11347408F36C1F018F4883579F0B5C0803719F088
S1134750883721F0B0C0E92FE061BE2EB4FE0DC051
S1134760FB2DF460BF2E09C034FE0AC0292F266039
S1134770B22E06C028E030E005C020E130E002C0DF
S113478020E132E0F801B7FE07C0608171818281C7
S113479093810C5F1F4F06C06081718180E090E0BF
S11347A00E5F1F4FA3010E94B724882E8618FB2D8D
S11347B0FF773F2E36FE0DC0232D2E7FA22E8914A7
S11347C058F434FE0BC032FC09C0832D8E7EA82E13
S11347D005C0B82CA32C03C0B82C01C0B92CA4FE6E
S11347E00FC0FE01E80DF11D8081803321F49A2D64
S11347F0997EA92E09C0A2FE06C0B394B39404C046
S11348008A2D867809F0B394A3FC11C0A0FE06C0DB
S1134810B21488F4280C922C9B180EC0B21460F4C5
S1134820B60180E290E00E947B24B394F7CFB214E7
S113483018F42B1802C0982C212CA4FE10C0B60129
S113484080E390E00E947B24A2FE17C0A1FC03C079
S113485088E790E002C088E590E0B6010CC08A2D9C
S1134860867859F0A1FE02C08BE201C080E2A7FC69
S11348708DE2B60190E00E947B24891438F4B601DD
S113488080E390E00E947B249A94F7CF8A94F3010A
S1134890E80DF11D8081B60190E00E947B24811017
S11348A0F5CF222009F442CEB60180E290E00E94C6
S11348B07B242A94F6CFF6018681978102C08FEF7C
S11348C09FEF2B96E2E10C944725FC010590615083
S11348D070400110D8F7809590958E0F9F1F089512
S11348E0FC016150704001900110D8F780959095BB
S11348F08E0F9F1F08950F931F93CF93DF93FB0198
S1134900238121FD03C08FEF9FEF2CC022FF16C02F
S113491046815781248135814217530744F4A0818D
S1134920B1819D012F5F3F4F318320838C9326817A
S113493037812F5F3F4F3783268314C08B01EC01EF
S1134940FB010084F185E02D0995892BE1F6D8015E
S113495016968D919C911797019617969C938E931A
S11349601697CE01DF91CF911F910F910895FA010F
S1134970AA27283051F1203181F1E8946F936E7F9A
S11349806E5F7F4F8F4F9F4FAF4FB1E03ED0B4E08B
S11349903CD0670F781F891F9A1FA11D680F791FCC
S11349A08A1F911DA11D6A0F711D811D911DA11DDD
S11349B020D009F468943F912AE0269F11243019ED
S11349C0305D3193DEF6CF010895462F4770405D88
S11349D04193B3E00FD0C9F7F6CF462F4F70405D37
S11349E04A3318F0495D31FD4052419302D0A9F792
S11349F0EACFB4E0A6959795879577956795BA958C
S1134A00C9F700976105710508959B01AC010A2E51
S1134A1006945795479537952795BA95C9F7620F28
S1134A20731F841F951FA01D0895F999FECF92BD91
S1134A3081BDF89A992780B50895262FF999FECF5C
S1134A401FBA92BD81BD20BD0FB6F894FA9AF99AA7
S1134A500FBE019608952F923F924F925F926F92EC
S1134A607F928F929F92AF92BF92CF92DF92EF92FA
S1134A70FF920F931F93CF93DF93CDB7DEB7CA1B7B
S1134A80DB0B0FB6F894DEBF0FBECDBF09942A88A6
S1134A90398848885F846E847D848C849B84AA844E
S1134AA0B984C884DF80EE80FD800C811B81AA81DB
S1134AB0B981CE0FD11D0FB6F894DEBF0FBECDBFA6
S10B4AC0ED010895F894FFCF05
S1134AC8FF000040001400540023002D00457272BA
S1134AD86F7220353032004572726F722035303172
S1134AE8004572726F7220353033004572726F72EE
S1134AF820353030004573706572616E646F2E2EF8
S1134B082E0053746174696F6E2049502E2E2E2E18
S1134B182E2E005100494E494F4B00490054005075
S1134B28000D0A00530031303A30323A313700442C
S1134B3865632031322032303138003A005700534F
S1134B4843414C454B002353746F72696E67204090
S1134B5820002345726173696E6720402000253068
S1134B68327825303278253032782530327800256D
S1134B783034642D253032642D25303264202530BC
S1134B8832643A253032643A253032640041636332
S1134B9865736F206E656761646F2C2020496E66AB
S1134BA86F726D616E646F2E2E2E0025303278255B
S1134BB830327825303278253032782A0025303260
S1134BC8642F253032642F25303464202530326434
S1134BD83A253032640041636365736F20706572EF
S1134BE86D697469646F0045737065726520706FD0
S1134BF872206661766F722E2E2E004176616E6386
S1134C08652E2E2E0000000000FF0B760DC00B4C05
S1134C180C920BAC0B9E0B6E616E00696E66006F96
S1134C2876660000000000AB14760DD30CD60C0099
S1134C380000005618301A1B1500000000591E2CDD
S10F4C481ED30CF51DCA1DD21DE61D0074
S9030000FC
