S01B00007765696768746C6F676765725F6D61737465722E7372656316
S11300000C947E000C94A6000C94A6000C94A600FC
S11300100C94A6000C94A6000C94A6000C940F0F4C
S11300200C94A6000C94A6000C94A6000C94A600B4
S11300300C94A6000C94A6000C94A6000C94A600A4
S11300400C946B0F0C94A6000C94000A0C94320AC6
S11300500C94A6000C94A6000C94A6000C94A60084
S11300600C94621D0C94A600D018E718E718E41845
S1130070E718CE18E718E718E718C218E718E718C2
S1130080D718E218E018E718E718E718DE18020096
S11300900000080002010000030407000000000043
S11300A0000000010204081020408001020408102E
S11300B020010204081020040404040404040402BB
S11300C002020202020303030303030000000023ED
S11300D0002600290000000000250028002B000055
S11300E0000000240027002A001F1C1F1E1F1E1FC3
S11300F01F1E1F1E1F006A07620A5F1C11241FBEF9
S1130100CFEFD8E0DEBFCDBF12E0A0E0B1E0E8EE73
S1130110F4E402C005900D92A239B107D9F724E0A6
S1130120A2E9B2E001C01D92A335B207E1F710E0E5
S1130130CEE7D0E004C02197FE010E94DC1ECB373D
S1130140D107C9F70E94900A0C9472220C94000003
S1130150AF92BF92CF92DF92EF92FF920F931F93D1
S1130160CF93DF93EC018B017C0184E0E80EF11C5A
S113017069E071E080ED92E00E94ED0A5E01699110
S113018070E040E150E080ED92E00E94DB0B6BE018
S113019071E080ED92E00E94ED0A6801F80161913E
S11301A08F0170E040E150E080ED92E00E94E20BAC
S11301B0F5019081F6018081981305C0CE15DF0505
S11301C0B9F681E001C080E0DF91CF911F910F91DA
S11301D0FF90EF90DF90CF90BF90AF9008955F9223
S11301E06F927F928F929F92AF92BF92CF92DF9243
S11301F0EF92FF920F931F93CF93DF9300D000D021
S11302001F92CDB7DEB75C01512C00E010E0CE01A7
S113021001966C013E0196E0690E711C760148015D
S11302208C189D08C4018E0D9F1D0E942522F70184
S113023081937F01E615F705A9F7B601C5010E9470
S1130240A800882319F05D8081E001C080E0093EA8
S1130250F3E01F0720F0811102C0512C81E00B5FF5
S11302601F4F8823D9F2852D0F900F900F900F9078
S11302700F90DF91CF911F910F91FF90EF90DF903E
S1130280CF90BF90AF909F908F907F906F905F9032
S11302900895CF92DF92EF92FF920F931F93CF9323
S11302A0DF9300D000D01F92CDB7DEB749835A83C5
S11302B06B837C838D83283CD0F485E0289F800168
S11302C01124FE0131966F01E12CF12CF6016191AC
S11302D06F01C8018E0D9F1D0E942D22FFEFEF1AA2
S11302E0FF0A85E0E816F10489F781E001C080E0A7
S11302F00F900F900F900F900F90DF91CF911F915F
S11303000F91FF90EF90DF90CF9008950F931F937C
S1130310CF93DF93893CA8F495E0899FE0011124F1
S11303208E010B5F1F4F6FEFCE010E942D2265E0FF
S113033070E080E090E00E94E60F2196C017D1079C
S113034091F7DF91CF911F910F910895CF93DF9390
S1130350EC0130E04217D0F4DE01A40FB11D9C91F2
S1130360E92FF0E09A3308F0F797E295E07F1196D1
S11303709C919A3310F0975301C09053DB01A30F63
S1130380B11D9E0F9C933F5F4E5FE4CFDF91CF91F1
S11303900895DF92EF92FF920F931F93CF93DF9311
S11303A0CDB7DEB72C970FB6F894DEBF0FBECDBF26
S11303B08C01F62EE42ED22E0E942511CE01019638
S11303C00E9425118B819C81F801938382838D8106
S11303D084838E8185838F818683888587838985BD
S11303E080878A8581878B8582878C8583872D2D5D
S11303F04E2D6F2DC8010E943E122C960FB6F89414
S1130400DEBF0FBECDBFDF91CF911F910F91FF9043
S1130410EF90DF90089520E00C94DA111F93CF93AE
S1130420DF93EC01162F0E949011143029F015303F
S113043051F01230A1F40CC06DE071E0CE010E94C5
S1130440C90AD2E021C067E171E0CE010E94C90A65
S113045061E271E0CE010E94C90AD4E015C06BE2EA
S113046071E0CE010E94C90A2CE231E040E050E084
S113047068E775E083E00E94580C68EC70E080E067
S113048090E00E94E60F13C0C0E02CE231E040E0AF
S113049050E068E775E083E00E94580C68EC70E077
S11304A080E090E00E94E60FCF5FDC13EECF64EFB4
S11304B071E080E090E0DF91CF911F910C94E60F02
S11304C00F931F93CF93DF93EC018B0140E060E027
S11304D00E949E11B801CE010E94ED0A41E060E045
S11304E0CE010E949E1165E371E0CE01DF91CF91B0
S11304F01F910F910C94C90AAF92BF92CF92DF92D1
S1130500EF92FF920F931F93CF93DF93CDB7DEB794
S113051061970FB6F894DEBF0FBECDBF8C016B019F
S11305200E949011C8010E944A110E94B50FF8015F
S11305306487758786879787F60101900020E9F71D
S113054031977F01EC18FD08F0E1FE1540F540E01D
S113055060E0C8010E949E112FE030E040E050E0CE
S1130560CE0101965C01BC01C6010E940809B501D7
S1130570C8010E94ED0A81E1F50111928A95E9F71B
S113058041E060E0C8010E949E119701332740E1D9
S113059050E0B501C6010E940809B50101C0B601C9
S11305A0C8010E94ED0A61960FB6F894DEBF0FBE33
S11305B0CDBFDF91CF911F910F91FF90EF90DF900E
S11305C0CF90BF90AF9008950F931F93CF93DF9375
S11305D0FC0144855585668577851416150616062F
S11305E01706CCF4EC010E94B50F0C851D852E85F1
S11305F03F85DC01CB01801B910BA20BB30B813A2D
S11306009F40A105B10538F0CE010E9445111C861A
S11306101D861E861F86DF91CF911F910F9108952D
S1130620CF93DF93EC010E944A110E94B50F6C87AF
S11306307D878E879F87DF91CF910895611571051E
S113064079F0FB0101900020E9F73197AF01461BD7
S1130650570BDC01ED91FC910280F381E02D0994AC
S113066080E090E00895FC011182089580ED92E00D
S11306700E942009892B29F080ED92E00E943A091A
S1130680F5CF0895EF92FF920F931F93CF93DF93CB
S11306907C01EB01042F10E0A80160E070E0CE01C2
S11306A00E94311F6DE571E080ED92E00E941E030F
S11306B080ED92E00E94DA0961E070E080E090E071
S11306C00E94E60F9801AE016DE080ED92E00E9479
S11306D0240C182FC7010E943603C10FD11D1882A4
S11306E0DF91CF911F910F91FF90EF900895CF93D9
S11306F00E9436036FE571E080ED92E00E941E03D4
S113070080ED92E00E94DA09C0E080ED92E00E9460
S11307102009892B11F4C150C1F780ED92E00E94A9
S11307203A09CF910895DF92EF92FF920F931F93AE
S1130730CF93DF93CDB7DEB7A0970FB6F894DEBFA3
S11307400FBECDBFFB0101900020E9F73197E61BF6
S1130750F70BDE2ECE0101967C0180E2D7011D92BB
S11307608A95E9F78EE48983AF015527CE01029675
S11307700E94281F8701802F8E198D1540F4F801DF
S113078061918F0180ED92E00E948D09F4CF61E6C2
S113079071E080ED92E00E941E0380ED92E00E94E1
S11307A0DA09A0960FB6F894DEBF0FBECDBFDF9175
S11307B0CF911F910F91FF90EF90DF9008950F93C9
S11307C01F93CF93DF93CDB7DEB760970FB6F8943E
S11307D0DEBF0FBECDBF8C010E94DB12F801709604
S11307E084E0DF011D928A95E9F749E06AE0CE01D1
S11307F001960E94E5128CE0FE013396D801129610
S113080001900D928A95E1F78F85F8018687888992
S1130810878760960FB6F894DEBF0FBECDBFDF9119
S1130820CF911F910F910895CF93DF93EC010E9414
S1130830091460E7CE01DF91CF910C947214EF920A
S1130840FF920F931F93CF93DF93EC010E945917EC
S1130850811102C080E030C0CE010E94441288237E
S1130860C9F369E071E080ED92E00E94ED0A8E0127
S11308700D5F1F4F7E0187E0E80EF11CF8016191C6
S11308808F01648770E040E150E080ED92E00E94C7
S1130890DB0B6BE071E080ED92E00E94ED0A0E1537
S11308A01F0561F766E971E080ED92E00E94FA0AA3
S11308B0CE010E948B1781E0DF91CF911F910F91A0
S11308C0FF90EF90089508950F931F93CF93DF93B4
S11308D000D000D000D0CDB7DEB78C010E947519CE
S11308E0882391F0C8010E94B61A882391F046E645
S11308F051E06FE671E0CE0101960E949918CE0195
S113090001960E94221A05C0C8010E94751981111E
S1130910E9CF26960FB6F894DEBF0FBECDBFDF91A8
S1130920CF911F910F910895CF93DF93EC010E9413
S11309307B19CE01DF91CF9108958F929F92AF9250
S1130940BF92CF92EF92FF920F931F93CF93DF93B7
S113095000D0CDB7DEB75C01CA012DE230E03A83A6
S11309602983BE016F5F7F4F0E94231F0E94FC1EDC
S11309704C01BE016F5F7F4F80E090E00E94231F17
S11309800E94FC1E182FBE016F5F7F4F80E090E035
S11309900E94231F0E94FC1EF82EBE016F5F7F4F32
S11309A080E090E00E94231F0E94FC1E082FBE01DD
S11309B06F5F7F4F80E090E00E94231F0E94FC1E27
S11309C0E82EBE016F5F7F4F80E090E00E94231FFE
S11309D00E94FC1EC82E69E071E080ED92E00E9446
S11309E0ED0A4AE050E0B40180ED92E00E947B0BF6
S11309F06BE071E080ED92E00E94ED0A4AE050E085
S1130A00612F80ED92E00E94620B6BE071E080ED5B
S1130A1092E00E94ED0A4AE050E06F2D80ED92E0F2
S1130A200E94620B69E071E080ED92E00E94ED0AA1
S1130A304AE050E0602F80ED92E00E94620B6BE789
S1130A4071E080ED92E00E94ED0A4AE050E06E2DE4
S1130A5080ED92E00E94620B6BE771E080ED92E022
S1130A600E94ED0A4AE050E06C2D80ED92E00E9475
S1130A70690B2F2D412FB401C5010E948518C501B2
S1130A800F900F90DF91CF911F910F91FF90EF90F6
S1130A90CF90BF90AF909F908F900895EF92FF9268
S1130AA00F931F93CF93DF93CDB7DEB7C054D10913
S1130AB00FB6F894DEBF0FBECDBF7C0140E050E01E
S1130AC0BA01CE01CB960E940D188E010F5F1F4F05
S1130AD080E2D8011D928A95E9F7FE01B1968BE078
S1130AE0DF011D928A95E9F73B9689E0DF011D92AB
S1130AF08A95E9F76DE480ED92E00E948D0980ED1E
S1130B0092E00E94DA0961E070E080E090E00E94E7
S1130B10E60F20E230E0A8016DE080ED92E00E9453
S1130B20240C8B3020F1A801B701CE01C5960E9498
S1130B309D0486E0FE01F596DE01DB9601900D92A0
S1130B408A95E1F763E280ED92E00E948D09CE017F
S1130B50CB960E941319AB01BC012AE030E080ED72
S1130B6092E00E94810BCE01CB960E94221A80ED66
S1130B7092E00E942009892B29F080ED92E00E94E6
S1130B803A09F5CFC05CDF4F0FB6F894DEBF0FBE55
S1130B90CDBFDF91CF911F910F91FF90EF900895FA
S1130BA060E085E00E94911061E086E00E9491106F
S1130BB061E084E00E94911061E083E00E94911062
S1130BC061E08AE00E94911061E089E00E94911046
S1130BD060E084E00E94CD1060E083E00E94CD10CC
S1130BE08FE893E00E94C11B0E94BD1A42E060E1BD
S1130BF08BEA92E00E940B0288EA92E00E9464046D
S1130C0084E992E00E94140481E08093CF02109260
S1130C10BF021092C0021092C1021092C20210923E
S1130C20BB021092BC021092BD021092BE026DE78C
S1130C3071E08BEA92E00C947C02CF9384EA92E018
S1130C400E94EF00C82F882311F180E18093CF0226
S1130C5024E630E040E050E060E273E083E00E948C
S1130C60580C64E670E080E090E00E94E60F24E611
S1130C7030E040E050E060E273E083E00E94580C12
S1130C8064E670E080E090E00E94E60F03C089E82B
S1130C908093CF0281E0C11101C080E0CF9108951B
S1130CA061E084E00E94CD1060E47FE180E090E0A8
S1130CB00E94E60F60E084E00C94CD10CF93DF93A4
S1130CC0CDB7DEB72A970FB6F894DEBF0FBECDBFFF
S1130CD068EA72E0CE0101960E94940443EC52E06B
S1130CE0BE016F5F7F4FCE0107960E94511981E0CC
S1130CF04F81588569857A854A30510561057105AA
S1130D000CF480E02A960FB6F894DEBF0FBECDBF78
S1130D10DF91CF9108950F931F930E94B50F009117
S1130D20BB021091BC022091BD023091BE02DC01D5
S1130D30CB01801B910BA20BB30B893E9340A10501
S1130D40B105B8F089EA92E00E947703823521F078
S1130D50843529F48BEA01C081EC8093CF020E9490
S1130D60B50F6093BB027093BC028093BD02909355
S1130D70BE021F910F910895AF92BF92CF92DF925E
S1130D80EF92FF920F931F93CF93DF9300D000D085
S1130D90CDB7DEB78C015B016A01CE0101967C01FF
S1130DA084E0F70111928A95E9F728E040E0B70161
S1130DB0C8010E94A60189819A81AB81BC81F50199
S1130DC080839183A283B3832AE048E0B701C801FA
S1130DD00E94A6018981F8019285F60190830F9003
S1130DE00F900F900F90DF91CF911F910F91FF9073
S1130DF0EF90DF90CF90BF90AF9008950F931F9323
S1130E00CF93DF93CDB7DEB765970FB6F894DEBF07
S1130E100FBECDBF8E010F5F1F4F8BE0F801119203
S1130E208A95E9F74BE0B80189EA92E00E9442030F
S1130E30AE014B5E5F4FBE016F5E7F4FC8010E94E3
S1130E40BC06182F89899A89AB89BC898C879D87B0
S1130E50AE87BF87188B8D89803309F56CE871E004
S1130E6080ED92E00E94ED0A4AE050E0612F80EDAF
S1130E7092E00E94690B60E971E080E090E00E94DA
S1130E80E60F212F4C855D856E857F8588890E94BC
S1130E904901811114C087E08093CF0210C068E932
S1130EA071E080ED92E00E94FA0A4AE050E0612F7E
S1130EB080ED92E00E94690B812F0E948601659665
S1130EC00FB6F894DEBF0FBECDBFDF91CF911F9157
S1130ED00F91089540E050E0BA0189EC92E00E943D
S1130EE00D1840E050E0BA0183EC92E00E940D1826
S1130EF022E040E16FE38BEA92E00E94C90189EAB3
S1130F0092E00E94330388EA92E00E94630484E939
S1130F1092E00C94DF03EF92FF920F931F93CF9311
S1130F20DF93CDB7DEB7CB54D1090FB6F894DEBF4B
S1130F300FBECDBF68EA72E0CE018A5B9F4F0E946C
S1130F409404E4E9F2E083891F928F9382891F92CB
S1130F508F9381891F928F9380891F928F9384EA44
S1130F6091E09F938F938E010F5F1F4F1F930F93F9
S1130F700E94721F69E472E0C8010E94381F2C9617
S1130F808FAD2C971F928F932B968FAD2B971F921B
S1130F908F932A968FAD2A971F928F9329968FADA0
S1130FA029971F928F9328968FAD28971F928F931E
S1130FB027968FAD279790E08053984F9F938F93F8
S1130FC085EB91E09F938F937E0181E3E80EF11C02
S1130FD0FF92EF920E94721FB701C8010E94381F4E
S1130FE041E050E069E071E080ED92E00E949F0AE8
S1130FF0B80180ED92E00E94FA0AB80189EA92E011
S11310000E9493030FB6F894DEBF0FBECDBFC55B3D
S1131010DF4F0FB6F894DEBF0FBECDBFDF91CF9187
S11310201F910F91FF90EF900895CF9363ED71E0BE
S11310308BEA92E00E947C020E948B07C3E028ECBA
S113104030E040E050E06CED75E083E00E94580C25
S113105066E970E080E090E00E94E60FC15079F705
S1131060CF9108950F931F93CF93DF93CDB7DEB73E
S11310706C970FB6F894DEBF0FBECDBF40E050E0D2
S1131080BA01CE0147960E940D188BEA92E00E94A5
S1131090E4026091CF02603109F46AC088F46630DA
S11310A038F4643070F5613089F1623051F1A5C0D3
S11310B0673039F1683009F0A0C00E941D069DC058
S11310C0693809F490C088F4603409F47FC060384A
S11310D009F465C0603209F090C06BE172E08BEAFC
S11310E092E00E947C0280E886C0613C09F47EC0E4
S11310F06A3F09F465C06B3A09F07FC00E94FE069E
S113110079C08BEA92E00E940E0277C08B8D1F9209
S11311108F938A8D1F928F938F8990E08053984F7D
S11311209F938F93888D1F928F93898D1F928F9396
S113113081EF91E09F938F938E010F5F1F4F1F9359
S11311400F930E94721FB8018BEA92E00E94600222
S113115084E992E00E941F040FB6F894DEBF0FBE2C
S1131160CDBF882311F088E046C00E948B0645C09D
S11311706AE072E08BEA92E00E947C0268EA72E024
S1131180CE0101960E94940486E0FE013196A9ECFA
S1131190B2E001900D928A95E1F780E22CC068EAF2
S11311A072E0CE0101960E94940486E0FE0131961D
S11311B0A3ECB2E001900D928A95E1F78AEF1BC08F
S11311C00E945E068823C9F080E415C06FE272E0D5
S11311D08BEA92E00E947C020E9450068BEA92E025
S11311E00E94100307C00E94150804C088EA92E018
S11311F00E944E0581E08093CF026C960FB6F8945E
S1131200DEBF0FBECDBFDF91CF911F910F91089527
S113121041505109FC01E40FF51FDB01AD01461BF0
S1131220570B421753071CF441914D93F7CF37FFE7
S113123002C020E030E0FC01E20FF31F10820895A9
S1131240FC01918D228D892F90E0805C9F4F821B41
S113125091098F7399270895FC01918D828D9817B8
S113126031F0828DE80FF11D858D90E008958FEFA8
S11312709FEF0895FC01918D828D981761F0828D06
S1131280DF01A80FB11D5D968C91928D9F5F9F73B6
S1131290928F90E008958FEF9FEF0895FC01538D96
S11312A0448D252F30E0842F90E0821B930B54173C
S11312B010F0CF9608950197089588E59AE0892B58
S11312C049F080E090E0892B29F00E94580A8111AE
S11312D00C9400000895FC01848DDF01A80FB11D5A
S11312E0A35ABF4F2C91848D90E001968F73992758
S11312F0848FA689B7892C93A089B1898C91837036
S113130080648C93938D848D981306C00288F3892E
S1131310E02D80818F7D80830895EF92FF920F935B
S11313201F93CF93DF93EC0181E0888F9B8D8C8D8D
S1131330981305C0E889F989808185FD26C0F62EB9
S11313400B8D10E00F5F1F4F0F731127E02E8C8D54
S1131350E8120CC00FB607FCFACFE889F98980813E
S113136085FFF5CFCE010E946B09F1CF8B8DFE0175
S1131370E80FF11DE35AFF4FF0829FB7F8940B8FEB
S1131380EA89FB89808180620AC09FB7F894EE895C
S1131390FF896083E889F989808183708064808310
S11313A09FBF81E090E0DF91CF911F910F91FF905B
S11313B0EF900895CF93DF93EC01888D8823C9F0D3
S11313C0EA89FB89808185FD05C0A889B9898C914A
S11313D086FD0FC00FB607FCF5CF808185FFF2CFE5
S11313E0A889B9898C9185FFEDCFCE010E946B0944
S11313F0E7CFDF91CF91089580E090E008950895BC
S11314001F920F920FB60F9211242F938F939F93D5
S1131410EF93FF93E091E002F091E1028081E0918B
S1131420E602F091E70282FD12C090818091E90208
S11314308F5F8F732091EA02821751F0E091E902E5
S1131440F0E0E053FD4F958F8093E90201C0808165
S1131450FF91EF919F918F912F910F900FBE0F905D
S11314601F9018951F920F920FB60F9211242F936D
S11314703F934F935F936F937F938F939F93AF9318
S1131480BF93EF93FF9380ED92E00E946B09FF916D
S1131490EF91BF91AF919F918F917F916F915F91E8
S11314A04F913F912F910F900FBE0F901F90189561
S11314B080ED92E00E94200921E0892B09F420E0CC
S11314C0822F0895E0EDF2E01382128288EE93E019
S11314D0A0E0B0E084839583A683B7838FE492E091
S11314E09183808385EC90E09587848784EC90E0F9
S11314F09787868780EC90E0918B808B81EC90E0DD
S1131500938B828B82EC90E0958B848B86EC90E0BD
S1131510978B868B118E128E138E148E08950895D8
S11315200E942D100E948F0A0E94D005CDE5D9E0BB
S11315300E9432082097E1F30E945D09F9CFCF920F
S1131540DF92EF92FF920F931F93CF93DF936C017F
S11315507A018B01C0E0D0E0CE15DF0581F0D8011F
S11315606D918D01D601ED91FC910190F081E02DFA
S1131570C6010995892B11F02196EECF7E01C70192
S1131580DF91CF911F910F91FF90EF90DF90CF905B
S11315900895EF92FF920F931F93CF93DF938C01E3
S11315A07B01C0E0D0E0F701EC0FFD1F64916623DE
S11315B061F0D801ED91FC910190F081E02DC8011A
S11315C00995892B11F02196EECFCE01DF91CF91B1
S11315D01F910F91FF90EF9008950C941E03DC016E
S11315E0ED91FC910190F081E02D099461E671E0A8
S11315F00C941E030F931F93CF93DF93EC010E946F
S11316001E038C01CE010E94F60A800F911FDF9108
S1131610CF911F910F9108958F929F92AF92BF9295
S1131620EF92FF920F931F93CF93DF93CDB7DEB763
S1131630A1970FB6F894DEBF0FBECDBF7C01FA01AF
S1131640CB0119A2223008F42AE08E010F5D1F4F4E
S1131650822E912CA12CB12CBF01A50194010E94D2
S11316609B1EF901CA01015011096A3010F4605D32
S113167001C0695CD8016C93232B242B252B61F7C3
S1131680B801C7010E941E03A1960FB6F894DEBFED
S11316900FBECDBFDF91CF911F910F91FF90EF90BF
S11316A0BF90AF909F908F9008952115310541F41C
S11316B0DC01ED91FC910190F081E02D642F0994FF
S11316C00C940C0B9A01462F50E060E070E00C94EF
S11316D0550B0F931F93CF93DF93EC010E94620B82
S11316E08C01CE010E94F60A800F911FDF91CF91E9
S11316F01F910F9108959A01AB0160E070E00C9482
S1131700550B0F931F93CF93DF93EC010E94550B5E
S11317108C01CE010E94F60A800F911FDF91CF91B8
S11317201F910F910895CF92DF92EF92FF920F9342
S11317301F93CF93DF932115310581F4DC01ED91E3
S1131740FC910190F081E02D642FDF91CF911F91E6
S11317500F91FF90EF90DF90CF9009942A303105DC
S113176001F577FF1DC06A017B01EC016DE20E9467
S1131770EF0A8C0144275527BA014C195D096E09FB
S11317807F092AE0CE010E940C0B800F911FDF918C
S1131790CF911F910F91FF90EF90DF90CF9008951C
S11317A02AE0DF91CF911F910F91FF90EF90DF908E
S11317B0CF900C940C0B9A01AB01770F660B770B4F
S11317C00C94930B0F931F93CF93DF93EC010E9420
S11317D0DB0B8C01CE010E94F60A800F911FDF9172
S11317E0CF911F910F9108950F931F93CF93DF9380
S11317F0EC010E94B50F688779878A879B87E88107
S1131800F9810284F385E02DCE01099597FF17C075
S11318100E94B50F088519852A853B85DC01CB011B
S1131820801B910BA20BB30B0C811D812E813F8178
S113183080179107A207B30710F38FEF9FEFDF9193
S1131840CF911F910F910895AF92BF92CF92DF92E3
S1131850EF92FF920F931F93CF93DF9321153105DE
S1131860C1F089015C016A01C0E0D0E0E62EF12CF0
S1131870C5010E94F40B97FD0FC08E159F0561F002
S1131880F60181936F0121960C171D0789F7C80192
S113189004C080E090E001C0CE01DF91CF911F91A0
S11318A00F91FF90EF90DF90CF90BF90AF9008958D
S11318B04F925F926F927F928F929F92AF92BF925C
S11318C0CF92DF92EF92FF920F931F93CF93DF9308
S11318D000D000D01F92CDB7DEB78B0129013A01A9
S11318E090910001891721F09F3F09F04DC205C076
S11318F0EEE8F0E024912D8384C080930001EEE8AB
S1131900F0E094919D839F3F09F43EC2913009F425
S11319104DC058F1923009F074C01092B00010928A
S1131920B1009091B00092609093B0009091B1009A
S113193091609093B100282F30E0F901E954FF4FF2
S1131940E491F0E0EE0FFF1FEB52FF4F45915491ED
S113195050936F0340936E03F901ED55FF4FE491EB
S1131960E0936D0392E09D830BC214BC15BC94B547
S1131970926094BD95B5916095BD282F30E0F90132
S1131980E954FF4FE491F0E0EE0FFF1FEB52FF4FDD
S11319904591549150937D0340937C03F901ED5597
S11319A0FF4FE491E0937B031D82EAC11092800013
S11319B010928100909181009860909381009091A1
S11319C08100916090938100282F30E0F901E9545F
S11319D0FF4FE491F0E0EE0FFF1FEB52FF4F4591F4
S11319E054915093760340937503F901ED55FF4FDD
S11319F0E491E093740361E00E94911021E02D834F
S1131A0089C02D8127FDC0C161E00E9491108D81A4
S1131A108D7F09F07FC04801A12CB12C60E072E1F8
S1131A208AE790E0A50194010E94BD1E29833A83B0
S1131A304B835C8369017A0181E0C81AD108E1080B
S1131A40F1089FEFC916D104E104F10409F008F488
S1131A504EC060E472E48FE090E0A50194010E941E
S1131A60BD1E69017A0181E0C81AD108E108F108B4
S1131A709D81923009F52FEFC216D104E104F104DF
S1131A8009F008F444C160E970ED83E090E0A50139
S1131A9094010E94BD1E69017A0181E0C81AD1082F
S1131AA0E108F1089FEFC916D104E104F10411F033
S1131AB008F0BAC083E027C02FEFC216D104E104B6
S1131AC0F104B9F0B0F068E478EE81E090E0A501AB
S1131AD094010E94BD1E69017A0181E0C81AD108EF
S1131AE0E108F1089D81992309F413C1DCC081E068
S1131AF001C082E09D81911106C095B5987F892B24
S1131B0085BD44C085E09091B100987F892B809376
S1131B10B1003CC04801A12CB12C60E072E18AE71D
S1131B2090E0A50194010E94BD1E69017A0181E043
S1131B30C81AD108E108F108C114D10491E0E906FA
S1131B40F10488F068E478EE81E090E0A501940166
S1131B500E94BD1E69017A0181E0C81AD108E1081A
S1131B60F10883E001C081E09D81913079F4909186
S1131B708100987F892B8093810041145104610472
S1131B80710449F42FEF3FEFA9012CC04114510413
S1131B906104710471F0D801AA0FBB1FA301920163
S1131BA00E94F11E28EE33E040E050E00E949B1EAC
S1131BB003C02FEF3FEFA9018D81813099F082306E
S1131BC019F18111E1C0C7BC20937E0330937F03D8
S1131BD0409380035093810380916E0082608093D0
S1131BE06E00D2C0D0928900C092880020937703FF
S1131BF0309378034093790350937A0380916F0074
S1131C00826080936F00C0C0C092B30020937003C1
S1131C103093710340937203509373038091700067
S1131C20826080937000B0C068E478EE81E090E058
S1131C30A50194010E94BD1E69017A0191E0C91AAF
S1131C40D108E108F1082FEFC216D104E104F10430
S1131C5041F138F164E274EF80E090E0A501940171
S1131C600E94BD1E69017A0181E0C81AD108E10809
S1131C70F1089FEFC916D104E104F10409F008F456
S1131C8041CF62E17AE780E090E0A50194010E94EF
S1131C90BD1E69017A0181E0C81AD108E108F10882
S1131CA019C084E030CF2FEFC216D104E104F1044F
S1131CB009F008F463C062E17AE780E090E0A501EE
S1131CC094010E94BD1E69017A0191E0C91AD108EC
S1131CD0E108F1088FEFC816D104E104F104A9F07A
S1131CE0A0F089819A81AB81BC812AE0B595A79542
S1131CF0979587952A95D1F76C017D0121E0C21A49
S1131D00D108E108F10887E0FECE86E0FCCE82E04F
S1131D10FACE8FEFC816D104E104F10469F160F141
S1131D2062E17AE780E090E0A50194010E94BD1E83
S1131D3069017A0191E0C91AD108E108F1082FEF8D
S1131D40C216D104E104F104A9F0A0F089819A81BA
S1131D50AB81BC813AE0B595A795979587953A955F
S1131D60D1F76C017D0121E0C21AD108E108F10824
S1131D7085E0C3CE84E0C1CE83E0BFCE84E0BACE9A
S1131D8061E00E94911047CE0F900F900F900F903A
S1131D900F90DF91CF911F910F91FF90EF90DF9003
S1131DA0CF90BF90AF909F908F907F906F905F90F7
S1131DB04F900895813039F018F0823051F0089531
S1131DC010926E00089580916F008D7F80936F0054
S1131DD00895809170008D7F8093700081E08093DE
S1131DE0B0008091B100887F84608093B10010922C
S1131DF0B3000895CF93C82F80910001C81307C082
S1131E00EEE8F0E084919FEF9093000101C08FEF22
S1131E100E94DA0E60E08C2FCF910C94CD101F92AB
S1131E200F920FB60F9211242F933F934F935F930A
S1131E306F937F938F939F93AF93BF93EF93FF938E
S1131E408091700390917103A0917203B091730318
S1131E50892B8A2B8B2B51F190916D03E0916E03AA
S1131E60F0916F0380818927808380917003909122
S1131E707103A0917203B0917303181619061A0620
S1131E801B06C4F48091700390917103A0917203B6
S1131E90B09173030197A109B109809370039093E2
S1131EA07103A0937203B093730304C08091000183
S1131EB00E94FA0EFF91EF91BF91AF919F918F9184
S1131EC07F916F915F914F913F912F910F900FBE32
S1131ED00F901F9018951F920F920FB60F92112416
S1131EE02F933F938F939F93AF93BF9380918303DB
S1131EF090918403A0918503B0918603309182036D
S1131F0023E0230F2D3720F40196A11DB11D05C038
S1131F1026E8230F0296A11DB11D2093820380930E
S1131F20830390938403A0938503B09386038091E5
S1131F30870390918803A0918903B0918A03019645
S1131F40A11DB11D8093870390938803A0938903F7
S1131F50B0938A03BF91AF919F918F913F912F913D
S1131F600F900FBE0F901F9018952FB7F8946091A3
S1131F7083037091840380918503909186032FBF1E
S1131F8008953FB7F8948091870390918803A091B6
S1131F908903B0918A0326B5A89B05C02F3F19F089
S1131FA00196A11DB11D3FBFBA2FA92F982F8827D5
S1131FB0820F911DA11DB11DBC01CD0142E0660F30
S1131FC0771F881F991F4A95D1F708958F929F9282
S1131FD0AF92BF92CF92DF92EF92FF926B017C019E
S1131FE00E94C10F4B015C01C114D104E104F1044E
S1131FF001F10E94631C0E94C10FDC01CB0188190E
S11320009909AA09BB09883E9340A105B10560F36B
S113201021E0C21AD108E108F10888EE880E83E0B5
S1132020981EA11CB11CC114D104E104F10419F7D8
S1132030DBCFFF90EF90DF90CF90BF90AF909F9059
S11320408F9008958230910538F0880F991F880F7A
S1132050991F05970197F1F70895789484B58260E4
S113206084BD84B5816084BD85B5826085BD85B538
S1132070816085BDEEE6F0E0808181608083E1E8E7
S1132080F0E010828081826080838081816080831F
S1132090E0E8F0E0808181608083E1EBF0E0808122
S11320A084608083E0EBF0E0808181608083EAE7F4
S11320B0F0E080818460808380818260808380817D
S11320C0816080838081806880831092C10008953C
S11320D0833081F028F4813099F08230A1F00895A2
S11320E08730A9F08830B9F08430D1F48091800031
S11320F08F7D03C0809180008F7780938000089546
S113210084B58F7702C084B58F7D84BD0895809196
S1132110B0008F7703C08091B0008F7D8093B000B2
S11321200895CF93DF9390E0FC01ED55FF4F249188
S1132130FC01E954FF4F8491882361F190E0880FFA
S1132140991FFC01E152FF4FC591D491FC01EB5260
S1132150FF4FA591B491611109C09FB7F89488818C
S1132160209582238883EC912E230BC0623061F486
S11321709FB7F8948881322F309583238883EC911C
S11321802E2B2C939FBF06C08FB7F894E8812E2B7B
S113219028838FBFDF91CF9108951F93CF93DF934F
S11321A0282F30E0F901E157FF4F8491F901ED55F3
S11321B0FF4FD491F901E954FF4FC491CC23C1F0EE
S11321C0162F81110E946810EC2FF0E0EE0FFF1F14
S11321D0EB52FF4FA591B4919FB7F894111104C02D
S11321E08C91D095D82302C0EC91DE2BDC939FBF59
S11321F0DF91CF911F910895CF93DF93282F30E083
S1132200F901E157FF4F8491F901ED55FF4FD49146
S1132210F901E954FF4FC491CC2391F081110E943C
S11322206810EC2FF0E0EE0FFF1FE553FF4FA59170
S1132230B491EC91ED2381E090E021F480E002C0C0
S113224080E090E0DF91CF910895FC011382128227
S11322508DE692E091838083138608951F93CF9334
S1132260DF93EC01162F6C818FE893E00E94D31B5F
S11322706B85612B8FE893E00E94821B8FE893E0CB
S1132280DF91CF911F910C945C1CFC01138660E0DC
S11322900C942E1128E0FC01238760E00C942E118D
S11322A00F931F93CF938C01C62F64600E942E114D
S11322B081E090E00E9422106C2F6B7FC8010E9485
S11322C02E1182E390E0CF911F910F910C94221074
S11322D01F93CF93DF93EC01162F0E942E11612FD1
S11322E0CE01DF91CF911F910C9450110F931F9346
S11322F0CF93DF938C01C62FD42F607F642B0E9471
S1132300681180E1C89FB00111246D2BC801DF91D1
S1132310CF911F910F910C94681140E00C947611A9
S113232061E00E948D1180ED97E00C94221062E030
S11323300E948D1180ED97E00C942210CF93DF93CF
S1132340CDB7DEB728970FB6F894DEBF0FBECDBF6A
S11323509C0188E0E1E0F1E0DE01119601900D922C
S11323608A95E1F7F9018085841710F44FEF480F3F
S1132370FE013196E40FF11DE40FF11D9081690F08
S11323806068C90128960FB6F894DEBF0FBECDBFB2
S1132390DF91CF910C948D11FC016681262F24606E
S11323A026836C600C948D1141E00E94761181E0CB
S11323B090E00895CF93DF93EC01423018F08D81C3
S11323C088608D834887222329F0413019F48D8158
S11323D084608D8362E370E080E090E00E94E60F09
S11323E06B85CE010E942E1168EE73E080E090E0D0
S11323F00E94E60F60E3CE010E94681184E991E136
S11324000E94221060E3CE010E94681184E991E1E8
S11324100E94221060E3CE010E94681186E990E0D8
S11324200E94221060E2CE010E9468116D816062F8
S1132430CE010E948D1184E08E83CE010E94CC11C6
S1132440CE010E94901182E08F8366E0CE010E944B
S11324508D11CE01DF91CF910C949711CF93DF931F
S1132460EC018FE893E00E94C11B1D8220E04A85A5
S11324706985CE01DF91CF910C94DA11FC0164835C
S1132480418722870C942E12BC016E5F7F4FDC01C2
S1132490ED91FC910190F081E02D40E0099591E0EF
S11324A0811190E0892F089520918D03222399F0C2
S11324B04FB7F89420918D03213059F42DB3209314
S11324C08B033DB320918C03209523232DBB4FBF59
S11324D002C040938B038CBD9DBD08958EBD00004A
S11324E00DB407FEFDCF8EB5089580918D0388232A
S11324F061F09FB7F89420918D0380918B03213074
S113250019F48DBB9FBF08958FBF0895AF92BF92FA
S1132510CF92DF92EF92FF920F931F93CF93DF93AB
S11325206C01A42E79016068B62E83E590E00E94C8
S1132530541260E0F60186850E94CD10AA948B2D7A
S11325400E946E120023A1F0CFEFD0E001C0CC0FA7
S11325500A95EAF78B2D0E946E122C2F2095F70115
S1132560908192238C23892BF701808311E001C091
S113257010E0812F90E0E701C80FD91F1A1530F43D
S11325808B2D0E946E1288831F5FF3CF80E00E9420
S11325906E12888361E0F60186850E94CD10DF917A
S11325A0CF911F910F91FF90EF90DF90CF90BF904C
S11325B0AF900C947512FC0189E792E091838083BB
S11325C08AE086878FEF87870895FC0189E792E088
S11325D0918380836687478708950F931F93CF93D2
S11325E0DF93EC01062F142F83E590E00E94541230
S11325F060E08E850E94CD10802F0E946E12812F84
S11326000E946E1261E08E850E94CD10DF91CF9101
S11326101F910F910C947512DF92EF92FF920F931A
S11326201F93CF93DF938C01C62FF42ED22EE32E6B
S113263083E590E00E94541260E0F80186850E94D0
S1132640CD108C2F0E946E12CD2DDE2DCE018F0D5C
S1132650911D7C01EC16FD0621F089910E946E12F9
S1132660F9CF61E0F80186850E94CD10DF91CF910A
S11326701F910F91FF90EF90DF900C9475121F93B0
S1132680CF93DF93EC01162F83E590E00E94541260
S113269060E08E850E94CD10812F80680E946E12AA
S11326A080E00E946E12182F61E08E850E94CD108A
S11326B00E947512812FDF91CF911F9108950F937E
S11326C041110E9486120F9108950F931F93CF9387
S11326D0DF938C01D62FC42F0E943F13482F4C2B1D
S11326E06D2FC801DF91CF911F910F910C94ED12C2
S11326F00F931F93CF93DF938C01D62FC42F0E9487
S11327003F13C0954C2F48236D2FC801DF91CF9103
S11327101F910F910C94ED12CF92DF92EF92FF92E2
S11327200F931F93CF93DF93EC016B01142F790167
S113273040E062E00E94ED1244E06AE0CE010E94B3
S1132740ED1240E864E1CE010E94ED129601412FA2
S113275062E1CE010E940C1343E062E0CE010E94CC
S1132760ED1208E813E16AE0CE010E943F1382FFF4
S113277013C040E062E0CE010E94ED1264E4CE0199
S11327800E943F13F701808362E4CE010E943F134D
S1132790F701818380E004C00150110921F783E02F
S11327A0DF91CF911F910F91FF90EF90DF90CF9029
S11327B008950F931F93CF938C014FE062E00E9422
S11327C0ED12C3E062E370E080E090E00E94E60F67
S11327D062E0C8010E943F1384FF02C0C15091F718
S11327E0CF911F910F910895CF93DF93EC0168E28D
S11327F00E943F13982F9370933041F0482F436009
S113280068E2CE01DF91CF910C94ED12DF91CF916C
S11328100895CF93DF93EC0161E08E850E949110BF
S113282061E08E850E94CD108F858F3F09F451C0E1
S113283060E00E9491108F850E94FC10892B09F0A2
S113284048C061E08F850E94911060E08F850E94EE
S1132850CD1082E090E00E94221061E08F850E94FA
S1132860CD1062E370E080E090E00E94E60F40E06B
S113287064E2CE010E94ED1240E066E2CE010E94C5
S1132880ED1246E268E4CE010E94ED1240E864E5F0
S1132890CE010E94ED1249EA66E5CE010E94ED12D6
S11328A043E068E5CE010E94ED1248EE6AE5CE01F0
S11328B00E94ED1240E46AE2CE010E94ED124DE363
S11328C062E2CE010E94ED12CE01DF91CF910C9411
S11328D0F413CE010E94D913CACF6CE40E943F13B3
S11328E0807708950F931F93CF938C01C62F0E9476
S11328F06D148C1771F040E76CE4C8010E947813E2
S11329004C2F40776CE4C801CF911F910F910C9428
S11329106513CF911F910F9108953F924F925F924B
S11329206F927F928F929F92AF92BF92CF92DF92DB
S1132930EF92FF920F931F93CF93DF9300D0CDB705
S1132940DEB73C01162F942E2901A114B10419F00D
S1132950F501408101C040E0342EF0E18F9E300C3F
S1132960112440E062E0C3010E94ED124FE768E0E9
S1132970C3010E94ED1240E864E1C3010E94ED121C
S11329809201402F62E1C3010E940C13432D6AE1BE
S1132990C3010E94ED12412F62E0C3010E94ED12B7
S11329A01C3029F440E86AE1C3010E94651300ED7C
S11329B017E068E0C3010E943F13982F992139F46E
S11329C080FD03C001501109A1F783E065C06CE0EC
S11329D0C3010E943F13182F837109F05AC0E114F8
S11329E0F104F9F0C114D104E1F064E1C3010E94DF
S11329F03F13F6019081981708F445C08083082D91
S1132A009701482F62E1C3010E945F1368E1C3018B
S1132A100E943F138770A114B10421F0F501808353
S1132A2001C080E013FD31C0E114F10481F1C1144F
S1132A30D10469F19E89992351F1F6014081413015
S1132A4021F4843041F58FEF27C0423020F1811109
S1132A5022C042509E012F5F3F4FB701C3010E9425
S1132A608C13811119C0F6018081E80EF11CF70165
S1132A7032979081898198130EC0319690818A8112
S1132A80981309C004C084E007C082E005C080E058
S1132A9003C081E001C087E00F900F90DF91CF91D8
S1132AA01F910F91FF90EF90DF90CF90BF90AF9068
S1132AB09F908F907F906F905F904F903F9008957C
S1132AC08F92AF92BF92CF92DF92EF92FF920F93C9
S1132AD01F93AF928C2C570168017901042F9B013D
S1132AE040E36CE00E948D140F901F910F91FF90B2
S1132AF0EF90DF90CF90BF90AF908F9008952F927A
S1132B003F924F925F926F927F928F929F92AF9279
S1132B10BF92CF92DF92EF92FF920F931F93CF93C6
S1132B20DF93CDB7DEB72C970FB6F894DEBF0FBE98
S1132B30CDBF413508F005C1342E3B014C0140E8BE
S1132B406CE10E9478132224239432E0231691F03E
S1132B5083E02816E1F091E02912F7C083E9898324
S1132B603320D1F081E0F3019081953008F480E0C6
S1132B70B12C17C0F5E9F983332081F081E0F3012A
S1132B809081983008F480E043E0B42E0AC087E9CD
S1132B90898336E0B32E04C0B12C02C023E0B22EE8
S1132BA080E0D32CF8E0BF9ED0181124D7FCD12CA0
S1132BB0882321F098E89B8333E001C032E021E0D0
S1132BC09D2D977009F420E09D2D959595959595EB
S1132BD0290F31F4882309F491C038E0D30E8EC054
S1132BE0811102C094E001C093E0291708F4922FE8
S1132BF0EB2DF0E03196E60DF71D232F4191A1E076
S1132C00B0E0AC0FBD1FA20FB11D4C932F5F422F3C
S1132C10431B491798F3DECF8111DDC09FE19D1559
S1132C200CF495C080E2D82E90E79A839B818C8126
S1132C3089279D8189279E8189278F839E01285F0B
S1132C403F4F47E0BE016F5F7F4FC4010E948C136A
S1132C508111C1C01B86E3E0EA87CE0107962C01EF
S1132C6099E09C87CB844C2D4295407F4C0D6AE1C2
S1132C70C4010E94ED12A12CCE010B967C018E01A1
S1132C80065F1F4F92014C85BE016F5F7F4FC401E9
S1132C900E946015823009F0BFCF6CE1C4010E942C
S1132CA03F1385FD50C08F7109F480E2282F30E076
S1132CB04D2DDD0C550B421753070CF046C0D82E92
S1132CC085958595859591E0980F422F477081E011
S1132CD009F480E0890FE1E0F0E0EC0FFD1FE80F5C
S1132CE0F11D215031092770332781E090E001C0A4
S1132CF0880F2A95EAF79081892B80838FE18D15BF
S1132D000CF492CF9D2D97709B878D2D859585957D
S1132D1085958E5F292FE0E18E9F200D11242A8353
S1132D2021E0911101C020E0280F2C874424439412
S1132D30512C4C0E5D1E480E511CF9E0F81BFA870D
S1132D4091CF86E048C082E046C085E044C08B81D4
S1132D508838F1F182E094E0EB2DF0E03196E60D55
S1132D60F71D980FA1E0B0E0AC0FBD1FA80FB11D77
S1132D702C9121938F5F9813F5CF8A85833021F5A9
S1132D808B85811121C09E012D5F3F4F41E0B2012F
S1132D90C4010E948C1381111EC09B81F2018181A8
S1132DA0981314C09C818281981310C0808182FF83
S1132DB002C02394CACEF3018387822D880F820D2B
S1132DC08F5F808380E007C081E005C087E003C097
S1132DD083E093E0C1CF2C960FB6F894DEBF0FBE0C
S1132DE0CDBFDF91CF911F910F91FF90EF90DF90B6
S1132DF0CF90BF90AF909F908F907F906F905F9097
S1132E004F903F902F9008954F925F926F927F92D0
S1132E108F929F92AF92CF92EF92FF920F931F9354
S1132E20CF93DF9300D0CDB7DEB76A834115510548
S1132E3039F1F9016081623018F149012A013C013C
S1132E4040E86CE10E94781387E08983A12CC12CAF
S1132E50CE0101967C018401920141E0BE016E5FC6
S1132E607F4FC3010E94601581110DC0F401808160
S1132E70823041F481E09981911105C080E003C062
S1132E8084E001C081E00F900F90DF91CF911F91FA
S1132E900F91FF90EF90CF90AF909F908F907F9085
S1132EA06F905F904F9008959A01AB0166E20C9485
S1132EB004170F931F93CF93DF9300D01F92CDB7C6
S1132EC0DEB78C0182E08B8340E064E2C8010E949B
S1132ED0ED1240E066E2C8010E94ED1246E268E4A9
S1132EE0C8010E94ED12AE014D5F5F4FBE016F5FDE
S1132EF07F4FC8010E945417982F81E0992319F03D
S1132F00923009F080E00F900F900F90DF91CF91F5
S1132F101F910F9108958F929F92AF92CF92EF924B
S1132F20FF920F931F93CF93DF9300D000D0CDB7C0
S1132F30DEB74C0180E589831A829E012D5F3F4FE5
S1132F4042E0BE016F5F7F4FC4010E948C13811168
S1132F5016C0A12CC12CE12CF12C00E010E020E0E3
S1132F6030E044E0BE016F5F7F4FC4010E946015F2
S1132F70833021F0811103C081E001C080E00F9013
S1132F800F900F900F90DF91CF911F910F91FF90B1
S1132F90EF90CF90AF909F908F900895803D27E061
S1132FA0920710F0805D974050E0E9EEF0E021E0F8
S1132FB0261730F43491430F511D2F5F3196F8CF0B
S1132FC0633038F09C0123703327232B11F44F5FB7
S1132FD05F4FBC016D5F7F4F7695679576956795DA
S1132FE0EDE6F1E08E9F90018F9F300D9E9F300D96
S1132FF01124C9010197860F971F840F951F089507
S1133000FC01908190539A3008F090E081818053C4
S11330102AE0929F800D112408958F929F92AF927F
S1133020BF92CF92DF92EF92FF92CF93DF93EC01A6
S11330306A017B0180E8C81A83E4D80A8DE6E80AAD
S113304088E3F80A8CE3882E912CA12CB12CC701BB
S1133050B601A50194010E949B1E6D83CA01B901AA
S1133060A50194010E949B1E6C83C701B60120E157
S11330703EE040E050E00E949B1ECA01B90128E1F5
S113308030E040E050E00E949B1E6B83C701B60114
S113309020E831E541E050E00E949B1E18824881FF
S11330A0542F537081E009F080E090E0BC01635933
S11330B07E4F2617370738F0281B390B2D56314021
S11330C04F5F4883ECCF81E089838981E82FF0E06A
S11330D0E851FF4FE491511103C0823009F4EF5FCE
S11330E0F0E02E173F0720F02E1B3F0B8F5FECCF35
S11330F02F5F2A83DF91CF91FF90EF90DF90CF90E5
S1133100BF90AF909F908F900895CF92EF920F93BE
S1133110FC01603D87E0780710F0605D77406083D4
S1133120418322830383E482C5820F91EF90CF9081
S11331300895EF92FF920F931F93CF93DF93CDB730
S1133140DEB72B970FB6F894DEBF0FBECDBF8C0150
S11331507A014BE050E0CE0101960E941A1FCE0185
S11331600A960E940018F8018083E9818E2F90E06E
S1133170FC01E154F109E331F10548F5EC5CFF4F42
S11331800C94DC1E8A81813639F08B818E3611F0E5
S113319087E01BC086E019C081E017C082E015C03B
S11331A08B81823711F088E010C084E00EC08B81DF
S11331B0823711F085E009C083E007C089E005C0CB
S11331C08AE003C08BE001C08CE0F8018183CE016A
S11331D005960E940018F801828348E050E0B70188
S11331E0CE0101960E941A1FCE0101960E9400187A
S11331F0F8018383CE0104960E940018F8018483A9
S1133200CE0107960E940018F80185832B960FB60D
S1133210F894DEBF0FBECDBFDF91CF911F910F9108
S1133220FF90EF900895EF92FF920F931F93CF9327
S1133230DF93EC0188814A81698190E00E94CE1776
S11332409C01A8E1B0E00E94E21E2B817B018C016D
S1133250E20EF11C011D111DA8019701ACE3B0E0C1
S11332600E94F11E2C817B018C01E20EF11C011DD8
S1133270111DA80197010E94F11E2D81DC01CB01D3
S1133280820F911DA11DB11DBC01CD0160587C4B65
S11332908249974CDF91CF911F910F91FF90EF904E
S11332A00895CF92DF92EF92FF920F931F93CF93E3
S11332B0DF93EC01CB018A010E9413196B017C019D
S11332C0C8010E941319C61AD70AE80AF90AC88263
S11332D0D982EA82FB82CE01DF91CF911F910F91B7
S11332E0FF90EF90DF90CF9008958FE893E00E94D5
S11332F0C11B81E00895CF92DF92EF92FF920F936A
S11333001F93CF93DF93EC0168E670E08FE893E0BE
S11333100E94DD1B60E08FE893E00E94821B8FE82F
S113332093E00E945C1C47E050E068E670E08FE8A0
S113333093E00E94591C8FE893E00E94FB1A8F7758
S1133340982F92959F701AEF082F919F000D1124CA
S11333508FE893E00E94FB1A9C01332794E0359593
S113336027959A95E1F7F82E129FF00C11248FE817
S113337093E00E94FB1A9C01332744E0359527957E
S11333804A95E1F7E82E129FE00C11248FE893E0B0
S11333900E94FB1A8FE893E00E94FB1A9C013327DA
S11333A054E0359527955A95E1F7D82E129FD00C05
S11333B011248FE893E00E94FB1A9C01332764E0F8
S11333C0359527956A95E1F7C82E129FC00C1124F4
S11333D08FE893E00E94FB1A9C01332774E0359533
S11333E027957A95E1F7129F800D11248883C9826D
S11333F0DA82EB82FC820D83CE01DF91CF911F91A3
S11334000F91FF90EF90DF90CF900895CF93C82F46
S113341068E68FE893E00E94D31B6C2F8FE893E05B
S11334200E94821B8FE893E00E945C1C41E068E6E6
S11334308FE893E00E94561C8FE893E00E94FB1AE9
S1133440CF9108950F931F93CF938C0168E670E09A
S11334508FE893E00E94DD1B60E08FE893E00E9418
S1133460821BF8012581CAE0822F6C2F0E948F1ED7
S1133470682F660F860F880F682F620F8FE893E01E
S11334800E94821BF8012481822F6C2F0E948F1EC0
S1133490682F660F860F880F682F620F8FE893E0FE
S11334A00E94821BF8012381822F6C2F0E948F1EA1
S11334B0682F660F860F880F682F620F8FE893E0DE
S11334C00E94821B60E08FE893E00E94821BF80157
S11334D02281822F6C2F0E948F1E682F660F860F09
S11334E0880F682F620F8FE893E00E94821BF80117
S11334F02181822F6C2F0E948F1E682F660F860FEA
S1133500880F682F620F8FE893E00E94821BF801F6
S11335102081822F6C2F0E948F1E682F660F860FCA
S1133520880F682F620F8FE893E00E94821B8FE858
S113353093E00E945C1C8FE00E94061AC82F68E684
S11335408FE893E00E94D31B6FE08FE893E00E9422
S1133550821B6C2F6F778FE893E00E94821B8FE8A9
S113356093E0CF911F910F910C945C1C8FE00E940B
S1133570061A87FB882780F90895CF93CFB7F8946C
S113358080918E03811127C0E1ECF0E08491EDEA93
S1133590F0E09491E82FF0E0EE0FFF1FE152FF4FAF
S11335A0A591B491EC91E92321F461E08AE00E94B1
S11335B0CD1061E08AE00E9491108CB580618CBDD1
S11335C08CB580648CBD61E08DE00E94911061E057
S11335D08BE00E94911080918E038F5F80938E0305
S11335E0CFBFCF9108958091C30390E02091C4038D
S11335F0821B910908959091C4038091C303981785
S113360050F4E92FF0E0EB53FC4F208130E09F5F52
S11336109093C40302C02FEF3FEFC9010895E091D6
S1133620C4038091C303E81730F4F0E0EB53FC4F7C
S1133630808190E008958FEF9FEF08950895CF93D0
S1133640DF93EC01E0919B03F0919C033097F1F040
S11336509091C4038091C3039817C0F090E0292F80
S113366030E02617370754F4DE01A20FB31F4C9144
S1133670D901AB53BC4F4C939F5FF1CF1092C4035D
S11336806093C303CB01DF91CF910994DF91CF9174
S11336900895E0919D03F0919E03309729F01092D4
S11336A0A1031092A00309940895CF92DF92EF92A0
S11336B0FF920F931F93CF93DF937C01CB018A0179
S11336C020919F03222389F0EB016B01C40ED51EC8
S11336D0CC15DD0569F06991D701ED91FC9101905C
S11336E0F081E02DC7010995F3CF642F0E94201DBE
S11336F0C801DF91CF911F910F91FF90EF90DF9060
S1133700CF900895CF93DF931F92CDB7DEB769832F
S113371020919F032223D1F02091A003203240F076
S113372021E030E0FC013383228380E090E015C087
S11337308091A103E82FF0E0EE55FC4F998190832E
S11337408F5F8093A1038093A00305C061E0CE0145
S113375001960E94201D81E090E00F90DF91CF91AF
S11337600895FC011382128288EE93E0A0E0B0E099
S113377084839583A683B78383E892E091838083CF
S113378008951092C4031092C3031092A1031092DF
S1133790A0030E94641C89E49BE10E944D1D8FE1FB
S11337A09BE10C94481D81E080939F036093C203C6
S11337B01092A1031092A00308950C94D31B0F93AD
S11337C0062F21E04091A00362EA73E08091C203D6
S11337D00E94CA1C1092A1031092A00310929F038E
S11337E00F9108954F925F926F927F92AF92BF9222
S11337F0CF92EF92FF920F931F93CF93DF935C01CD
S1133800F62ED42F28013901EE2021F10E94D31B7A
S1133810CE2DC43008F0C3E0C150C0F028E0C29FF0
S1133820C0011124A301920104C056954795379510
S113383027958A95D2F7CA01B901D501ED91FC917A
S11338400190F081E02DC5010995E6CF60E0C50146
S11338500E94DF1B4D2FD13208F040E22C2D65EC85
S113386073E08F2D0E94821C1092C4038093C303C3
S1133870DF91CF911F910F91FF90EF90CF90BF9068
S1133880AF907F906F905F904F900895CF92EF929A
S11338900F931F93C22EE12C00E010E098010E94C8
S11338A0F21B1F910F91EF90CF90089521E00C949B
S11338B0461C21E00C94461C61E00C94DF1B8FE84D
S11338C093E00C94B11B08951092520481E080930C
S11338D0500410924F0461E082E10E94CD1061E037
S11338E083E10E94CD10E9EBF0E080818E7F80833C
S11338F080818D7F808388E48093B80085E4809301
S1133900BC000895413208F043C0909152049111D3
S1133910FCCF91E090935204209350042FEF209316
S1133920E50310922A04240F209329049093510450
S113393090915104880F892B8093510480914F04F6
S1133940813061F410924F04809151048093BB0044
S11339508091BC0083FDF8CF85EC01C085EE809397
S1133960BC00809152048130E1F380912A048417D1
S113397010F440912A04ABE2B4E0962FFB018E2FA1
S1133980891B841718F48D918193F9CF842F08959E
S113399080E008950F93413208F04AC09091520498
S11339A09111FCCF32E030935204009350043FEF66
S11339B03093E50310922A0440932904562FABE276
S11339C0B4E0FB013E2F351B341718F431913D93BD
S11339D0F9CF1092510430915104880F832B8093B6
S11339E0510480914F04813061F410924F0480910E
S11339F051048093BB008091BC0083FDF8CF85EC1B
S1133A0001C085EE8093BC00222321F080915204F2
S1133A108230D1F38091E5038F3F79F08091E50303
S1133A20803241F08091E503803331F094E005C0A9
S1133A3091E003C092E001C093E0892F0F910895B3
S1133A4040910704262F30E0240F311D2132310527
S1133A50DCF4209152042430C9F4FC0180E090E0AD
S1133A60861758F4309107042191DC01A75FBB4FFE
S1133A70A30FB11D2C930196F3CF80910704680F17
S1133A806093070480E0089581E0089582E008953A
S1133A9090934C0480934B04089590934E04809328
S1133AA04D04089585ED8093BC008091BC0084FD95
S1133AB0FCCF10925204089585EC8093BC001092C0
S1133AC0520408951F920F920FB60F9211242F9350
S1133AD03F934F935F936F937F938F939F93AF9392
S1133AE0BF93EF93FF938091B900887F803609F4E8
S1133AF09EC078F5883209F45DC090F4803109F4F1
S1133B0056C038F4882309F4F5C0883009F44FC04E
S1133B10F5C0883109F44EC0803209F45FC0EEC0AC
S1133B20803409F46AC058F4803309F457C08833E8
S1133B3009F0E4C08093E5030E945C1DDFC080357A
S1133B4009F44FC0883509F45DC0883409F0D6C043
S1133B50D3C0883909F4C4C0A8F4883709F467C00D
S1133B6038F4883609F463C0803709F460C0C6C0ED
S1133B70883809F4B5C0803909F45FC0803809F089
S1133B80BDC05BC0803B09F483C038F4803A09F4BB
S1133B9066C0883A09F47CC0B1C0803C09F4A4C072
S1133BA0883C09F4A1C0883B09F487C0A7C0809170
S1133BB0510410C090912A0480912904981770F53B
S1133BC0E0912A0481E08E0F80932A04F0E0E55D01
S1133BD0FB4F80818093BB0085EC83C08093E50319
S1133BE08BC0E0912A0481E08E0F80932A04809197
S1133BF0BB00F0E0E55DFB4F808390912A04809147
S1133C0029046BC0E0912A0481E08E0F80932A047A
S1133C108091BB00F0E0E55DFB4F80838091500410
S1133C2081116AC081E080934F0484EA5EC083E01E
S1133C30809352041092E603CFCF8091E603803242
S1133C4008F04EC0E091E60381E08E0F8093E60316
S1133C508091BB00F0E0E951FC4F8083BDCF0E940E
S1133C605C1D8091E603803230F4E091E603F0E0DD
S1133C70E951FC4F10826091E60370E0E0914B043F
S1133C80F0914C0487EE93E009951092E60336C058
S1133C9084E0809352041092080410920704E09187
S1133CA04D04F0914E04099580910704811105C0DB
S1133CB081E08093070410920904E091080481E0F4
S1133CC08E0F80930804F0E0E75FFB4F80818093C0
S1133CD0BB009091080480910704981708F47CCFE6
S1133CE085E88093BC000AC085EC8093BC001092E8
S1133CF0520404C01092E5030E94521DFF91EF91FB
S1133D00BF91AF919F918F917F916F915F914F91EF
S1133D103F912F910F900FBE0F901F901895991BF4
S1133D2079E004C0991F961708F0961B881F7A95AE
S1133D30C9F780950895A1E21A2EAA1BBB1BFD01A9
S1133D400DC0AA1FBB1FEE1FFF1FA217B307E40776
S1133D50F50720F0A21BB30BE40BF50B661F771FCE
S1133D60881F991F1A9469F76095709580959095AE
S1133D709B01AC01BD01CF010895052E97FB1EF4F4
S1133D8000940E94D41E57FD07D00E949B1E07FC7E
S1133D9003D04EF40C94D41E509540953095219543
S1133DA03F4F4F4F5F4F0895909580957095619563
S1133DB07F4F8F4F9F4F0895EE0FFF1F0590F49193
S1133DC0E02D0994A29FB001B39FC001A39F700D81
S1133DD0811D1124911DB29F700D811D1124911D0F
S1133DE008950E94E21EA59F900DB49F900DA49F7C
S1133DF0800D911D11240895FC0188279927E894CA
S1133E0021912032E9F3293010F02E30C8F32B32FF
S1133E1041F02D3239F4689404C00E946A1F820F65
S1133E20911D219120532A30C0F31EF49095819561
S1133E309F4F0895FB01DC0102C005900D92415093
S1133E405040D8F7089542E952E00E94431F089574
S1133E50FB01DC0102C001900D9241505040D8F7A3
S1133E600895DC0101C06D9341505040E0F708957E
S1133E70FB01DC010D900020E9F7119701900D92F0
S1133E800020E1F70895FA01A191B081009719F497
S1133E901097E1F0CD01DC01CD010D90002011F46B
S1133EA0C00113C0FB012191222319F02015D9F779
S1133EB0F3CFFB012191201519F41E92119606C02F
S1133EC02223C1F70D900020A1F7D001FA01A1939C
S1133ED0B08308957AE0979F902D879F802D910D50
S1133EE011240895AEE0B0E0E8E7FFE10C94492224
S1133EF00D891E8986E08C831A8309838FEF9FE7DF
S1133F009E838D83AE01475E5F4F6F89788DCE01AE
S1133F1001960E94941FEF81F885E00FF11F108233
S1133F202E96E4E00C946522ABE0B0E0EAE9FFE110
S1133F300C943B226C017B018A01FC0117821682DE
S1133F40838181FFCCC1CE0101963C01F6019381AE
S1133F50F70193FD859193FF81917F01882309F4F3
S1133F60BAC1853239F493FD859193FF81917F0124
S1133F70853229F4B60190E00E948B21E7CF912C81
S1133F80212C312CFFE1F315D8F08B3279F038F481
S1133F90803279F08332A1F4232D20611DC08D324B
S1133FA061F0803369F4232D216016C0832D826073
S1133FB0382EE32DE4603E2E2AC0F32DF8601DC098
S1133FC037FC2DC020ED280F2A3040F08E32B9F492
S1133FD036FC81C1232D2064322E19C036FE06C062
S1133FE08AE0989E200D1124922E11C0EAE02E9EA4
S1133FF0200D1124222EF32DF0623F2E08C08C36A2
S113400021F4832D8068382E02C0883641F4F701EC
S113401093FD859193FF81917F018111B3CF982FF7
S11340209F7D9554933028F40C5F1F4F9FE3998331
S11340300DC0833631F0833771F0833509F059C0F0
S113404021C0F801808189830E5F1F4F88248394E7
S1134050912C530113C02801F2E04F0E511CF801BA
S1134060A080B18036FE03C0692D70E002C06FEFFE
S11340707FEFC5010E9480214C018201F32DFF775F
S11340803F2E16C0280122E0420E511CF801A080E8
S1134090B18036FE03C0692D70E002C06FEF7FEF80
S11340A0C5010E9475214C01F32DF0683F2E820159
S11340B033FC1BC0822D90E088169906B0F4B6013B
S11340C080E290E00E948B212A94F4CFF50137FC22
S11340D0859137FE81915F01B60190E00E948B21AA
S11340E021102A9421E0821A91088114910471F715
S11340F0E8C0843611F0893641F5F80137FE07C06F
S113410060817181828193810C5F1F4F08C060813F
S11341107181072E000C880B990B0E5F1F4FF32D36
S1134120FF763F2E97FF09C0909580957095619515
S11341307F4F8F4F9F4FF0683F2E2AE030E0A3015E
S11341400E94C721882E861845C0853731F4232D57
S11341502F7EB22E2AE030E025C0932D997FB92E10
S11341608F36C1F018F4883579F0B5C0803719F06E
S1134170883721F0B0C0E92FE061BE2EB4FE0DC037
S1134180FB2DF460BF2E09C034FE0AC0292F26601F
S1134190B22E06C028E030E005C020E130E002C0C5
S11341A020E132E0F801B7FE07C0608171818281AD
S11341B093810C5F1F4F06C06081718180E090E0A5
S11341C00E5F1F4FA3010E94C721882E8618FB2D66
S11341D0FF773F2E36FE0DC0232D2E7FA22E89148D
S11341E058F434FE0BC032FC09C0832D8E7EA82EF9
S11341F005C0B82CA32C03C0B82C01C0B92CA4FE54
S11342000FC0FE01E80DF11D8081803321F49A2D49
S1134210997EA92E09C0A2FE06C0B394B39404C02B
S11342208A2D867809F0B394A3FC11C0A0FE06C0C1
S1134230B21488F4280C922C9B180EC0B21460F4AB
S1134240B60180E290E00E948B21B394F7CFB214C0
S113425018F42B1802C0982C212CA4FE10C0B6010F
S113426080E390E00E948B21A2FE17C0A1FC03C052
S113427088E790E002C088E590E0B6010CC08A2D82
S1134280867859F0A1FE02C08BE201C080E2A7FC4F
S11342908DE2B60190E00E948B21891438F4B601B6
S11342A080E390E00E948B219A94F7CF8A94F301E3
S11342B0E80DF11D8081B60190E00E948B218110F0
S11342C0F5CF222009F442CEB60180E290E00E94AC
S11342D08B212A94F6CFF6018681978102C08FEF55
S11342E09FEF2B96E2E10C945722FC01059061505C
S11342F070400110D8F7809590958E0F9F1F0895F8
S1134300FC016150704001900110D8F780959095A0
S11343108E0F9F1F08950F931F93CF93DF93FB017D
S1134320238121FD03C08FEF9FEF2CC022FF16C015
S113433046815781248135814217530744F4A08173
S1134340B1819D012F5F3F4F318320838C93268160
S113435037812F5F3F4F3783268314C08B01EC01D5
S1134360FB010084F185E02D0995892BE1F6D80144
S113437016968D919C911797019617969C938E9300
S11343801697CE01DF91CF911F910F910895FA01F5
S1134390AA27283051F1203181F1E8946F936E7F80
S11343A06E5F7F4F8F4F9F4FAF4FB1E03ED0B4E071
S11343B03CD0670F781F891F9A1FA11D680F791FB2
S11343C08A1F911DA11D6A0F711D811D911DA11DC3
S11343D020D009F468943F912AE0269F11243019D3
S11343E0305D3193DEF6CF010895462F4770405D6E
S11343F04193B3E00FD0C9F7F6CF462F4F70405D1D
S11344004A3318F0495D31FD4052419302D0A9F777
S1134410EACFB4E0A6959795879577956795BA9571
S1134420C9F700976105710508959B01AC010A2E37
S113443006945795479537952795BA95C9F7620F0E
S1134440731F841F951FA01D0895F999FECF92BD77
S113445081BDF89A992780B50895262FF999FECF42
S11344601FBA92BD81BD20BD0FB6F894FA9AF99A8D
S11344700FBE019608952F923F924F925F926F92D2
S11344807F928F929F92AF92BF92CF92DF92EF92E0
S1134490FF920F931F93CF93DF93CDB7DEB7CA1B61
S11344A0DB0B0FB6F894DEBF0FBECDBF09942A888C
S11344B0398848885F846E847D848C849B84AA8434
S11344C0B984C884DF80EE80FD800C811B81AA81C1
S11344D0B981CE0FD11D0FB6F894DEBF0FBECDBF8C
S10B44E0ED010895F894FFCFEB
S11344E8FF000040001400540023002D00457272A0
S11344F86F7220353032004572726F722035303158
S1134508004572726F7220353033004572726F72D3
S113451820353030004573706572616E646F2E2EDD
S11345282E0053746174696F6E2049502E2E2E2EFE
S11345382E2E005100494E494F4B0049005400505B
S1134548000D0A00530030393A33323A313300440B
S113455865632031332032303138003A00496E69BE
S11345687469616C697A65642E2E2E002353746F06
S113457872696E67204020002345726173696E6713
S113458820402000253032782530327825303278A2
S11345982530327800253034642D253032642D25B9
S11345A830326420253032643A253032643A25307A
S11345B832640041636365736F206E656761646F7D
S11345C82C2020496E666F726D616E646F2E2E2EDC
S11345D800253032642F253032642F25303464208E
S11345E8253032643A253032640041636365736F61
S11345F8207065726D697469646F004573706572C3
S11346086520706F72206661766F722E2E2E0041BF
S113461876616E63652E2E2E002530327825303271
S11346287825303278253032782A00000000008D51
S1134638099F0A4E09DA0920093A092C096E616EA4
S113464800696E66006F76660000000000D4119F52
S11346580AFC09FF09000000007F155917441200DD
S1134668000000821B551BFC091E1BF31AFB1A0FC2
S10546781B0021
S9030000FC
