:1000000064C135C60DC686C185C184C183C182C1A4
:1000100081C1BCC57FC188C562C57CC17BC17AC1B5
:1000200079C14CC677C10D0A00222C3830004154EA
:100030002B43495053544152543D22544350222C97
:100040002200557365722D4167656E743A204D6FBD
:100050007A696C6C612F352E302028576569676886
:10006000746C6F676765723B2065732D41523B204E
:1000700072763A312E392E312E3529204765636B41
:100080006F2F323030393131303220466972656637
:100090006F782F332E352E350D0A2020416363658E
:1000A00070743A20746578742F68746D6C2C2061BC
:1000B00070706C69636174696F6E2F786D6C2C2041
:1000C0006170706C69636174696F6E2F6A736F6EB3
:1000D0003B713D302E393B713D302E383B713D3008
:1000E0002E390D0A20204163636570742D4C616EBA
:1000F00067756167653A20656E2D75732C656E3B7B
:10010000713D302E350D0A20204163636570742DDA
:10011000436861727365743A2049534F2D383835FE
:10012000392D313B713D302E370D0A2020436F6E43
:1001300074656E742D4C656E6774683A2036340DA4
:100140000A2020436F6E74656E742D547970653A81
:10015000206170706C69636174696F6E2F782D77A0
:1001600077772D666F726D2D75726C656E636F6437
:1001700065640D0A00504F5354202F706573616AF7
:10018000652F6372656174655F66726F6D5F72661D
:10019000696420485454502F312E310D0A004154C7
:1001A0002B434950434C4F53453D350D0A00200D1C
:1001B0000A00646174613D00200D0A0041542B4324
:1001C000495053454E4445583D3531320D0A0041A2
:1001D000542B43494653520D0A00000000003600DC
:1001E000330030000D0A002C360D0A0041542B4319
:1001F000495053454E443D000000000000000000FF
:1002000000030406000000000000000000000000E1
:1002100038003500320000000000370034003100A3
:10022000040404040404040402020202020203039C
:1002300003030303010204081020408001020408A4
:10024000102001020408102041542B43495053450B
:10025000525645523D312C38300D0A0041542B4343
:1002600049504D55583D310D0A0041542B435741DB
:1002700055544F434F4E4E3D310D0A0041544531C8
:100280000D0A00415445300D0A0041542B5750537C
:100290003D310D0A0041542B43574D4F44455F44B7
:1002A00045463D310D0A0041542B5750533D300D0A
:1002B0000A004641494C4544004F4B2054414700F9
:1002C0004F4B204950410000820711241FBECFE54B
:1002D000D4E0DEBFCDBF10E0A0E6B0E0E4EAF4E198
:1002E00002C005900D92A63AB107D9F723E0A6EA1D
:1002F000B0E001C01D92A331B207E1F711E0C5E6FD
:10030000D1E003C02197FE0187D8C436D107D1F7C9
:1003100030D6C6C875CE0F931F93CF93DF938C0151
:10032000C0E0D0E0F801EC0FFD1F6491662371F08E
:10033000E0916A02F0916B020190F081E02D8AE673
:1003400092E00995892B11F02196ECCFCE01DF9137
:10035000CF911F910F910895E0914301F0914401D5
:10036000309729F010923A011092390109940895BA
:10037000CF93DF93AC01E0914101F09142013097BE
:10038000F1F090913C0180913B019817C0F090E012
:10039000292F30E02617370754F4D901AA55BF4F4B
:1003A000EA01C20FD31F88818C939F5FF1CF109217
:1003B0003C0160933B01CB01DF91CF910994DF9128
:1003C000CF910895CF92DF92EF92FF920F931F93F8
:1003D000CF93DF936C017A018B01C0E0D0E0CE15A2
:1003E000DF0589F0D8016D918D01D601ED91FC9169
:1003F0000190F081E02DC6010995892B11F47E0151
:1004000002C02196ECCFC701DF91CF911F910F91D0
:10041000FF90EF90DF90CF900895FC01538D448DB5
:10042000252F30E0842F90E0821B930B541710F09F
:10043000CF96089501970895FC01918D828D9817AC
:1004400061F0828DDF01A80FB11D5D968C91928DB8
:100450009F5F9F73928F90E008958FEF9FEF0895B5
:10046000FC01918D828D981731F0828DE80FF11D7E
:10047000858D90E008958FEF9FEF0895FC01918D99
:10048000228D892F90E0805C9F4F821B91098F7392
:10049000992708958AE692E0F1DF21E0892B09F49B
:1004A00020E0822F0895FC01848DDF01A80FB11D8B
:1004B000A35ABF4F2C91848D90E001968F7399279A
:1004C000848FA689B7892C93A089B1898C91806487
:1004D0008C93938D848D981306C00288F389E02D48
:1004E00080818F7D80830895EF92FF920F931F93F9
:1004F000CF93DF93EC0181E0888F9B8D8C8D9813D7
:1005000005C0E889F989808185FD23C0F62E0B8D11
:1005100010E00F5F1F4F0F731127E02E8C8DE81234
:100520000BC00FB607FCFACFE889F989808185FFF7
:10053000F5CFCE01B8DFF2CF8B8DFE01E80FF11DB4
:10054000E35AFF4FF0820B8FEA89FB89808180623A
:1005500007C0EE89FF896083E889F989808180641A
:10056000808381E090E0DF91CF911F910F91FF9008
:10057000EF900895CF93DF93EC01888D8823C1F02D
:10058000EA89FB89808185FD05C0A889B9898C919C
:1005900086FD0EC00FB607FCF5CF808185FFF2CF38
:1005A000A889B9898C9185FFEDCFCE017CDFE8CF9A
:1005B000DF91CF91089580E090E0892B19F06ADFF8
:1005C00081111ECD0895843039F0863049F0833092
:1005D00051F48FB58F7702C08FB58F7D8FBD089591
:1005E00085B58F7D85BD08951F93CF93DF93282F09
:1005F00030E0F901E850FE4F8491F901EC5CFD4FC9
:10060000D491F901E05EFD4FC491CC23C1F0162FC7
:100610008111D9DFEC2FF0E0EE0FFF1FE45FFD4FFB
:10062000A591B4918FB7F894111105C09C91ED2F4D
:10063000E095E92302C0EC91ED2BEC938FBFDF91A5
:10064000CF911F9108953FB7F89480913201909116
:100650003301A0913401B091350122B708B600FEF4
:1006600005C02F3F19F00196A11DB11D3FBFBA2F44
:10067000A92F982F8827820F911DA11DB11DBC01A4
:10068000CD0142E0660F771F881F991F4A95D1F769
:1006900008958F929F92AF92BF92CF92DF92EF9286
:1006A000FF926B017C01CFDF4B015C01C114D104CF
:1006B000E104F104E9F0C7DFDC01CB0188199909F5
:1006C000AA09BB09883E9340A105B10578F321E052
:1006D000C21AD108E108F10888EE880E83E0981E5E
:1006E000A11CB11CC114D104E104F10421F7DECF37
:1006F000FF90EF90DF90CF90BF90AF909F908F9042
:1007000008952FB7F89460912E0170912F01809178
:100710003001909131012FBF0895089585ED86BF76
:1007200006B604FCFDCF1092380108954091E60012
:10073000262F30E0240F311D21323105DCF42091C9
:1007400038012430C9F4FC0180E090E0861758F4A9
:100750003091E6002191DC01AA53BF4FA30FB11DD8
:100760002C930196F3CF8091E600680F6093E6002A
:1007700080E0089581E0089582E008950895E09171
:100780003C0180913B01E81730F4F0E0EA55FF4F5F
:10079000808190E008958FEF9FEF089590913C0144
:1007A00080913B01981750F4E92FF0E0EA55FF4F94
:1007B000208130E09F5F90933C0102C02FEF3FEF1C
:1007C000C901089580913B0190E020913C01821B7A
:1007D00091090895CF93DF9300D0CDB7DEB7CB0159
:1007E000642F49835A83A2DF4981842F5A81952F30
:1007F0000F900F90DF91CF910895CF93DF931F92C9
:10080000CDB7DEB7698361E0CE0101968FDF81E06D
:1008100090E00F90DF91CF910895089580E090E0EF
:100820000895CF93DF93EC018CEE91E074DDE091BD
:100830006A02F0916B020190F081E02D60916E01EF
:100840008AE692E0099587EE91E065DDCE0163DDF1
:1008500084EE91E0DF91CF915ECD8AE692E00EDEEC
:10086000892B21F08AE692E0E7DDF7CF0895CF9358
:10087000DF9360E971E080E090E00BDFEBEFF1E007
:100880008491E7E3F2E0D491E3E2F2E0C491CC2377
:1008900069F0811198DEEC2FF0E0EE0FFF1FE652B9
:1008A000FE4FA591B491EC91ED2321F481E080936A
:1008B000690202C010926902DF91CF910895B2D50A
:1008C000CF93DF93C0E0D0E0CE0191D59FEC980F9D
:1008D000983020F4FE01EB5BFE4F80832196CF30F1
:1008E000D10591F7DF91CF9108956115710579F0E8
:1008F000FB0101900020E9F73197AF01461B570B30
:10090000DC01ED91FC910280F381E02D099480E0FF
:1009100090E008950F931F93CF93809169028032E6
:10092000E1F028F48031C9F560916D0137C0803461
:10093000B9F0803891F589E480936D018EDF8FECFA
:1009400091E0E9DC8AE692E015DE61E070E080E0AB
:1009500090E09FDE00E010E019C068E870E030C071
:1009600083E580936D01ACDF65E471E029C00D3152
:100970001105E9F0CF5FCF3038F08AE692E05CDD18
:10098000F801E85BFE4F80830F5F1F4FC02F8AE6A0
:1009900092E074DD892B59F0EACF60E087E093E0C4
:1009A0002CDF10926902CF911F910F91089555DFAE
:1009B000CE50EC2FF0E0EB5AFE4F108265E571E06F
:1009C00087E093E092DF85E480936D01EACF0F9397
:1009D0001F93CF9330913B0120913C01321709F4D2
:1009E0007AC08C0187E093E0D9DE803509F463C0DA
:1009F0003CF48734C1F1893409F06DC080E25CC0F9
:100A0000833599F1843509F066C08EE290E083DC8D
:100A100065E471E08AE692E068DF89E290E07BDCE1
:100A200086E290E078DC8CEB91E075DC8AE692E07F
:100A3000A1DD61E070E080E090E02BDE85E791E0F1
:100A40006ADC8AE692E096DD61E070E080E090E0AA
:100A500020DE82E490E05FDC88EB91E05CDC82EBFE
:100A600091E059DC04C080E827C080E425C0909163
:100A70003B0180913C01981741F087E093E08EDEC6
:100A8000682F8AE692E030DDF2CF8EEA91E043DC17
:100A900060E08AE692E028DD8EE991E03CDC8AE6BF
:100AA00092E068DD61E070E080E090E0F2DDCF91FF
:100AB0001F910F91D2CE80E180936902C1E08C2F0B
:100AC0000C2E000C990B801791072CF487E093E013
:100AD00065DECF5FF4CFCF911F910F9108951F92E4
:100AE0000F920FB60F9211242F933F934F935F9362
:100AF0006F937F938F939F93AF93BF93EF93FF93E6
:100B00008AE692E0D0DCFF91EF91BF91AF919F9187
:100B10008F917F916F915F914F913F912F910F90A6
:100B20000FBE0F901F9018951F920F920FB60F9245
:100B300011242F938F939F93EF93FF93E0917A0269
:100B4000F0917B028081E0918002F091810282FD30
:100B500012C09081809183028F5F8F7320918402F5
:100B6000821751F0E0918302F0E0E659FD4F958F36
:100B70008093830201C08081FF91EF919F918F91BB
:100B80002F910F900FBE0F901F9018951F920F92EC
:100B90000FB60F9211242F933F938F939F93AF9390
:100BA000BF9380912E0190912F01A0913001B091BF
:100BB000310130912D0123E0230F2D3720F40196D0
:100BC000A11DB11D05C026E8230F0296A11DB11D70
:100BD00020932D0180932E0190932F01A09330013B
:100BE000B09331018091320190913301A091340191
:100BF000B09135010196A11DB11D809332019093F2
:100C00003301A0933401B0933501BF91AF919F910F
:100C10008F913F912F910F900FBE0F901F901895BD
:100C20001F920F920FB60F9211242F933F934F9361
:100C30005F936F937F938F939F93AF93BF93EF9344
:100C4000FF93E0916200F09163000995FF91EF91AD
:100C5000BF91AF919F918F917F916F915F914F91D4
:100C60003F912F910F900FBE0F901F9018951F92DC
:100C70000F920FB60F9211242F933F934F935F93D0
:100C80006F937F938F939F93AF93BF93EF93FF9354
:100C9000E0916000F09161000995FF91EF91BF91A3
:100CA000AF919F918F917F916F915F914F913F9104
:100CB0002F910F900FBE0F901F9018951F920F92BB
:100CC0000FB60F9211242F933F934F935F936F931F
:100CD0007F938F939F93AF93BF93EF93FF9381B1D4
:100CE000887F803609F499C068F5883209F45BC0C2
:100CF00090F4803109F454C038F4882309F4EEC02C
:100D0000883009F44DC0EDC0883109F44CC0803200
:100D100009F45CC0E6C0803409F466C048F480334E
:100D200009F454C0883309F0DCC080930901D1C0B4
:100D3000803509F44EC0883509F45BC0883409F069
:100D4000D0C0CEC0883909F4C1C0A8F4883709F4EE
:100D500064C038F4883609F460C0803709F45DC097
:100D6000C0C0883809F4B2C0803909F45CC080384A
:100D700009F0B7C058C0803B09F481C038F4803A0C
:100D800009F462C0883A09F47AC0ABC0803C09F427
:100D9000A0C0883C09F49DC0883B09F485C0A1C06F
:100DA00080912C0110C090912B0180912A019817FD
:100DB00058F5E0912B0181E08E0F80932B01F0E03C
:100DC000E65FFE4F808183B985EC81C08093090185
:100DD00087C0E0912B0181E08E0F80932B0183B1BE
:100DE000F0E0E65FFE4F808390912B0180912A0115
:100DF0006AC0E0912B0181E08E0F80932B0183B1BB
:100E0000F0E0E65FFE4F808380913701811168C07A
:100E100081E08093360184EA5DC083E080933801ED
:100E200010920801D1CF80910801803208F04EC0A5
:100E3000E091080181E08E0F8093080183B1F0E01A
:100E4000E851FF4F8083C0CF85EC86BF10923801F8
:100E500080910801803230F4E0910801F0E0E8511F
:100E6000FF4F10826091080170E0E0913D01F09128
:100E70003E0188EE90E009951092080132C084E0AE
:100E8000809338011092E7001092E600E0913F0154
:100E9000F091400109958091E600811105C081E043
:100EA0008093E6001092C600E091E70081E08E0F8B
:100EB0008093E700F0E0EA53FF4F808183B990917F
:100EC000E7008091E600981708F47ECF85E886BF9A
:100ED00008C085EC86BF1092380103C0109209014A
:100EE0001DDCFF91EF91BF91AF919F918F917F9109
:100EF0006F915F914F913F912F910F900FBE0F9087
:100F00001F901895EAE6F2E01382128288EE93E0D1
:100F1000A0E0B0E084839583A683B78328E630E021
:100F20003183208320E430E03587248749E250E094
:100F3000578746874BE250E0518B408B4AE250E0A6
:100F4000538B428B358B248B2CE230E0378B268BF6
:100F5000118E128E138E148EE7E0F3E0138212824C
:100F600084839583A683B7838AE790E09183808307
:100F70000895CF93DF93CDB7DEB7A7970FB6F89458
:100F8000DEBF0FBECDBF789483B7826083BF83B7C7
:100F9000816083BF89B7816089BF1EBC8EB58260C6
:100FA0008EBD8EB581608EBD8FB581608FBD85B5DC
:100FB000846085BD85B5806485BD329A319A309A4A
:100FC000379A1AB880E382B98CEA91E09093400195
:100FD00080933F0188EB91E090933E0180933D0127
:100FE00010923C0110923B0110923A01109239018B
:100FF0001092380181E0809337011092360161E050
:1010000082E1F2DA61E083E1EFDA0898099888E496
:1010100080B985E486BFECE3F2E02491E8E2F2E0F7
:101020008491882399F090E0880F991FFC01EA5E73
:10103000FD4FA591B491FC01E45FFD4F8591949122
:101040008FB7F894EC91E22BEC938FBFE7E3F2E0DB
:101050002491E3E2F2E084918823C9F090E0880FC4
:10106000991FFC01EA5EFD4F45915491FC01E45F3C
:10107000FD4FA591B4919FB7F894FA013081822F6A
:10108000809583238083EC91E22BEC939FBF61E0FA
:1010900088E0AADA87EE94E09093420180934101C0
:1010A0008AE894E0909344018093430187E394E0BD
:1010B000909363008093620085B7837F886085BFCB
:1010C0008BB780688BBFE0917A02F0917B0282E05F
:1010D0008083E0917602F09177021082E0917802AD
:1010E000F091790280E1808310928202E0917E0289
:1010F000F0917F0286E88083E0917C02F0917D028E
:10110000808180618083E0917C02F0917D0280810A
:1011100088608083E0917C02F0917D02808180680C
:101120008083E0917C02F0917D0280818F7D8083BD
:1011300068E873E180E090E0ACDA1092690283E83D
:1011400092E0E9D88AE692E015DA65E070E080E0A6
:1011500090E09FDAD6DA6B017C0110E08AE692E03B
:101160008DD9892B81F411110EC0CBDADC01CB01B2
:101170008C199D09AE09BF0911E0803D9740A1057A
:10118000B10560F3EACF8AE692E078D9892B21F0A5
:101190008AE692E051D9F7CF112339F084E08093A9
:1011A00069028CE792E0B7D824C08AE692E0B3D80F
:1011B0008AE692E0DFD961E070E080E090E069DAF1
:1011C0004CDB8CE592E0A7D88AE692E0D3D961E0C7
:1011D00070E080E090E05DDA40DB88E492E09BD84C
:1011E0008AE692E0C7D961E070E080E090E051DAF1
:1011F00034DB80E1E5E4F1E0DF011D928A95E9F757
:101200008AEFEFE6F1E0DF011D928A95E9F785E4C8
:1012100080936D0155DB60E088E0E6D904E09AEF49
:10122000D92E24E5C22E80916902803109F44BC089
:1012300040F48430A9F1883039F1813009F041C09F
:1012400008C0803409F43FC08038E9F18032C9F524
:101250003AC085E992E05FD88AE892E05CD88AE6F5
:1012600092E0EAD8082E000C990B8E58904021F499
:1012700088E08093690202C000936902EEDA41DAE5
:1012800061E088E0B1D91FC03CDA613A7F40810556
:10129000910534F087EA92E03ED860E088E0A4D976
:1012A00061E088E0A1D966E970E080E090E0F1D9E2
:1012B00060E088E099D966E970E080E090E0E9D9E3
:1012C00002C0109269028AE692E0D8D8892B09F40C
:1012D0008BC080916902811187C010E08FE0B82E29
:1012E0008AE692E0CBD8892B09F47FC08AE692E0A7
:1012F000A3D8E12FF0E0E159FE4F808391E0910FF8
:1013000011E09A3F08F410E01D9D90191124192F47
:101310008A3031F760E970E08FE691E0A3D07C017C
:10132000AC016FE671E0CE014196ABD0E1E1F0E0B7
:10133000EC0FFD1FEE0DFF1D10828E8980936E0154
:1013400062E970E0CE01419684D0892B49F661E0D4
:1013500088E04AD9B70160597E4F46E050E0CE019F
:1013600081968FD01FA2B70166587E4F4FE050E0A4
:10137000CE01019686D0188A67E970E0CE01819689
:1013800055D0892BA9F4E12CF12CE1E0F0E0EC0F31
:10139000FD1FEE0DFF1D6081C70131D0F2E0EF0EA1
:1013A000F11C20E1E216F10481F780EC92E017C015
:1013B0006EE970E0CE01819639D0892B71F4C0922C
:1013C0006D01FE013196A5E5B1E08B2D01900D92E6
:1013D0008A95E1F789EB92E002C082EB92E021DA94
:1013E00060E088E001D97CCF38DAE5D81CCFE199FC
:1013F000FECF9FBB8EBBE09A99278DB30895262F11
:10140000E199FECF9FBB8EBB2DBB0FB6F894E29A3D
:10141000E19A0FBE01960895EE0FFF1F0590F4911B
:10142000E02D099481E090E0F8943AC0FB01DC01E2
:101430008D9181341CF08B350CF4805E61916134A8
:101440001CF06B350CF4605E861B611189F3990BFF
:101450000895FB01DC018D91019080190110D9F3F1
:10146000990B0895DC015D91552331F0FB0101904A
:1014700005160110E1F7B9F7809590958A0F9B1F2B
:101480000895FB01DC014150504048F001900D925D
:101490000020C9F701C01D9241505040E0F7089567
:0414A000F894FFCFEE
:1014A4008D038D03000000007402E2010D02BA02F4
:1014B4003E021C02300200000000FD03EA030E0499
:1014C400BE03E203CE03BF03494E494F4B004F0016
:1014D4003A002B495044005345525645520041446A
:0614E400445441470000E2
:00000001FF
