:100000004BC0F1C4C9C46DC06CC06BC06AC069C0CC
:1000100068C078C466C033C50DC563C062C061C026
:1000200060C05FC55EC0200D0A005400490D0A0083
:10003000540D0A0000000000370034003100510D5B
:100040000A0000000000360033003000570D0A009F
:1000500000000000380035003200040404040404E9
:100060000404020202020202030303030303010267
:100070000408102040800102040810200102040836
:100080001020000000000000000000030406000033
:10009000000000000000950611241FBECFE5D4E04B
:1000A000DEBFCDBF22E0A4E9B0E001C01D92AB30BD
:1000B000B207E1F710E0A0E6B0E0EAE3F1E102C048
:1000C00005900D92A439B107D9F710E0CCE4D0E047
:1000D00003C02197FE011CD8CB34D107D1F75CD6E1
:1000E0002AC88ECF843039F0863049F0833051F4FD
:1000F0008FB58F7702C08FB58F7D8FBD089585B581
:100100008F7D85BD08951F93CF93DF93282F30E017
:10011000F901EE57FF4F8491F901E259FF4FD49155
:10012000F901E65AFF4FC491CC23B9F0162F811183
:10013000D9DFEC2FF0E0EE0FFF1FE05BFF4FA59142
:10014000B4919FB7F894111104C08C91D095D82325
:1001500002C0EC91DE2BDC939FBFDF91CF911F910A
:1001600008953FB7F89480915E0190915F01A0914E
:100170006001B091610122B708B600FE05C02F3FB3
:1001800019F00196A11DB11D3FBFBA2FA92F982FBD
:100190008827820F911DA11DB11DBC01CD0142E038
:1001A000660F771F881F991F4A95D1F708958F9280
:1001B0009F92AF92BF92CF92DF92EF92FF926B012C
:1001C0007C01CFDF4B015C01C114D104E104F104D7
:1001D000E9F0C7DFDC01CB0188199909AA09BB093D
:1001E000883E9340A105B10578F321E0C21AD108F9
:1001F000E108F10888EE880E83E0981EA11CB11C6E
:10020000C114D104E104F10421F7DECFFF90EF9097
:10021000DF90CF90BF90AF909F908F9008952FB7B1
:10022000F89460915A0170915B0180915C0190910A
:100230005D012FBF089586E0809358010895E091F5
:100240002801F0912901309729F010922301109292
:10025000220109940895CF93DF93AC01E091260128
:10026000F09127013097F1F09091250180912401C0
:100270009817C0F090E0292F30E02617370754F484
:10028000D901AC56BF4FEA01C20FD31F28812C936E
:100290009F5FF1CF1092250160932401CB01DF9184
:1002A000CF910994DF91CF9108950895CF92DF9275
:1002B000EF92FF920F931F93CF93DF936C017A011C
:1002C0008B01C0E0D0E0CE15DF0581F0D8016D9143
:1002D0008D01D601ED91FC910190F081E02DC601D8
:1002E0000995892B11F02196EECF7E01C701DF9190
:1002F000CF911F910F91FF90EF90DF90CF900895D5
:10030000FC01538D448D252F30E0842F90E0821B1B
:10031000930B541710F0CF96089501970895FC01A0
:10032000918D828D981761F0828DDF01A80FB11D2C
:100330005D968C91928D9F5F9F73928F90E0089550
:100340008FEF9FEF0895FC01918D828D981731F00A
:10035000828DE80FF11D858D90E008958FEF9FEF5E
:100360000895FC01918D228D892F90E0805C9F4F34
:10037000821B91098F739927089582E691E0F1DF3E
:1003800021E0892B09F420E0822F0895FC01848D5F
:10039000DF01A80FB11DA35ABF4F2C91848D90E0AF
:1003A00001968F739927848FA689B7892C93A0898A
:1003B000B1898C9182748C93938D848D981306C02F
:1003C0000288F389E02D80818F7D80830895EF92EC
:1003D000FF920F931F93CF93DF93EC0181E0888FFF
:1003E0009B8D8C8D981305C0E889F989808185FDE6
:1003F00025C0F62E0B8D10E00F5F1F4F0F731127D6
:10040000E02E8C8DE8120BC00FB607FCFACFE889FE
:10041000F989808185FFF5CFCE01B8DFF2CF8B8DD2
:10042000FE01E80FF11DE35AFF4FF0829FB7F894E9
:100430000B8FEA89FB898081806209C09FB7F8949D
:10044000EE89FF896083E889F989808182748083DD
:100450009FBF81E090E0DF91CF911F910F91FF90BE
:10046000EF9008950F931F93CF93DF938C01C0E01B
:10047000D0E0F801EC0FFD1F6491662339F082E6AD
:1004800091E0A5DF892B11F02196F3CFCE01DF910A
:10049000CF911F910F910895CF93DF93EC01888D39
:1004A0008823C1F0EA89FB89808185FD05C0A88980
:1004B000B9898C9186FD0EC00FB607FCF5CF8081FF
:1004C00085FFF2CFA889B9898C9185FFEDCFCE0148
:1004D0005DDFE8CFDF91CF91089580E090E0892B38
:1004E00019F04BDF81118CCD089585ED86BF06B6DE
:1004F00004FCFDCF1092210108954091D400262FD5
:1005000030E0240F311D21323105DCF4209121012E
:100510002430C9F4FC0180E090E0861758F4309153
:10052000D4002191DC01AC54BF4FA30FB11D2C931B
:100530000196F3CF8091D400680F6093D40080E0DF
:10054000089581E0089582E008950895E0912501DD
:1005500080912401E81730F4F0E0EC56FF4F8081E1
:1005600090E008958FEF9FEF08959091250180917D
:100570002401981750F4E92FF0E0EC56FF4F20814A
:1005800030E09F5F9093250102C02FEF3FEFC9013C
:1005900008958091240190E020912501821B91090A
:1005A0000895CF93DF93CB01EA01642FA6DFCE013C
:1005B000DF91CF910895CF93DF931F92CDB7DEB730
:1005C000698361E0CE01019698DF81E090E00F90B1
:1005D000DF91CF910895089580E090E0089582E63C
:1005E00091E0BFDE892B21F082E691E098DEF7CF23
:1005F00008950F931F93CF93C0912401209125015B
:10060000C21709F44EC08C018FEF91E0AEDF803548
:10061000A9F13CF4873481F0893409F042C080E2CA
:100620002EC0833571F0843589F08135D1F586E1AE
:100630008093580184E526C080E88093580189E4BE
:1006400021C080E48093580185E41CC08AE290E0D8
:1006500009DF80912501C81741F08FEF91E085DF18
:10066000682F82E691E0B3DEF4CF86E290E0FADE16
:1006700082E691E0CF911F910F910ECF80E18093A0
:10068000580102C080932A01C1E08C2F0C2E000C6F
:10069000990B801791072CF48FEF91E066DFCF5F05
:1006A000F4CFCF911F910F91089538D56115710541
:1006B00079F0FB0101900020E9F73197AF01461B6B
:1006C000570BDC01ED91FC910280F381E02D099440
:1006D00080E090E008958F929F92AF92BF92CF9268
:1006E000DF92EF92FF920F931F93CF93DF93CDB7DB
:1006F000DEB764970FB6F894DEBF0FBECDBF809112
:1007000058018032D1F1E0F48031A1F1863109F055
:10071000C7C08E010F5F1F4F84E1F80111928A95C7
:10072000E9F780E390E09EDE82E691E0B5DE65E0E9
:1007300070E080E090E03BDDD12C84E1C82E89C0E0
:10074000803421F1803809F0ABC089E480932A011C
:1007500046DF8CE290E086DE82E691E09DDE61E09D
:1007600070E080E090E023DD9EE1E92E91E0F92E3B
:1007700010E068C060912A0194C068E870E08FEFD3
:1007800091E094DF81E480932A018EC083E5809319
:100790002A018E010F5F1F4F80E1F80111928A95A7
:1007A000E9F76EE870E082E691E080DF60E970E0F2
:1007B00082E691E07BDF82E691E06EDE65E070E04C
:1007C00080E090E0F4DC7E01F0E1EF0EF11C27DD2B
:1007D00060936A0170936B0180936C0190936D013B
:1007E00082E691E09CDD97FF74C019DD80906A017C
:1007F00090906B01A0906C01B0906D01DC01CB0179
:1008000088199909AA09BB0980906601909067012F
:10081000A0906801B090690188159905AA05BB05EB
:10082000F8F263E471E06AC01D3109F45EC01F5F35
:100830001F3028F082E691E072DDF7018083FFEF40
:10084000EF1AFF0A82E691E08CDD892B09F44DC096
:10085000EBCF82E691E085DDED2C0D2C000CFF083E
:10086000892B69F082E691E05ADDF801EE0DFF1D5B
:10087000808381E08D0D6C2D32D4D92EEACFF80122
:10088000EE0DFF1D1082F80101900020E9F731976D
:10089000AF01401B510BB8018BE291E043D42CC057
:1008A00060E08FEF91E087DE1092580164960FB6FA
:1008B000F894DEBF0FBECDBFDF91CF911F910F9196
:1008C000FF90EF90DF90CF90BF90AF909F908F9070
:1008D00008958D30910509F4A4CFF80181938F011B
:1008E000EE16FF0609F073CF9CCF79DE1E50E12F84
:1008F000F0E0E55DFE4F10826BE271E08FEF91E07A
:10090000D5DED2CF1F920F920FB60F9211242F93E4
:100910003F938F939F93AF93BF9380915A01909190
:100920005B01A0915C01B0915D013091590123E020
:10093000230F2D3720F40196A11DB11D05C026E817
:10094000230F0296A11DB11D2093590180935A01D6
:1009500090935B01A0935C01B0935D0180915E0177
:1009600090915F01A0916001B09161010196A11D7C
:10097000B11D80935E0190935F01A0936001B093DD
:100980006101BF91AF919F918F913F912F910F90F6
:100990000FBE0F901F9018951F920F920FB60F92D7
:1009A00011242F933F934F935F936F937F938F9374
:1009B0009F93AF93BF93EF93FF93E0916200F09109
:1009C00063000995FF91EF91BF91AF919F918F9136
:1009D0007F916F915F914F913F912F910F900FBE3B
:1009E0000F901F9018951F920F920FB60F9211241F
:1009F0002F933F934F935F936F937F938F939F9327
:100A0000AF93BF93EF93FF93E0916000F09161008B
:100A10000995FF91EF91BF91AF919F918F917F9138
:100A20006F915F914F913F912F910F900FBE0F905B
:100A30001F9018951F920F920FB60F9211242F93AB
:100A40003F934F935F936F937F938F939F93AF9356
:100A5000BF93EF93FF9382E691E098DCFF91EF91D3
:100A6000BF91AF919F918F917F916F915F914F91C6
:100A70003F912F910F900FBE0F901F9018951F92CE
:100A80000F920FB60F9211242F938F939F93EF9392
:100A9000FF93E0917201F09173018081E091780100
:100AA000F091790182FD12C0908180917B018F5F6E
:100AB0008F7320917C01821751F0E0917B01F0E06F
:100AC000EE59FE4F958F80937B0101C08081FF918D
:100AD000EF919F918F912F910F900FBE0F901F90CC
:100AE00018951F920F920FB60F9211242F933F93D8
:100AF0004F935F936F937F938F939F93AF93BF9326
:100B0000EF93FF9381B1887F803609F499C068F52F
:100B1000883209F45BC090F4803109F454C038F491
:100B2000882309F4EEC0883009F44DC0EDC0883147
:100B300009F44CC0803209F45CC0E6C0803409F48A
:100B400066C048F4803309F454C0883309F0DCC02F
:100B50008093F700D1C0803509F44EC0883509F480
:100B60005BC0883409F0D0C0CEC0883909F4C1C058
:100B7000A8F4883709F464C038F4883609F460C0F2
:100B8000803709F45DC0C0C0883809F4B2C080392C
:100B900009F45CC0803809F0B7C058C0803B09F444
:100BA00081C038F4803A09F462C0883A09F47AC006
:100BB000ABC0803C09F4A0C0883C09F49DC0883BD0
:100BC00009F485C0A1C080911A0110C0909119014B
:100BD00080911801981758F5E091190181E08E0F66
:100BE00080931901F0E0E850FF4F808183B985ECD4
:100BF00081C08093F70087C0E091190181E08E0FDA
:100C00008093190183B1F0E0E850FF4F8083909109
:100C10001901809118016AC0E091190181E08E0FDD
:100C20008093190183B1F0E0E850FF4F80838091F9
:100C30002001811168C081E080931F0184EA5DC0BA
:100C400083E0809321011092F600D1CF8091F600CD
:100C5000803208F04EC0E091F60081E08E0F809364
:100C6000F60083B1F0E0EA52FF4F8083C0CF85ECFD
:100C700086BF109221018091F600803230F4E0911D
:100C8000F600F0E0EA52FF4F10826091F60070E04B
:100C9000E0911B01F0911C0186ED90E00995109206
:100CA000F60032C084E0809321011092D5001092AA
:100CB000D400E0911D01F0911E0109958091D400AE
:100CC000811105C081E08093D4001092B400E091BE
:100CD000D50081E08E0F8093D500F0E0EC54FF4FFB
:100CE000808183B99091D5008091D400981708F441
:100CF0007ECF85E886BF08C085EC86BF10922101B3
:100D000003C01092F700F1DBFF91EF91BF91AF911B
:100D10009F918F917F916F915F914F913F912F9113
:100D20000F900FBE0F901F901895E2E6F1E013822E
:100D3000128288EE93E0A0E0B0E084839583A683DE
:100D4000B78328E630E03183208320E430E0358724
:100D5000248749E250E0578746874BE250E0518BA9
:100D6000408B4AE250E0538B428B358B248B2CE234
:100D700030E0378B268B118E128E138E148EEFEF90
:100D8000F1E01382128284839583A683B7838AE776
:100D900090E0918380830895789483B7826083BFC5
:100DA00083B7816083BF89B7816089BF1EBC8EB560
:100DB00082608EBD8EB581608EBD8FB581608FBD26
:100DC00085B5846085BD85B5806485BD329A319ACC
:100DD000309A379A1AB81092250110922401109275
:100DE0002301109222011092210181E080932001C1
:100DF00010921F0161E082E186D961E083E183D92D
:100E00000898099888E480B985E486BF8FE191E06D
:100E100090931E0180931D018BE291E090931C0141
:100E200080931B0180E382B9E6E7F0E02491E2E6DB
:100E3000F0E08491882399F090E0880F991FFC01DD
:100E4000EC5CFF4FA591B491FC01E05BFF4F8591F5
:100E500094918FB7F894EC91E22BEC938FBFC1E79C
:100E6000D0E0FE0144910DE510E0F8018491882363
:100E7000C9F090E0880F991FFC01EC5CFF4F2591B1
:100E80003491FC01E05BFF4FA591B4915FB7F894FA
:100E9000F9019081842F8095982390838C91842BE5
:100EA0008C935FBF61E088E02ED989EF92E0909348
:100EB0002701809326018BE693E09093290180938C
:100EC00028018BE191E0909363008093620085B7E5
:100ED000837F886085BF8BB780688BBFE09172018C
:100EE000F091730182E08083E0916E01F0916F01D7
:100EF0001082E0917001F091710180E18083109285
:100F00007A01E0917601F091770186E88083E091A3
:100F10007401F0917501808180618083E09174019A
:100F2000F0917501808188608083E0917401F09177
:100F30007501808180688083E0917401F091750172
:100F400080818F7D808368E873E180E090E02FD915
:100F5000109258018EE390E085DA82E691E09CDA07
:100F600065E070E080E090E022D959D94B015C0146
:100F7000F12C82E691E0F5D9892B39F4FF2009F4B0
:100F800097C084E08093580103C0F110FACF27DBAB
:100F900080E1E3E4F1E0DF011D928A95E9F788E161
:100FA000EBE2F1E0DF011D928A95E9F785E4809399
:100FB0002A0160E088E0A7D895E8E92E90E0F92EB4
:100FC0002ED920915801243009F460C0F8F4213062
:100FD00009F06CC08CE490E045DA82E691E05CDADE
:100FE00065E070E080E090E0E2D8F9DA18D960932B
:100FF000540170935501809356019093570161E01D
:1010000088E081D81092530188E063C0263019F03F
:101010002830F1F04BC06CED75E080E090E0C7D86F
:10102000F7018491FE01B490F801D490DD2009F419
:101030004FC0811157D8ED2DF0E0EE0FFF1FEE5B92
:10104000FF4FA591B4918C918B2109F441C044C00C
:1010500020915301211113C08090540190905501AB
:10106000A0905601B0905701DC01CB018819990975
:10107000AA09BB0981339547A105B10528F060E0B5
:1010800088E041D810925801AADA10C061E088E0E7
:101090003AD866E970E080E090E089D860E088E0C6
:1010A00032D866E970E080E090E081D816DA88CF27
:1010B000B6D8DC01CB0188199909AA09BB09FF241C
:1010C000F394803D9740A105B10508F452CF50CF6D
:1010D00081E080935801EACF10925801E7CF87FB57
:1010E000082E062687FD819567FD619505D00EF4D3
:1010F000919507FC81950895991B79E004C0991F8B
:10110000961708F0961B881F7A95C9F78095089561
:10111000EE0FFF1F0590F491E02D099481E090E01F
:10112000F89409C0FB01DC0102C001900D9241500E
:0A1130005040D8F70895F894FFCF5F
:10113A005501550100000000E701560180014C02EB
:10114A00B1018F01A30100000000DB02D102EC0211
:10115A00A502C902B502A602494E494F4B004500F5
:04116A000D0A00006A
:101C000012C02BC02AC029C028C027C026C025C0AA
:101C100024C023C022C021C020C01FC01EC01DC0C0
:101C20001CC01BC01AC011241FBECFE5D4E0DEBF0C
:101C3000CDBF10E0A0E6B0E0E8EEFFE102C0059005
:101C40000D92A236B107D9F711E0A2E6B0E001C0CB
:101C50001D92AA36B107E1F74FC0D2CFEF92FF92A3
:101C60000F931F93EE24FF24870113C00894E11CF7
:101C7000F11C011D111D81E0E81682E1F8068AE7DA
:101C8000080780E0180728F0E0916200F0916300F7
:101C900009955F9BEBCF8CB1992787FD90951F919C
:101CA0000F91FF90EF9008955D9BFECF8CB9089542
:101CB000D5DF803221F484E1F7DF80E1F5DF08959C
:101CC0001F93182FCBDF803231F484E1EDDF812FB9
:101CD000EBDF80E1E9DF1F9108951F93CF93DF933E
:101CE000182FC0E0D0E002C0B9DF2196C117E0F3A1
:101CF000DF91CF911F910895CFE5D4E0DEBFCDBF36
:101D0000000010BC83E389B988E18AB986E880BD08
:101D1000BD9A1092680130E2E0E0F0E02FE088B375
:101D2000832788BBCF010197F1F7215027FFF7CF19
:101D300020E12093680192DF803381F1813399F4AF
:101D40008DDF8032C1F784E1AFDF81E4ADDF86E56E
:101D5000ABDF82E5A9DF80E2A7DF89E4A5DF83E5C9
:101D6000A3DF80E5C7C0803429F478DF8638B0F07F
:101D700075DF14C0813471F471DF803811F482E0B2
:101D80001DC1813811F481E019C1823809F015C1F3
:101D900082E114C1823421F484E19FDF89DFCBCF5B
:101DA000853411F485E0F9CF8035C1F38135B1F385
:101DB0008235A1F3853539F451DF809364004EDF1D
:101DC00080936500EBCF863519F484E086DFF5C09B
:101DD000843609F093C042DF809367013FDF809330
:101DE0006601809169018E7F8093690137DF8534B8
:101DF00029F480916901816080936901C0E0D0E09D
:101E000006E610E005C02ADFF80181938F012196D4
:101E10008091660190916701C817D907A0F31EDF72
:101E2000803209F088CF8091690180FF1FC020E0D7
:101E300030E0E6E6F0E012C0A0916400B0916500E9
:101E40008191082EC5D08091640090916500019623
:101E500090936500809364002F5F3F4F80916601EF
:101E6000909167012817390738F343C0F894E19936
:101E7000FECF1127E0916400F0916500EE0FFF1F87
:101E8000C6E6D0E0809166019091670180FF01C0B5
:101E90000196103051F422D003E000935700E895EA
:101EA0001DD001E100935700E8950990199016D0D4
:101EB00001E000935700E8951395103258F0112770
:101EC0000DD005E000935700E89508D001E100939C
:101ED0005700E8953296029739F0DBCF0091570012
:101EE00001700130D9F30895103011F00296E7CF58
:101EF000112484E1D9DE80E1D7DE1DCF843709F0DB
:101F00004BC0ACDE80936701A9DE80936601A6DE3C
:101F100090916901853421F49160909369010DC01D
:101F20009E7F909369018091640090916500880F75
:101F3000991F909365008093640090DE803209F0D1
:101F4000FACE84E1B1DEC0E0D0E01EC0809169012C
:101F500080FF07C0A0916400B091650031D0802D52
:101F600008C081FD07C0E0916400F0916500E49134
:101F70008E2F9ADE80916400909165000196909377
:101F800065008093640021968091660190916701BD
:101F9000C817D907D8F2AFCF853761F45FDE80323A
:101FA00009F0C9CE84E180DE8EE17EDE83E97CDE4D
:101FB00087E0A0CF863709F0BECE80E081DEBBCEC1
:101FC000E199FECFBFBBAEBBE09A11960DB208956A
:101FD000E199FECFBFBBAEBB0DBA11960FB6F89418
:081FE000E29AE19A0FBE089598
:021FE800800077
:0400000300001C00DD
:00000001FF
