:1000000049C08AC462C46BC06AC069C068C067C0A6
:1000100066C011C464C0CCC4A6C461C060C05FC067
:100020005EC0F8C45CC0490D0A005400540D0A00BB
:1000300000000000370034003100510D0A000000BC
:100040000000360033003000570D0A0000000000A9
:1000500038003500320004040404040404040202DD
:100060000202020203030303030301020408102037
:100070004080010204081020010204081020000042
:100080000000000000000003040600000000000063
:1000900000002E0611241FBECFE5D4E0DEBFCDBF89
:1000A00010E0A0E6B0E0E8EBF0E102C005900D92B0
:1000B000A839B107D9F722E0A8E9B0E001C01D9244
:1000C000AF30B207E1F710E0CAE4D0E003C02197F7
:1000D000FE01DDD7C934D107D1F7F7D5EBC790CFF3
:1000E000843039F0863049F0833051F48FB58F7702
:1000F00002C08FB58F7D8FBD089585B58F7D85BD7D
:1001000008951F93CF93DF93282F30E0F901E25831
:10011000FF4F8491F901E659FF4FD491F901EA5A52
:10012000FF4FC491CC23B9F0162F8111D9DFEC2FEA
:10013000F0E0EE0FFF1FE45BFF4FA591B4919FB776
:10014000F894111104C08C91D095D82302C0EC9181
:10015000DE2BDC939FBFDF91CF911F9108953FB7B6
:10016000F8948091620190916301A0916401B09133
:10017000650122B708B600FE05C02F3F19F00196B1
:10018000A11DB11D3FBFBA2FA92F982F8827820F1D
:10019000911DA11DB11DBC01CD0142E0660F771F6D
:1001A000881F991F4A95D1F708958F929F92AF9219
:1001B000BF92CF92DF92EF92FF926B017C01CFDF73
:1001C0004B015C01C114D104E104F104E9F0C7DF83
:1001D000DC01CB0188199909AA09BB09883E934023
:1001E000A105B10578F321E0C21AD108E108F108B0
:1001F00088EE880E83E0981EA11CB11CC114D104A6
:10020000E104F10421F7DECFFF90EF90DF90CF9073
:10021000BF90AF909F908F90089586E080935C018F
:100220000895E0912C01F0912D01309729F0109262
:1002300027011092260109940895CF93DF93AC0112
:10024000E0912A01F0912B013097F1F09091290172
:10025000809128019817C0F090E0292F30E02617F0
:10026000370754F4D901A856BF4FEA01C20FD31F74
:1002700028812C939F5FF1CF109229016093280170
:10028000CB01DF91CF910994DF91CF91089508952B
:10029000CF92DF92EF92FF920F931F93CF93DF9352
:1002A0006C017A018B01C0E0D0E0CE15DF0581F052
:1002B000D8016D918D01D601ED91FC910190F081F5
:1002C000E02DC6010995892B11F02196EECF7E0114
:1002D000C701DF91CF911F910F91FF90EF90DF90B9
:1002E000CF900895FC01538D448D252F30E0842F4D
:1002F00090E0821B930B541710F0CF96089501974E
:100300000895FC01918D828D981761F0828DDF0137
:10031000A80FB11D5D968C91928D9F5F9F73928FF8
:1003200090E008958FEF9FEF0895FC01918D828DED
:10033000981731F0828DE80FF11D858D90E00895BA
:100340008FEF9FEF0895FC01918D228D892F90E012
:10035000805C9F4F821B91098F739927089586E6D1
:1003600091E0F1DF21E0892B09F420E0822F08954C
:10037000FC01848DDF01A80FB11DA35ABF4F2C9142
:10038000848D90E001968F739927848FA689B78911
:100390002C93A089B1898C9182748C93938D848DD8
:1003A000981306C00288F389E02D80818F7D8083B9
:1003B0000895EF92FF920F931F93CF93DF93EC0179
:1003C00081E0888F9B8D8C8D981305C0E889F98911
:1003D000808185FD25C0F62E0B8D10E00F5F1F4F2D
:1003E0000F731127E02E8C8DE8120BC00FB607FC9F
:1003F000FACFE889F989808185FFF5CFCE01B8DF92
:10040000F2CF8B8DFE01E80FF11DE35AFF4FF08212
:100410009FB7F8940B8FEA89FB898081806209C0BD
:100420009FB7F894EE89FF896083E889F989808114
:10043000827480839FBF81E090E0DF91CF911F9114
:100440000F91FF90EF9008950F931F93CF93DF9339
:100450008C01C0E0D0E0F801EC0FFD1F6491662331
:1004600039F086E691E0A5DF892B11F02196F3CFD4
:10047000CE01DF91CF911F910F910895CF93DF931C
:10048000EC01888D8823C1F0EA89FB89808185FD94
:1004900005C0A889B9898C9186FD0EC00FB607FCEE
:1004A000F5CF808185FFF2CFA889B9898C9185FF2E
:1004B000EDCFCE015DDFE8CFDF91CF91089580E0F1
:1004C00090E0892B19F04BDF81119ACD089585EDCD
:1004D00086BF06B604FCFDCF109225010895409119
:1004E000D800262F30E0240F311D21323105DCF4F5
:1004F000209125012430C9F4FC0180E090E08617AA
:1005000058F43091D8002191DC01A854BF4FA30FBB
:10051000B11D2C930196F3CF8091D800680F6093A2
:10052000D80080E0089581E0089582E0089508955C
:10053000E091290180912801E81730F4F0E0E856B5
:10054000FF4F808190E008958FEF9FEF0895909185
:10055000290180912801981750F4E92FF0E0E8561E
:10056000FF4F208130E09F5F9093290102C02FEF61
:100570003FEFC90108958091280190E02091290161
:10058000821B91090895CF93DF93CB01EA01642F79
:10059000A6DFCE01DF91CF910895CF93DF931F9215
:1005A000CDB7DEB7698361E0CE01019698DF81E0C7
:1005B00090E00F90DF91CF910895089580E090E052
:1005C000089586E691E0BFDE892B21F086E691E072
:1005D00098DEF7CF089561D56115710579F0FB01BB
:1005E00001900020E9F73197AF01461B570BDC0162
:1005F000ED91FC910280F381E02D099480E090E080
:10060000089580915C01863191F028F48031E9F4FD
:1006100060912E011BC0803219F0803841F015C066
:1006200068E870E083E092E0D7DF81E40BC06EE819
:1006300070E083E092E0D0DF6FE271E083E092E06F
:10064000CBDF85E480932E0104C060E083E092E07C
:10065000A4DF10925C010895AF92BF92CF92DF9217
:10066000EF92FF920F931F93CF93DF93CDB7DEB737
:1006700064970FB6F894DEBF0FBECDBF109128016E
:1006800020912901121709F4C5C07C0183E092E092
:100690005EDF803509F46BC03CF4873479F089342F
:1006A00009F0B8C080E264C0813509F464C08435C3
:1006B00009F0B0C08AE290E0C7DE3AC089E48093D6
:1006C0002E017FDF86E290E0BFDE86E691E0D6DE97
:1006D00010E00FE086E691E036DE892B91F086E6A9
:1006E00091E00FDE8D30B1F38A30A1F3E12FF0E01D
:1006F000E15DFE4F808381E0810F602FAFD4192F21
:10070000E9CF61E970E086E691E066DF65E970E0D7
:1007100086E691E061DF86E691E0F3DDE12FF0E02F
:10072000E15DFE4F108280E880935C0189E463C044
:1007300080912901181741F083E092E008DF682FCB
:1007400086E691E036DEF4CF86E691E064960FB659
:10075000F894DEBF0FBECDBFDF91CF911F910F91F7
:10076000FF90EF90DF90CF90BF90AF9087CE80E169
:1007700080935C0142C086E180935C018E010F5F33
:100780001F4F84E1F80111928A95E9F78CE290E01D
:100790005BDE86E691E072DE65E070E080E090E08E
:1007A00004DDB12C84E1A82E86E691E0CCDDCB2CD3
:1007B0000B2C000CDD08892B69F086E691E0A1DDA9
:1007C000F801EC0DFD1D808381E08B0D6A2D52D464
:1007D000B92EEACFF801EC0DFD1D1082F801019051
:1007E0000020E9F73197AF01401B510BB8018FE2B0
:1007F00091E057D484E580932E0111E0812F012EE2
:10080000000C990B8E159F052CF483E092E09FDE7F
:100810001F5FF4CF64960FB6F894DEBF0FBECDBF56
:10082000DF91CF911F910F91FF90EF90DF90CF90CC
:10083000BF90AF9008951F920F920FB60F921124A0
:100840002F933F938F939F93AF93BF9380915E01BC
:1008500090915F01A0916001B091610130915D01C3
:1008600023E0230F2D3720F40196A11DB11D05C0F3
:1008700026E8230F0296A11DB11D20935D018093F0
:100880005E0190935F01A0936001B093610180913C
:10089000620190916301A0916401B091650101969C
:1008A000A11DB11D8093620190936301A093640127
:1008B000B0936501BF91AF919F918F913F912F911F
:1008C0000F900FBE0F901F9018951F920F920FB6AA
:1008D0000F9211242F933F934F935F936F937F93C6
:1008E0008F939F93AF93BF93EF93FF93E091620039
:1008F000F09163000995FF91EF91BF91AF919F91A6
:100900008F917F916F915F914F913F912F910F90B8
:100910000FBE0F901F9018951F920F920FB60F9257
:1009200011242F933F934F935F936F937F938F93F4
:100930009F93AF93BF93EF93FF93E0916000F0918B
:1009400061000995FF91EF91BF91AF919F918F91B8
:100950007F916F915F914F913F912F910F900FBEBB
:100960000F901F9018951F920F920FB60F9211249F
:100970002F933F934F935F936F937F938F939F93A7
:10098000AF93BF93EF93FF9386E691E0F1DCFF9185
:10099000EF91BF91AF919F918F917F916F915F91F7
:1009A0004F913F912F910F900FBE0F901F90189570
:1009B0001F920F920FB60F9211242F938F939F9334
:1009C000EF93FF93E0917601F09177018081E091C0
:1009D0007C01F0917D0182FD12C0908180917F01A8
:1009E0008F5F8F7320918001821751F0E0917F011A
:1009F000F0E0EA59FE4F958F80937F0101C080811E
:100A0000FF91EF919F918F912F910F900FBE0F90BB
:100A10001F9018951F920F920FB60F9211242F93CB
:100A20003F934F935F936F937F938F939F93AF9376
:100A3000BF93EF93FF9381B1887F803609F499C00B
:100A400068F5883209F45BC090F4803109F454C031
:100A500038F4882309F4EEC0883009F44DC0EDC0A5
:100A6000883109F44CC0803209F45CC0E6C080349F
:100A700009F466C048F4803309F454C0883309F09F
:100A8000DCC08093FB00D1C0803509F44EC08835AE
:100A900009F45BC0883409F0D0C0CEC0883909F4AD
:100AA000C1C0A8F4883709F464C038F4883609F462
:100AB00060C0803709F45DC0C0C0883809F4B2C096
:100AC000803909F45CC0803809F0B7C058C0803B59
:100AD00009F481C038F4803A09F462C0883A09F414
:100AE0007AC0ABC0803C09F4A0C0883C09F49DC02A
:100AF000883B09F485C0A1C080911E0110C090916F
:100B00001D0180911C01981758F5E0911D0181E0AD
:100B10008E0F80931D01F0E0E450FF4F808183B978
:100B200085EC81C08093FB0087C0E0911D0181E0CE
:100B30008E0F80931D0183B1F0E0E450FF4F80835E
:100B400090911D0180911C016AC0E0911D0181E01E
:100B50008E0F80931D0183B1F0E0E450FF4F80833E
:100B600080912401811168C081E08093230184EA8F
:100B70005DC083E0809325011092FA00D1CF80916F
:100B8000FA00803208F04EC0E091FA0081E08E0F4A
:100B90008093FA0083B1F0E0E652FF4F8083C0CF2C
:100BA00085EC86BF109225018091FA00803230F4E6
:100BB000E091FA00F0E0E652FF4F10826091FA00F7
:100BC00070E0E0911F01F09120018AED90E009951D
:100BD0001092FA0032C084E0809325011092D9006F
:100BE0001092D800E0912101F091220109958091A5
:100BF000D800811105C081E08093D8001092B80020
:100C0000E091D90081E08E0F8093D900F0E0E854A4
:100C1000FF4F808183B99091D9008091D8009817B7
:100C200008F47ECF85E886BF08C085EC86BF1092A9
:100C3000250103C01092FB004ADCFF91EF91BF91A8
:100C4000AF919F918F917F916F915F914F913F9164
:100C50002F910F900FBE0F901F901895E6E6F1E0D0
:100C60001382128288EE93E0A0E0B0E08483958343
:100C7000A683B78328E630E03183208320E430E088
:100C80003587248749E250E0578746874BE250E09A
:100C9000518B408B4AE250E0538B428B358B248B37
:100CA0002CE230E0378B268B118E128E138E148E31
:100CB000E3E0F2E01382128284839583A683B783F4
:100CC0008AE790E0918380830895789483B7826067
:100CD00083BF83B7816083BF89B7816089BF1EBC32
:100CE0008EB582608EBD8EB581608EBD8FB5816000
:100CF0008FBD85B5846085BD85B5806485BD329A1C
:100D0000319A309A379A1AB8109229011092280114
:100D100010922701109226011092250181E0809304
:100D200024011092230161E082E1EBD961E083E1CB
:100D3000E8D90898099888E480B985E486BF81E1FC
:100D400091E090932201809321018DE191E09093B5
:100D5000200180931F0180E382B9E2E7F0E0249153
:100D6000EEE5F0E08491882399F090E0880F991FD8
:100D7000FC01E05DFF4FA591B491FC01E45BFF4FE6
:100D8000859194918FB7F894EC91E22BEC938FBFFF
:100D9000CDE6D0E0FE01449109E510E0F801849130
:100DA0008823C9F090E0880F991FFC01E05DFF4F98
:100DB00025913491FC01E45BFF4FA591B4915FB79D
:100DC000F894F9019081842F8095982390838C91D9
:100DD000842B8C935FBF61E088E093D98CE293E031
:100DE00090932B0180932A0181E093E090932D0151
:100DF00080932C018DE091E09093630080936200DA
:100E000085B7837F886085BF8BB780688BBFE09193
:100E10007601F091770182E08083E0917201F09198
:100E200073011082E0917401F091750180E180837B
:100E300010927E01E0917A01F0917B0186E8808337
:100E4000E0917801F0917901808180618083E09167
:100E50007801F0917901808188608083E091780148
:100E6000F0917901808180688083E0917801F09130
:100E7000790180818F7D808368E873E180E090E074
:100E800094D910925C018AE390E0DEDA86E691E084
:100E9000F5DA63E070E080E090E087D98FB7F894EE
:100EA00080905E0190905F01A0906001B090610120
:100EB0008FBFF12C86E691E046DA892B39F4FF20CA
:100EC00009F4ADC084E080935C0103C0F110FACF57
:100ED00078DB80E1E7E4F1E0DF011D928A95E9F734
:100EE00088E1EFE2F1E0DF011D928A95E9F785E400
:100EF00080932E0160E088E004D991E8E92E90E02B
:100F0000F92E8FB7F89440915E0150915F01609186
:100F10006001709161018FBF80915C01843009F4A0
:100F20006CC048F5813009F078C088E490E08CDA34
:100F300086E691E0A3DA65E070E080E090E035D9E4
:100F400040DB2FB7F89480915E0190915F01A091F2
:100F50006001B09161012FBF8093580190935901B6
:100F6000A0935A01B0935B0161E088E0CAD8109267
:100F7000570188E06DC0863019F08830F1F04DC01F
:100F80006CED75E080E090E010D9F7018491FE01EE
:100F9000B490F801D490DD2009F459C08111A0D893
:100FA000ED2DF0E0EE0FFF1FE25CFF4FA591B49135
:100FB0008C918B2109F44BC04EC080915701811157
:100FC00015C08091580190915901A0915A01B0919A
:100FD0005B015A016B01A81AB90ACA0ADB0A21E3AC
:100FE000A21625E7B206C104D10428F060E088E02B
:100FF00088D810925C01E5DA10C061E088E081D801
:1010000066E970E080E090E0D0D860E088E079D8D0
:1010100066E970E080E090E0C8D851DA72CF2FB76F
:10102000F89480915E0190915F01A0916001B09170
:1010300061012FBF88199909AA09BB09FF24F394FC
:10104000803D9740A105B10508F434CF32CF81E04F
:1010500080935C01E2CF10925C01DFCF991B79E0B5
:1010600004C0991F961708F0961B881F7A95C9F738
:101070008095089587FB082E062687FD819567FDDC
:101080006195ECDF0EF4919507FC81950895EE0FC4
:10109000FF1F0590F491E02D099481E090E0F89411
:1010A00009C0FB01DC0102C001900D92415050408B
:0810B000D8F70895F894FFCF72
:1010B8004701470100000000D901480172013E02C2
:1010C800A3018101950100000000CD02C302DE02E8
:1010D8009702BB02A7029802494E494F4B00443A77
:0810E800004F4F4F000D0A00FC
:101C000012C02BC02AC029C028C027C026C025C0AA
:101C100024C023C022C021C020C01FC01EC01DC0C0
:101C20001CC01BC01AC011241FBECFE5D4E0DEBF0C
:101C3000CDBF10E0A0E6B0E0E8EEFFE102C0059005
:101C40000D92A236B107D9F711E0A2E6B0E001C0CB
:101C50001D92AA36B107E1F74FC0D2CFEF92FF92A3
:101C60000F931F93EE24FF24870113C00894E11CF7
:101C7000F11C011D111D81E0E81682E1F8068AE7DA
:101C8000080780E0180728F0E0916200F0916300F7
:101C900009955F9BEBCF8CB1992787FD90951F919C
:101CA0000F91FF90EF9008955D9BFECF8CB9089542
:101CB000D5DF803221F484E1F7DF80E1F5DF08959C
:101CC0001F93182FCBDF803231F484E1EDDF812FB9
:101CD000EBDF80E1E9DF1F9108951F93CF93DF933E
:101CE000182FC0E0D0E002C0B9DF2196C117E0F3A1
:101CF000DF91CF911F910895CFE5D4E0DEBFCDBF36
:101D0000000010BC83E389B988E18AB986E880BD08
:101D1000BD9A1092680130E2E0E0F0E02FE088B375
:101D2000832788BBCF010197F1F7215027FFF7CF19
:101D300020E12093680192DF803381F1813399F4AF
:101D40008DDF8032C1F784E1AFDF81E4ADDF86E56E
:101D5000ABDF82E5A9DF80E2A7DF89E4A5DF83E5C9
:101D6000A3DF80E5C7C0803429F478DF8638B0F07F
:101D700075DF14C0813471F471DF803811F482E0B2
:101D80001DC1813811F481E019C1823809F015C1F3
:101D900082E114C1823421F484E19FDF89DFCBCF5B
:101DA000853411F485E0F9CF8035C1F38135B1F385
:101DB0008235A1F3853539F451DF809364004EDF1D
:101DC00080936500EBCF863519F484E086DFF5C09B
:101DD000843609F093C042DF809367013FDF809330
:101DE0006601809169018E7F8093690137DF8534B8
:101DF00029F480916901816080936901C0E0D0E09D
:101E000006E610E005C02ADFF80181938F012196D4
:101E10008091660190916701C817D907A0F31EDF72
:101E2000803209F088CF8091690180FF1FC020E0D7
:101E300030E0E6E6F0E012C0A0916400B0916500E9
:101E40008191082EC5D08091640090916500019623
:101E500090936500809364002F5F3F4F80916601EF
:101E6000909167012817390738F343C0F894E19936
:101E7000FECF1127E0916400F0916500EE0FFF1F87
:101E8000C6E6D0E0809166019091670180FF01C0B5
:101E90000196103051F422D003E000935700E895EA
:101EA0001DD001E100935700E8950990199016D0D4
:101EB00001E000935700E8951395103258F0112770
:101EC0000DD005E000935700E89508D001E100939C
:101ED0005700E8953296029739F0DBCF0091570012
:101EE00001700130D9F30895103011F00296E7CF58
:101EF000112484E1D9DE80E1D7DE1DCF843709F0DB
:101F00004BC0ACDE80936701A9DE80936601A6DE3C
:101F100090916901853421F49160909369010DC01D
:101F20009E7F909369018091640090916500880F75
:101F3000991F909365008093640090DE803209F0D1
:101F4000FACE84E1B1DEC0E0D0E01EC0809169012C
:101F500080FF07C0A0916400B091650031D0802D52
:101F600008C081FD07C0E0916400F0916500E49134
:101F70008E2F9ADE80916400909165000196909377
:101F800065008093640021968091660190916701BD
:101F9000C817D907D8F2AFCF853761F45FDE80323A
:101FA00009F0C9CE84E180DE8EE17EDE83E97CDE4D
:101FB00087E0A0CF863709F0BECE80E081DEBBCEC1
:101FC000E199FECFBFBBAEBBE09A11960DB208956A
:101FD000E199FECFBFBBAEBB0DBA11960FB6F89418
:081FE000E29AE19A0FBE089598
:021FE800800077
:0400000300001C00DD
:00000001FF
